:020000040800F2
:10000000780A002081020008E5210008E91E0008A6
:10001000E1210008CD1D0008B52700080000000000
:100020000000000000000000000000003D26000865
:10003000D11D000800000000E52500085127000838
:100040009B0200089B0200089B0200089B0200081C
:100050009B0200089B0200089B0200089B0200080C
:100060009B0200089B0200089B0200089B020008FC
:100070009B0200089B0200089B0200089B020008EC
:100080009B0200089B0200089B0200089B020008DC
:100090009B0200089B0200089B0200089B020008CC
:1000A0009B0200089B0200089B0200089B020008BC
:1000B0009B0200089B0200089B0200089B020008AC
:1000C0009B0200089B0200089B0200089B0200089C
:1000D0009B0200089B0200089B0200089B0200088C
:1000E0009B0200089B0200089B0200089B0200087C
:1000F0009B0200089B0200089B0200089B0200086C
:100100009B0200089B0200089B0200089B0200085B
:100110009B0200089B0200089B0200089B0200084B
:100120009B0200089B0200089B0200089B0200083B
:1001300000F002F800F094F80AA090E8000C824465
:100140008344AAF10107DA4501D100F089F8AFF242
:10015000090EBAE80F0013F0010F18BFFB1A43F0A5
:1001600001031847E838000008390000103A24BF9E
:1001700078C878C1FAD8520724BF30C830C144BF0C
:1001800004680C607047000000230024002500264E
:10019000103A28BF78C1FBD8520728BF30C148BFEA
:1001A0000B6070476E2900F09181702900F0B582D4
:1001B000662902F09786652902F09486672902F085
:1001C0009186612902F0908603681B0A28BF41F0DE
:1001D0008001692900F03E81642900F03B81752986
:1001E00000F038816F2900F04282782900F0818286
:1001F000E92900F0DD81E42900F0DA81F52900F039
:10020000D781EF2900F03F82F82900F0808203684F
:10021000DB0928BF41F08001632901F020807329A8
:1002200001F02580E32901F03080F32901F03580C9
:10023000002070471FB59DE8030000F059FB01F056
:1002400083F804000020002102F036FE401C6060AC
:100250000020002102F01AFEE0601FBD10B510BDA5
:1002600001F044F81146FFF7E5FF02F0F3FD01F05D
:100270003BF903B4FFF7F2FF03BC01F0B3F9000050
:100280000948804709480047FEE7FEE7FEE7FEE72A
:10029000FEE7FEE7FEE7FEE7FEE7FEE70448054966
:1002A000054A064B70470000552700083101000839
:1002B00078040020780A00207806002078060020C4
:1002C0000FB4002170B50546084606AB059A1E46D8
:1002D00000F044F80446401C00F010F8286038B1E3
:1002E000059A3346611C00F039F870BC5DF814FBC8
:1002F0004FF0FF30F9E770477047704770B506461A
:1003000000F0DAFA056806F10B0020F00704B442A9
:100310009CBF002070BD2B466A68BAB11068A0422D
:1003200010D304F1080188423CBF5068586007D3DD
:100330005168101941601168091B01605860146010
:10034000101D70BD13465268002AE7D12146284689
:1003500000F0BAFA0028DED170BD00007CB51D4661
:1003600016460C00009001D02044401E074B7B44F1
:100370002A4669460190304600F047FF05461CB109
:100380000020694600F054FF28467CBDC90E0000DD
:1003900070B5044685690068C10601D5302600E0C5
:1003A0002026C00707D070BDD4E901213046904710
:1003B000206A401C20626D1EF6D570BD70B50446E3
:1003C00085690078C00707D170BDD4E901212020DC
:1003D0009047206A401C20626D1EF6D570BD0968EA
:1003E0004A0501D540B27047C905FCD500B2704737
:1003F00009684A0501D5C0B27047C905FCD580B26D
:10040000704770B50C460546012A05D0287880064D
:1004100000D5EA69002302E0012305E05B1C93425A
:1004200002D2E05C0028F9D1A869E618C01AA861D8
:10043000286A184428622846FFF7AAFF04E0D5E995
:10044000012114F8010B9047B442F8D32846FFF776
:10045000B5FF70BD2DE9F0410646002410687529EE
:10046000314616A510D0FFF7BAFF002802DA404245
:1004700013A507E031688A0701D512A502E04907F4
:1004800004D511A5012401E0FFF7B2FF00210A22E3
:1004900006F1240709E0B0FBF2FCB0FBF2F302FB2B
:1004A0001C00303078541846491C0028F3D12346EC
:1004B0002A463046BDE8F04100F0BCBA000000001A
:1004C0002D0000002B0000002000000011680268D1
:1004D000006A530501D508700AE0D30501D50880EC
:1004E00006E0130603D5C217C1E9000200E0086068
:1004F000012070472DE9FF5F15468A460446DFF864
:10050000AC80F8440027D8E900103E46CDE9001041
:1005100010E03AF816106A4602A800F0C2FE411C2C
:1005200007D02178890603D5E269391891420DD8A0
:100530000744761C2078800602D5E069B84205DDC4
:10054000AE42E6DB3AF816000028E2D1A069C01BF3
:10055000A0612046FFF71CFFD8E90010CDE900108C
:10056000002017E03AF818106A4602A800F099FE39
:10057000B0F1FF3F81460BD000250DF1080B05E0DF
:10058000D4E901211BF8050090476D1C4D45F7D3B8
:1005900008F10100B0428046E4DB206A3844206262
:1005A0002046FFF70BFFBDE8FF9F00004A34000024
:1005B0002DE9F0418046D21D22F007020025D2E944
:1005C0000002F52915A614D0011E72F1000106DA09
:1005D0000023D0EB030063EB020211A608E0D8F879
:1005E00000108B0701D50FA602E0490701D50EA622
:1005F00001251146002408F1240704E000F0D5F994
:1006000030323A55641C50EA0102F7D12B4632468B
:1006100021464046BDE8F04100F00CBA0000000061
:100620002D0000002B0000002000000030B400214D
:1006300000F1240408E002F00705D208303542EA50
:100640004372DB086554491C52EA0305F3D1046880
:10065000002310A2250707D5A40600D421B1C46940
:1006600001230DA2641EC46130BC00F0E3B910B5D3
:10067000044621461068FFF7BBFE02462046BDE84F
:1006800010400023D2E7D21D22F00701D1E9002358
:10069000CCE700000000000030000000F0B40D4680
:1006A0000188090502D5214C7C4402E01F4C7C44A2
:1006B0000E34002100F1240608E002F00F071209B1
:1006C000E75D42EA03721B097754491C52EA0307AB
:1006D000F3D102780023120704D5702D06D009B19A
:1006E000022311342246F0BC00F0A4B901231034D7
:1006F000F8E770B504460D4621461068FFF778FE0E
:10070000024629462046BDE870400023C6E7D21DB8
:1007100022F00703D3E90023C0E70368126843F01F
:10072000200303600823C3610023B7E7AC32000055
:100730002DE9F05F894604464FF0000ADFF874B1F6
:10074000FB44C0F820A02046E1688847002874D008
:10075000252806D0D4E901219047206A401C206258
:10076000F1E700265F462046E168884720280546D5
:1007700007DB312D05D2781910F8200C08B106439B
:10078000F1E7B00701D526F00406C4F81CA0002745
:10079000C4F818A02A2D09D0284602F0E5FA38B38B
:1007A00004EB8708303DC8F8185019E059F8041BCD
:1007B000204604EB87029161E1688847012F0546D6
:1007C00018D1E069002820DA26F020061DE0D8F8CC
:1007D000180000EB800005EB40003038C8F8180026
:1007E0002046E1688847054602F0BEFA0028EED1AF
:1007F000012F0AD02E2D08D12046E16888477F1CA2
:100800000546022F46F02006C4DBA069002803DA63
:10081000404246F00106A061F00701D026F0100624
:100820006C2D0BD0682D09D04C2D39D06A2D35D0C8
:10083000742D35D07A2D33D016E038E0E1682F469C
:1008400020468847B842054609D16C2F26D04FF480
:100850008060E168064320468847054604E06C2F27
:100860001AD04FF4807006430DB3A5F1410019284A
:1008700002D8203546F400664A46294620462660BE
:100880004E46FFF78FFC80B101280BD0F61D26F0F5
:10089000070000F1080956E74020E4E78020D8E788
:1008A0000020D6E706F104094DE7284652E7206A02
:1008B000BDE8F09F3C320000004870472004002053
:1008C000704770477047704738B504460A460020A5
:1008D0006946AFF30080002808BF38BD0246009982
:1008E000204600F035FD012038BD012000F005BE96
:1008F000F8B5AFF30080054600200C46102000BF7D
:100900000646A819A0420DD9324669460020AFF329
:100910000080070008BF00F0F0FD0098A04218BF5B
:100920000546C419FFF7C8FF05600746F01D20F013
:1009300007004619284600F00AF8B44208BFF8BD7F
:10094000A21B31463868BDE8F84000F001BD002127
:100950000160C0E9011070471020704770B504466F
:10096000051FFFF7A9FF0068002C14BF446870BD85
:10097000002C18BFAC423CBF20466468F8D3016825
:100980000A18AA4218BF456003D12A6805461144D7
:10099000016028684119A1421CBF6C6070BD61688C
:1009A000696021680844286070BD30B5B0F10A0262
:1009B0004FEA900E71F100034EEA817EB0EB0E001B
:1009C00061EB91014FEA101E4EEA017E10EB0E0022
:1009D00041EB11114FEA102E4EEA016E10EB0E00A2
:1009E00041EB11214FEA104E4EEA014E10EB0E0082
:1009F00041EB1141401841F100014FEAD00040EABB
:100A000041704FEAD10110EB80054FEA810444EABE
:100A1000907444EB01046D1944EB0404521BA34190
:100A20004FF0000348BF0A3200D530BD401C41F1F1
:100A3000000130BD2DE9F0470D4699469246044627
:100A400000F124080168880604D5E06921F010014E
:100A5000216000E00120A84201DD471B00E00027E3
:100A6000A1697A1902EB0900081AA0612078C00672
:100A700002D42046FFF78CFC002608E0D4E90121CF
:100A80001AF806009047206A401C761C20624E45EA
:100A9000F4DB2078C0060AD52046FFF779FC06E093
:100AA000D4E9012130209047206A401C2062381E82
:100AB000A7F10107F4DC07E0D4E9012118F80500EB
:100AC0009047206A401C2062281EA5F10105F3DC36
:100AD0002046FFF773FC2078000602D50220BDE80F
:100AE000F0870120FBE770472DE9FF4F0C461E46BB
:100AF0004FF0FF378BB0D2E90001DDF860800A903B
:100B00008A46C1F30A5505B93D46002108464FF013
:100B10000000BAF1000F00F4400005DA00EB80009D
:100B20004FF4400101EA50004FEA9059B9F1010F2A
:100B300000DDB9460A9850EA4A000ED044F610503B
:100B4000A5F2FF3545432F14B8F1000F1ED07542B2
:100B5000291E1EDDC9F100021CE0B8F1010F4FF0A3
:100B6000000001D0302103E0F24305E02154401C95
:100B7000B042FBDB30460022002121540B99C1F822
:100B80000880C1E900200FB0BDE8F08FBD1B6D1CCF
:100B9000DEE74A4600DA694206A800F033FC06ABFD
:100BA00093E8070003AB83E8070050460A9900F07A
:100BB0003FFD8DE80700A0F500501F380090039816
:100BC000002D0ADD42F21F014A460844002303A912
:100BD0000390684600F0A8FF09E0A0F500504A46DF
:100BE0001F38002303A90390684600F0B2FF8DE888
:100BF00007000004000C03D04FF0FF30410800E074
:100C00001046B8F1000F03D00022009215461EE0F6
:100C1000751E05D4FFF7C9FE303262556D1EF9D539
:100C2000B3460122084302D000227F1C04E0207852
:100C3000302801D100227F1E002A099784D01DE0B0
:100C4000112D07DAFFF7B1FE303262556D1C50EA04
:100C50000102F5D1084302D00098C8B10EE000218E
:100C6000681E05E0235C625C63542254401E491CEC
:100C70008142F7DBAB46A81B401E0990002004F818
:100C80000B000B98099AC0F80880C0E9002B7AE79E
:100C900011264FF0000857E72DE9F04F884604462B
:100CA000D21D22F0070191B0D1E90001CDE90A017E
:100CB00002F046F802460B98C00F01D02D2007E045
:100CC0002068810701D52B2002E0202101EAC00025
:100CD000032A099001D0072A05DB03464146204636
:100CE00000F050FB0BE12078800601D5E06900E0C0
:100CF0000620B8F1650F814606D0B8F1660F18D00E
:100D0000B8F1670F70D131E00020B9F1110F0090F8
:100D100001DB112301E009F101030AAA01A90CA8D2
:100D2000FFF7E2FEDDE90C70002609F101058346BC
:100D300047E001204B4600904FF000470AAA01A966
:100D40000CA8FFF7D1FEDDE90DB00C995D46002639
:100D500010B909F101000D18B9EB050003D4C0F179
:100D6000FF3609F10105A5EB09002BE0B9F1010FF0
:100D700001DA4FF001090020B9F1110F0090484647
:100D800001DD112300E003460AAA01A90CA8FFF720
:100D9000ABFEDDE90C704D46002683462078000747
:100DA0000AD4AB4500DA5D4601A8012D04DD4119E6
:100DB00011F8011C302907D04F4502DA17F1040F52
:100DC00004DA012082460FE06D1EEEE7002F02DC00
:100DD000ED1B3E4403E0781CA84200DD7D1CB81BDF
:100DE00000F1010A4FF000472078000703D4AA451C
:100DF00001DB4FF0FF3A0021B7F1004F0DF143083E
:100E00008DF8431024D002202B23002F01DA7F42DB
:100E10002D230A21021EA0F1010000DC5FB197FB27
:100E2000F1FC97FBF1F201FB1C7C17460CF1300C36
:100E300008F801CDEEE7A8F101000370218809054B
:100E400001D5452100E06521A0F1010800F8011C51
:100E500009980FA9A1EB0807FF1D00B10120411956
:100E600001EBEA70A1693844081A401EA06120789D
:100E7000C00602D42046FFF78BFA099828B1D4E9BE
:100E800001219047206A401C20622078C00622D5AC
:100E90002046FFF77DFA1EE0002E04DBB34502DD9D
:100EA00001A8805D00E03020D4E901219047206A4C
:100EB000401C2062761CAAF101005FEA000A0AD1F8
:100EC00000F042FAC0680168405CD4E90121904713
:100ED000206A401C2062281EA5F10105DCDC07E029
:100EE000D4E9012118F8010B9047206A401C2062C8
:100EF000381EA7F10107F3DC2046FFF75FFA032055
:100F000011B041E62DE9F04F04460D46D21D22F006
:100F1000070089B0D0E900974846394601F010FF34
:100F20000246F80F01D02D2307E02068810701D584
:100F30002B2302E0202101EAC0038DF820300BB101
:100F4000012000E00020032A824601D0072A04DBAA
:100F50002946204600F016FA3FE12078800601D4A9
:100F60000D2500E0E569C7F30A560D2D49DA002189
:100F70004FEA175B08464FF00000002F00F44000D6
:100F800007DA00EB80004FF4400100EBD07001EA7B
:100F900060008115012901DD4FF0FF3100224FEA89
:100FA000850CBCF1180F06D31346ACF118004FF0B6
:100FB0008052C24003E04FF4801323FA0CF30CF18B
:100FC0000C0CBCF1200F04D3ACF1200C09FA0CF08E
:100FD00001E007FA0CF000294FF0004801DD18B9D4
:100FE0000FE00ED140450CD319EB02095F4121B946
:100FF000404502D19F4329EA0209BBEB175F00D0AD
:10100000761C2088000502D57B48784402E07A48A7
:101010007844193808AA302302F80A30037C0AF110
:101020000101002E0AF1020A53546A4602DC4FF015
:10103000300101E04FF031014FF001088DF8001050
:1010400002D0A6F2FF3603E059EA470100D06B4E0A
:10105000002D02DC2178090704D54FF002082E216B
:101060008DF80110C44600210BE0C7F303433F0194
:10107000C35C491C6D1E02F80830052908F10108FF
:1010800001DA002DF1DC00210CE000EB1973491CA2
:101090001B786D1E082902F808304FEA091908F17B
:1010A000010801DA002DF0DC21688B0602D516E07C
:1010B000A8F10108E04505DD02EB080313F8013C47
:1010C000302BF5D0B8F1000F09DD02EB080313F85F
:1010D000013C2E2B03D1090701D4A8F10108002DF2
:1010E00005DD3E2102F808106D1E08F10108407C64
:1010F000002E02F8080008F1010804DA2D207642DB
:1011000002F8080002E02B2002F808000A214FF440
:101110007A70864208F101080BDB96FBF0F330335E
:1011200002F8083096FBF0F308F1010800FB1366A3
:1011300001E0642E0CDB642096FBF0F3303302F800
:10114000083096FBF0F308F1010800FB136601E09C
:101150000A2E06DB96FBF1F0303002F8080008F1A9
:10116000010896FBF1F001FB1060303002F8080036
:10117000A16908F1010808EB050202EB0A00081A50
:10118000A0612078C00602D42046FFF701F9216A49
:1011900008AE01EB0A00206204E0D4E9012116F850
:1011A000010B9047BAF1010AF7D22078C00602D5A8
:1011B0002046FFF7EDF86E4609E016F8010B3E28D1
:1011C0000FD0D4E901219047206A401C2062B8F179
:1011D0000108F2D22046FFF7F1F809B00320BDE87C
:1011E000F08F206A2844206203E0D4E901213020F6
:1011F00090476D1EEBD3F8E79629000002FCFFFF35
:1012000001694A1C02610878704700B58FB0CDE9CA
:1012100001310021059105497944CDE903101146BA
:101220006846FFF785FA0FB000BD0000E5FFFFFF3D
:101230000A6802F8010B0A607047D1E900239A425C
:1012400002D2531C0B601070704710B5436913B184
:10125000AFF3008001E0FFF7D4F8012010BD127851
:1012600000F124010A7000224A700122EDE71168A2
:101270004FF0FF32E9E710B5436913B1AFF30080D7
:1012800001E0FFF737F9012010BD128800F12401B9
:1012900082840022C2840122EDE711684FF0FF3200
:1012A000E9E770B516460C46054600F045F80368B8
:1012B00093F80101012806D0FF2C0FD8185D68B102
:1012C00001202C7070BDD3F807013246214603F28D
:1012D000071303442846BDE8704018474FF0FF301D
:1012E00070BD000000487047180400207546FFF7E5
:1012F000F9FFAE4605006946534620F007008546D3
:1013000018B020B5FEF7CAFFBDE820404FF0000638
:101310004FF000074FF000084FF0000B21F00701DD
:10132000AC46ACE8C009ACE8C009ACE8C009ACE820
:10133000C0098D467047000010B500F005F8001D8B
:1013400010BD00BF751B0000004870473804002026
:10135000034640688C46002818BF88423CBF0346BD
:101360004068F8D318681844884207D00CF103008D
:1013700020F00700001D411A521A0146081D0A609C
:10138000FFF7ECBA2DE9F0411F4604460326016839
:10139000072A01F4006004DB08B116A505E016A5D4
:1013A00003E008B115A500E015A521F010002060AC
:1013B000A069C01EA0610FB1401EA0612046FEF7CB
:1013C000E7FF4FB1D4E9012138469047206A401C1D
:1013D0002062C01C206206E0206AFAE7D4E90121FD
:1013E00015F8010B9047761EF8D22046FEF7E6FF6F
:1013F000BDE8F0814E414E006E616E00494E4600E0
:10140000696E66002DE9F047814616468AB0354878
:1014100078440DC88DE80D0032487844801C03AC38
:101420000DC884E80D0041F69B300844372190FB3D
:10143000F1F290FBF1F5A5F1800501FB12041B3CD4
:1014400002D56442012000E00020DFF898A0804629
:101450000027FA44AAF1BE0A0EE0E0070AD032469D
:10146000684607EB470101230AEB810100F071FB9D
:101470008DE8070064107F1C002CEED1194F7F44CB
:10148000AE3F19E0E80715D007EB04100DF1180A7C
:1014900090E80E008AE80E00C068F04201D1981969
:1014A00008903246012306A903A800F052FB03ABC3
:1014B00083E807006D10641C002DE3D14FF0010399
:1014C00032466946B8F1000F03A802D000F02CFBA9
:1014D00001E000F03EFBC9E90001C9F808200AB0AC
:1014E000BDE8F0872026000010B50446AFF3008069
:1014F0002046BDE81040FEF7BCBE10B500F00AF86B
:10150000BDE8104000F001B87047002801D000F09D
:1015100069B8704710B5012805D0002103A000F07C
:1015200067F8012010BD09A1F8E7000053494752B0
:10153000544D454D3A204F7574206F6620686561A3
:1015400070206D656D6F7279000000003A2048656B
:101550006170206D656D6F727920636F7272757046
:10156000746564004FF0013C50F8042B51F8043BC3
:101570009A4221D1A2EB0C03934313EACC1317D167
:1015800050F8042B51F8043B9A4215D1A2EB0C03FE
:10159000934313EACC130BD150F8042B51F8043BBE
:1015A0009A4209D1A2EB0C03934313EACC13DBD08C
:1015B0004FF00000704700BFD01A01BAB1FA81F1B4
:1015C00001F0180122FA01F0CB40C1F12001DBB299
:1015D000C0B2C01A2CFA01F3D11A914311EAC31117
:1015E000E6D1704701491820ABBEFEE72600020095
:1015F00070B505460C460A2000E06D1C00F011F89D
:1016000035B128780028F8D102E0641C00F009F810
:1016100014B120780028F8D1BDE870400A20AFF35B
:10162000008008B569468DF800000320ABBE08BDF8
:101630005FEA400C08BF91F0000F4FEA8C234FEA9D
:10164000C12243EA51514FEA1C5018BF00F5F04047
:101650004FEA300018BF41F000415FEA6C5C00F0D7
:101660002980BCF1FF3F08BF40F080407047130C59
:1016700006BF12044FF0100C4FF0000C130E04BF05
:1016800012020CF1080C130F04BF12010CF1040C30
:10169000930F04BF92000CF1020CD30F04BF520051
:1016A0000CF1010C11464FF00002A0F11F00A0EB5D
:1016B0000C00704711F0004F08BF704731F0004137
:1016C0003FF4D5AF0B0C06BF09044FF0100C4FF0E0
:1016D000000C0B0E04BF09020CF1080C0B0F04BF29
:1016E00009010CF1040C8B0F04BF89000CF1020CF2
:1016F000CB0F04BF49000CF1010CCCF12003A0EB8F
:101700000C0022FA03F302FA0CF241EA030100F1A1
:101710000100704720F07F4C80EA030023F07F47F0
:10172000ACEB070303F57C5300F0004003F1FF032B
:101730002DE980494FEA154B09B44FEA144325EAD5
:101740000B4E24EA03480FF2042606EB1327490840
:101750003E785FEA320203FB0667C7F5000707FB26
:1017600006F64FEA54374FEAD64606F1020607FB63
:10177000066CCCF1005C4FEA1C472CEA074C07FBD7
:1017800006F40CFB06F504EB15464FEA961634BF3B
:1017900000204FF000404FEAD13706FB07FC4FEA2C
:1017A0001C4C0CFB0BF7D21B03FB0CF761EB070186
:1017B0000CFB0EF7B0EB074072EB17420CFB08F77F
:1017C00034BFA2EB0742B2EB074261EB17414FEA8D
:1017D0000C444FEA910706FB07FC4FEA1C4C0CFB3C
:1017E0000BF7B0EBC74072EB573203FB0CF734BF7B
:1017F000A2EBC742B2EBC74261EB57310CFB0EF7CD
:10180000B0EBC70072EB57720CFB08F734BFA2EBCA
:10181000C702B2EBC70261EB5771039F4FEA8161C8
:1018200041EA921104EBCC044FEAD1374FEA8262CD
:1018300006FB07FC42EA90124FEA80604FEA1C4C1C
:101840000CFB0BF7D21B03FB0CF761EB07010CFB46
:101850000EF7B0EB074072EB17420CFB08F734BFF2
:10186000A2EB0742B2EB074261EB17414FEA8C55FE
:101870004FEA910704EB9C2406FB07FC4FEA1C4C43
:101880000CFB0BF7B0EBC74072EB573203FB0CF7C6
:1018900034BFA2EBC742B2EBC74261EB57310CFB3E
:1018A0000EF7B0EBC70072EB57720CFB08F734BFB2
:1018B000A2EBC702B2EBC70261EB577115EB4C25E7
:1018C0004FEA816141EA92114FEA82624FEAD137D1
:1018D00042EA901206FB07FC44F100044FEA8060E4
:1018E0004FEA1C4C0CFB0BF7D21B03FB0CF761EB14
:1018F00007010CFB0EF7B0EB074072EB17420CFB35
:1019000008F734BFA2EB0742B2EB074261EB174185
:1019100015EB1C154FEA813141EA92414FEA8232C0
:1019200042EA90424FEA80304FEA0C7644F10004DC
:1019300048EA03434EEA0B484FF0000EB2EB080CA6
:1019400071EB030724BF624639464EEB0E0E4FF093
:10195000000B0018524149414BEB0B0BB2EB080C4A
:1019600071EB03077BF1000B24BF624639464EEB57
:101970000E0E4FF0000B0018524149414BEB0B0B80
:10198000B2EB080C71EB03077BF1000B24BF62463E
:1019900039464EEB0E0E51EA020718BF46F001061B
:1019A00016EB0E7655F1000254F1000103D5BDE8A7
:1019B0008901BDE80088BDE88901BDE80048B61985
:1019C000524141EB0101A3F10103704780807F7E0A
:1019D0007D7C7B7A797877767675747372717170A5
:1019E0006F6E6E6D6C6C6B6A6A6968686766666557
:1019F0006464636362616160605F5F5E5E5D5D5CE5
:101A00005C5B5B5A5A595958585757565655555555
:101A10005454535352525251515050504F4F4F4EB5
:101A20004E4D4D4D4C4C4C4B4B4B4A4A4A49494903
:101A30004848484747474746464645454544444445
:101A4000444343434342424242414141002B9C466E
:101A500030D477002BD01CB54FEA370703B44FF0D2
:101A600010004FF01001BAF1000F06D0BCF1000FCA
:101A7000DCBF40F0080040F008014FF000000FBC50
:101A8000BDE810400BF1010BBBF1010F08BF5FEA8D
:101A9000170722BF12F1010211F101014FF00041BD
:101AA00043F1000300F0004043EA00007047F9D31F
:101AB0005708D0E746EA064613F1400F4FEA1646AC
:101AC0001FDD13F1200FDFBF16430A46002120332C
:101AD0005B42BED0C3F1200746EA064602FA07F78A
:101AE0004FEA164646EA0706C3F1200722FA03F238
:101AF00001FA07F721FA03F14FF0000342EA070267
:101B0000A7E746EA020646EA06464FEA164646EACE
:101B10000106BCBF46EA0646360C4FF000034FF004
:101B200000024FF0000194E72DE9804C9A4693465D
:101B300070B491E8380007C831EA400C48BF34EA75
:101B4000430C03D5FFF7E6FDFFF780FFF0BCBDE8CF
:101B5000008C2DE9804C9A46934670B491E8380089
:101B600007C810F0804F08BF13F0804F03D100F07A
:101B700005F8FFF76BFFF0BCBDE8008C20F07F4755
:101B800080EA030023F07F4C07EB0C03A3F57C53A2
:101B900000F00040A3F1FE0392F0000F00F0B380CC
:101BA00095F0000F00F077802DE901494FEA1140D0
:101BB0004FEA144621EA004800FB06FC24EA0647E7
:101BC00008FB06F607FB08F800FB07F718EB0648CA
:101BD0004CEB164C4FEA124B18EB07484FEA1546F0
:101BE0004CEB174022EA0B4E0BFB06FC25EA06479E
:101BF0000EFB06F607FB0EFE0BFB07F71EEB064E71
:101C00004CEB164C4FF000061EEB074E4CEB174BFF
:101C100018EB0B0840F1000018EB0E0B58EB000816
:101C200040F100008F1A4FF000013CBFC943661B12
:101C300014BFB5EB040C00213CBFC943F61B4FEAAF
:101C400017444EEA8E0E27EA04454FEA1C4704FB70
:101C500007622CEA074C05FB07F70CFB05F604FBB3
:101C60000CFC16EB074642EB174216EB0C4642EB18
:101C70001C421BEB060658EB0202414146EA9E0657
:101C800001D5BDE80189B619524141EB0101A3F12B
:101C90000103BDE801894FEA14454FEA114724EAE0
:101CA000054621EA074C05FB07F406FB07F70CFB8A
:101CB00006F105FB0CFC11EB074144EB17444FEA1E
:101CC000124711EB0C4144EB1C4422EA074C05FB84
:101CD00007F206FB07F70CFB06F605FB0CFC16EB00
:101CE000074642EB174216EB0C4642EB1C456A18BE
:101CF00054F1000148BF7047B619524141EB010150
:101D0000A3F10103704795F0000F37D04FEA11425D
:101D10004FEA144721EA024624EA074C02FB07F186
:101D200006FB07F70CFB06F402FB0CFC14EB074464
:101D300041EB17414FEA154714EB0C4441EB1C41B2
:101D400025EA074C02FB07F506FB07F70CFB06F636
:101D500002FB0CFC16EB074645EB174516EB0C4651
:101D600045EB1C42121951F1000148BF7047B619EA
:101D7000524141EB0101A3F1010370474FEA1445C1
:101D80004FEA114724EA054621EA074C05FB07F113
:101D900006FB07F70CFB06F24FF0000605FB0CFCF8
:101DA00012EB074241EB174112EB0C4251EB1C4185
:101DB00048BF7047921841EB0101A3F1010370473E
:101DC000014908607047000000860D4200BFFEE731
:101DD00070472DE9F041024600250026002000232F
:101DE0000024002791F803C00CF00F0591F803C000
:101DF0000CF0100CBCF1000F03D091F802C04CEABB
:101E0000050591F800C0BCF1000F31D01468002026
:101E10002BE04FF0010C0CFA00F3B1F800C00CEA13
:101E200003069E4220D183004FF00F0C0CFA03F7FB
:101E3000BC4305FA03FC4CEA040491F803C0BCF16E
:101E4000280F06D14FF0010C0CFA00FCC2F814C0A8
:101E50000AE091F803C0BCF1480F05D14FF0010C26
:101E60000CFA00FCC2F810C0401C0828D1D3146042
:101E7000B1F800C0BCF1FF0F34DD546800202EE043
:101E800000F1080C4FF0010808FA0CF3B1F800C09B
:101E90000CEA03069E4221D183004FF00F0C0CFA8E
:101EA00003F7BC4305FA03FC4CEA040491F803C0B1
:101EB000BCF1280F05D100F1080C08FA0CF8C2F8A3
:101EC000148091F803C0BCF1480F07D100F1080C51
:101ED0004FF0010808FA0CF8C2F81080401C0828DE
:101EE000CED35460BDE8F08100BFFEE721B1028887
:101EF00042F40072028004E002884FF6FF531A4059
:101F00000280704710B500200F4908600F48006834
:101F100020F470400D4908600846006840F44050C5
:101F2000086000200A49C1F8AC01022000F06CFFF3
:101F3000012005490860022000F066FF00200449E6
:101F4000C1F8A80110BD0000A8812142040C014085
:101F50000080214208B50121082000F045FB4FF424
:101F60004060ADF8000010208DF8030002208DF8CD
:101F7000020069460448FFF72CFF0120034908606E
:101F80000349C1F8AC0108BD000C0140A881214201
:101F90000080214210B500200F4908600F480068FA
:101FA00020F470400D4908600846006840F4405035
:101FB000086001200A49C1F8AC01022000F024FFAA
:101FC000012005490860022000F01EFF002004499E
:101FD000C1F8A80110BD0000A8812142040C0140F5
:101FE0000080214270B5054600241748006820F49F
:101FF0007040154908600846006840F400400860D9
:10200000002616E0002011490860022000F0FCFEC6
:1020100001200F49C1F8A8016006040E0B487C3866
:10202000006808B1601CC4B2012000F0EDFE701C15
:10203000C6B2082EE6DB15B9FFF7ACFF01E0FFF7EB
:1020400061FF204670BD0000040C0140A8812142C0
:102050000080214270B504461548006820F47040A5
:10206000134908600846006840F4405008600020AA
:1020700010490860002517E0E0090E49091D0860B5
:102080006006040E022000F0BFFE01200A49C1F8DC
:10209000A801022000F0B8FE0020064908600220D6
:1020A00000F0B2FE681CC5B2082DE5DB70BD000073
:1020B000040C0140A88121420080214210B50F4844
:1020C000006820F470400D4908600846006840F43C
:1020D0004050086001200A4908600A49C1F8A80177
:1020E000042000F091FE002005490860042000F063
:1020F0008BFE00200349C1F8A80110BD040C01406B
:10210000AC8121420080214210B50F48006820F4C4
:1021100070400D4908600846006840F4405008606F
:1021200000200A4908600A49C1F8AC01042000F007
:102130006BFE012005490860042000F065FE0120C7
:102140000349C1F8AC0110BD040C0140A881214233
:102150000080214210B500241448006820F470402B
:10216000124908600846006840F4004008600120F9
:102170000F49086000F048FE01200E49C1F8A8018F
:1021800000F042FE07E0601CC4B2FA2C03DDFFF74A
:10219000BBFF012010BD0648803800680028F2D13E
:1021A0000349091F086000BFF4E70000040C014068
:1021B000AC8121420080214208B50121082000F0B5
:1021C00013FA4FF48040ADF8000048208DF803006A
:1021D00069460248FFF7FDFD08BD0000000C014004
:1021E00000BFFEE77047000030B500240CE000257A
:1021F00006E00020074901EBC5010855681CC5B27F
:10220000802DF6DB601CC4B2082CF0DB00F0D2F8A5
:1022100030BD000018000020F0B5144600267F28CD
:1022200001DC3F2900DDF0BD0B46CF1701EB5777EE
:10223000FF10C7F10707FAB2CF1701EB5777FF106E
:10224000A1EBC707FDB2C5F107070123BB40DEB212
:102250004CB10A4B03EBC0039B5C3343074F07EBC6
:10226000C007BB5408E0054B03EBC0039B5CB343C2
:10227000024F07EBC007BB5400BFD4E71800002093
:1022800008B50121102000F0AFF90121084600F047
:10229000ABF94EF20100ADF8000010208DF80300FC
:1022A00002208DF8020069463F48FFF792FD0120A9
:1022B00000F092F9002000F0A7F90020FFF780FD60
:1022C000002000F089F9002038490860642000F0FF
:1022D00075FD01203649C1F8BC010021AE2000F097
:1022E0004FF90021D52000F04BF90021502000F0DB
:1022F00047F90021A82000F043F900213F2000F019
:102300003FF90021D32000F03BF90021084600F0FE
:1023100037F90021402000F033F900218D2000F032
:102320002FF90021142000F02BF90021202000F0CB
:1023300027F90021022000F023F90021A12000F05C
:102340001FF90021C02000F01BF90021DA2000F065
:1023500017F90021122000F013F90021812000F06C
:102360000FF90021EF2000F00BF90021D92000F037
:1023700007F90021F12000F003F90021DB2000F033
:10238000FFF80021302000F0FBF80021A42000F02D
:10239000F7F80021A62000F0F3F80021AF2000F0AC
:1023A000EFF8FFF721FF08BD00100140BC012242F9
:1023B0000000224230B500241CE004F1B001C8B294
:1023C000002100F0DDF80021084600F0D9F80021D6
:1023D000102000F0D5F8002508E0084901EBC50100
:1023E000085D012100F0CCF8681CC5B2802DF4DB3B
:1023F000601CC4B2082CE0DB30BD000018000020D7
:102400002DE9F04F80460C4615461E46A346A5F121
:102410002000C5B200273EE00C2E07D105EB450099
:102420001F4901EB800010F8079004E01D4800EB05
:10243000051010F807904FF0000A26E009F0800020
:1024400028B121464046099AFFF7E6FE09E00998BF
:1024500008B9012000E00020024621464046FFF76F
:10246000DBFE4FEA49604FEA1069601CC4B2A4EB7E
:102470000B00B04205D15C4608F1010000F0FF08F6
:1024800006E00AF1010000F0FF0ABAF1080FD5DBFF
:1024900000BF781CC7B2B742BEDBBDE8F08F0000BA
:1024A000EC2E0008603300082DE9FF4F81B007468D
:1024B00091461E460E9D4FF0000A002439E0301B65
:1024C000401EC1B20A2000F0D6FCB9FBF0F00A2190
:1024D000B0FBF1F201FB1208BAF1000F16D1701E29
:1024E000A04213DDB8F1000F0ED10120AB4605EB81
:1024F000DB71491001FB04710090C8B22B46202209
:102500000299FFF77DFF12E04FF0010A0120AB4670
:1025100005EBDB71491001FB04710090C8B208F1B2
:102520003001CAB22B460299FFF76AFF00BF601C58
:10253000C4B2B442C3DB05B0BDE8F08F78B5054640
:102540000E46144618E07A2D03DD002506F1100032
:10255000C6B23A2E04DD002005460646FFF744FECB
:102560000120009022780C2331462846FFF748FFCF
:1025700005F10800C5B2641C20780028E3D178BDBD
:1025800010B50A461AB10123124C236002E0002361
:10259000104C2360002116E000230E4C34342360DD
:1025A00000F080031BB10123241D236003E00023FE
:1025B000084C383423600123064C3434236043062E
:1025C000180E4B1CD9B20829E6DB0123014C23600D
:1025D00010BD0000800122420149086270470000DE
:1025E00000000E427047000029B1064A926902437A
:1025F000044B9A6104E0034A92698243014B9A6159
:10260000704700000010024000210B4A11700A4A76
:10261000203A82F82010012802D0042808D103E0D3
:102620000121054A117004E00521034A117000E000
:1026300000BF00BF7047000020100240704710B577
:1026400000F002F810BD00000CB5002001900090D1
:102650003348006840F480303149086000BF30489A
:10266000006800F4003000900198401C0190009830
:1026700018B90198B0F5A06FF1D12948006800F4AD
:10268000003010B10120009001E00020009000987F
:10269000012843D12348006840F010002149086018
:1026A0000846006820F0030008600846006840F013
:1026B000020008601A4840681949486008464068A6
:1026C00048600846406840F48060486008464068BA
:1026D00020F47C1048600846406840F4E8104860E8
:1026E0000846006840F08070086000BF0C48006831
:1026F00000F000700028F9D00948406820F003007D
:10270000074948600846406840F00200486000BF42
:102710000348406800F00C000828F9D10CBD000007
:102720000010024000200240042808D14FF0E021B0
:10273000096941F004014FF0E022116107E04FF018
:10274000E021096921F004014FF0E0221161704796
:102750007047000010B51348006840F001001149AF
:10276000086008464068104908400E49486008461D
:1027700000680E4908400B4908600846006820F4CC
:10278000802008600846406820F4FE0048604FF44E
:102790001F008860FFF753FF4FF000600449086096
:1027A00010BD0000001002400000FFF8FFFFF6FE21
:1027B00008ED00E000BFFEE7044601210A48FFF7EC
:1027C00095FBFFF711FD6CB1FFF70EFD07A2052188
:1027D0000020FFF7B3FE224614210520FFF7AEFECE
:1027E000FFF7E8FD00BFFEE700580040496D752087
:1027F0004572726F723A000038B5044680A200211B
:102800000846FFF79BFEB4F91000002802DBB4F97C
:10281000100002E0B4F91000404200EB80004001DB
:1028200047F6FF7190FBF1F50C2005232A460021A5
:1028300000900F20FFF738FE73A20A210020FFF757
:102840007DFEB4F91200002802DBB4F9120002E0A8
:10285000B4F91200404200EB8000400147F6FF71DE
:1028600090FBF1F50C2005232A460A2100900F2049
:10287000FFF71AFE66A214210020FFF75FFEB4F9ED
:102880001400002802DBB4F9140002E0B4F91400CB
:10289000404200EB8000400147F6FF7190FBF1F5EC
:1028A0000C2005232A46142100900F20FFF7FCFD81
:1028B00059A21E210020FFF741FEB4F9160000289E
:1028C00002DBB4F9160002E0B4F916004042C82158
:1028D000484347F6FF7190FBF1F50C2005232A468B
:1028E0001E2100900F20FFF7DFFD4DA228210020C0
:1028F000FFF724FEB4F91800002802DBB4F9180031
:1029000002E0B4F918004042C821484347F6FF717D
:1029100090FBF1F50C2005232A46282100900F207A
:10292000FFF7C2FD40A232210020FFF707FEB4F9F5
:102930001A00002802DBB4F91A0002E0B4F91A0008
:102940004042C821484347F6FF7190FBF1F50C2047
:1029500005232A46322100900F20FFF7A5FD34A25F
:1029600000215020FFF7EAFDB4F91C00002802DB2B
:10297000B4F91C0002E0B4F91C004042142190FBA1
:10298000F1F50C2005232A46002100905F20FFF777
:102990008BFD29A20A215020FFF7D0FDB4F91E00BB
:1029A000002802DBB4F91E0002E0B4F91E00404228
:1029B000142190FBF1F50C2005232A460A210090F2
:1029C0005F20FFF771FD1EA214215020FFF7B6FD16
:1029D000B4F92000002802DBB4F9200002E0B4F9C9
:1029E00020004042142190FBF1F50C2005232A46DB
:1029F00000905F20FFF758FDFFF7DCFC38BD0000BA
:102A00004163583A000000004163593A0000000059
:102A100041635A3A000000004779583A000000002C
:102A20004779593A0000000047795A3A00000000FF
:102A30004D61583A000000004D61593A0000000015
:102A40004D615A3A000000001CB5044602233722AB
:102A5000D021204600F0BDF80A2000F0AFF9012394
:102A60000A221821204600F0B4F80A2000F0A6F946
:102A700003221821204600F03EF88DF800000422C1
:102A80001821204600F037F88DF801009DF800006D
:102A90009DF8011040EA012000B2A0830522182110
:102AA000204600F028F88DF8020006221821204662
:102AB00000F021F88DF803009DF802009DF8031046
:102AC00040EA012001B2E18307221821204600F0EC
:102AD00012F88DF8040008221821204600F00BF8A7
:102AE0008DF805009DF804009DF8051040EA0120CE
:102AF00001B221841CBD2DE9F04180460C461546EB
:102B00000126FFF7DBFA2046FFF7A4FAFFF722FBC6
:102B100007462846FFF79EFAFFF71CFB0746FFF71C
:102B2000CDFA611CC8B2FFF795FAFFF713FB074611
:102B30000020FFF757FA0746FFF7E6FA16B9FF201D
:102B4000BDE8F0813846FBE71CB504464422D0219D
:102B50002046FFF7D0FF8DF800004322D021204609
:102B6000FFF7C9FF8DF801009DF800009DF80110E6
:102B700040EA012000B2E0824622D0212046FFF741
:102B8000BAFF8DF802004522D0212046FFF7B3FF9F
:102B90008DF803009DF802009DF8031040EA012023
:102BA00001B221834822D0212046FFF7A4FF8DF8EF
:102BB00004004722D0212046FFF79DFF8DF8050035
:102BC0009DF804009DF8051040EA012001B26183E0
:102BD0001CBD2DE9F04180460C4615461E460127D6
:102BE000FFF76CFA2046FFF735FAFFF7B3FA2846ED
:102BF000FFF730FAFFF7AEFA3046FFF72BFAFFF790
:102C0000A9FAFFF781FA3846BDE8F0811CB5044601
:102C10003C22D0212046FFF76EFF8DF800003B22BA
:102C2000D0212046FFF767FF8DF801009DF80000D6
:102C30009DF8011040EA012000B220823E22D021FE
:102C40002046FFF758FF8DF802003D22D021204694
:102C5000FFF751FF8DF803009DF802009DF8031067
:102C600040EA012001B261824022D0212046FFF7D4
:102C700042FF8DF804003F22D0212046FFF73BFFA2
:102C80008DF805009DF804009DF8051040EA01202C
:102C900001B2A1821CBD10B504462046FFF7B6FF65
:102CA0002046FFF751FF2046FFF7CEFE10BD000083
:102CB00038B504460D46258000F05EF8FFF77CFA33
:102CC000FFF7DEFAFFF746F97522D0212046FFF71D
:102CD00012FF71281ED100236B22D0212046FFF75E
:102CE00078FF07231922D0212046FFF772FF062321
:102CF0001A22D0212046FFF76CFF18231B22D02177
:102D00002046FFF766FF18231C22D0212046FFF73C
:102D100060FF08E00020009004A16846FDF7D0FAAB
:102D20000098FFF749FD204638BD0000494D552069
:102D3000496E6974204661696C6564210000000079
:102D4000490050EAC12018BF04204A0D18BF40F0C6
:102D5000010040F2FF72B2EB515F08BF40F0020089
:102D6000012808BF0520704730380A2801D2012009
:102D7000704700207047000010B56FF00400FFF7A7
:102D8000D3FC0A4800680A49B0FBF1F00949087011
:102D90000846007800EB4001C1EBC0104FF6FF7110
:102DA00001EAC0000449088010BD000000000020B6
:102DB00000127A0014000020160000200146114A7B
:102DC00012884A434FF0E0235A6100229A611A4662
:102DD000126942F001021A6100BF4FF0E02210694F
:102DE00000F001021AB100F48032002AF5D04FF051
:102DF000E022126922F001024FF0E0231A61002262
:102E00009A617047160000200146114A12784A4321
:102E10004FF0E0235A6100229A611A46126942F08B
:102E200001021A6100BF4FF0E022106900F00102B8
:102E30001AB100F48032002AF5D04FF0E022126976
:102E400022F001024FF0E0231A6100229A617047DC
:102E5000140000208AB04FF4FA7101A8FFF728FF90
:102E600008E001A8FFF717FF1420FFF7A7FF01A84C
:102E7000FFF7C2FCF5E710B50246012000E0504321
:102E80000B1EA1F10104E1B2F9D110BD10B500296A
:102E90000AD00878002807D005487844FEF762FB7E
:102EA000002801D0002010BD0248784410BD000069
:102EB000D20B0000CA0B000010B500290AD0087818
:102EC000002807D005487844FEF74CFB002801D0C5
:102ED000002010BD0248784410BD0000C20B000065
:102EE000BA0B0000FDF7D8BEFEF70CB800000000DA
:102EF0000000000000000000000000003F40000053
:102F000000000000000030004000300040000000E1
:102F100009000BC03D000BC03D00090018C0244053
:102F20007FE0224031800000180024C01B000D808B
:102F30003240018003801C4027401C800740004035
:102F40001000600000000000000000000000000011
:102F500000001F80204040200000402020401F80B3
:102F600000000000090006001F80060009000000A4
:102F7000040004003F800400040000000010006012
:102F80000000000000000000040004000400040031
:102F900004000000000000400000000000000000ED
:102FA000002001C006003800400000001F802040C3
:102FB000204020401F800000000010403FC0004023
:102FC0000000000018C021402240244018400000AA
:102FD00010802040244024401B80000002000D008F
:102FE00011003FC0014000003C80244024402440A8
:102FF000238000001F8024402440344003800000D0
:103000003000200027C03800200000001B80244032
:10301000244024401B8000001C0022C0224022408B
:103020001F800000000000000840000000000000B9
:103030000000000004600000000000000000040028
:103040000A00110020804040090009000900090021
:103050000900000000004040208011000A00040028
:103060001800200023402400180000001F8020408A
:10307000274029401F400000004007C039000F00D2
:1030800001C0004020403FC0244024401B8000007D
:103090001F802040204020403080000020403FC062
:1030A000204020401F80000020403FC024402E4090
:1030B00030C0000020403FC024402E0030000000FF
:1030C0000F001080204022403380020020403FC08B
:1030D000040004003FC02040204020403FC020406A
:1030E000204000000060202020203FC02000200061
:1030F00020403FC024400B0030C0204020403FC053
:1031000020400040004000C03FC03C0003C03C00E5
:103110003FC0000020403FC00C4023003FC02000C3
:103120001F802040204020401F80000020403FC0E2
:1031300024402400180000001F802140214020E08E
:103140001FA0000020403FC02440260019C00040BE
:1031500018C024402440224031800000300020402C
:103160003FC020403000000020003F800040004071
:103170003F80200020003E0001C0070038002000F2
:10318000380007C03C0007C038000000204039C0AC
:10319000060039C0204000002000384007C03840F9
:1031A00020000000304021C02640384020C00000F0
:1031B000000000007FE04020402000000000700080
:1031C0000C000380004000000000402040207FE011
:1031D000000000000000200040002000000000006F
:1031E000001000100010001000100010000000007F
:1031F0004000000000000000000002800540054083
:1032000003C0004020003FC0044004400380000091
:1032100000000380044004400640000000000380DA
:10322000044024403FC000400000038005400540AA
:1032300003400000000004401FC024402440200040
:10324000000002E0055005500650042020403FC019
:103250000440040003C000400000044027C00040B8
:103260000000000000100010041027E00000000023
:1032700020403FC00140070004C0044020402040DF
:103280003FC000400040000007C0040007C0040029
:1032900003C00000044007C00440040003C0004015
:1032A000000003800440044003800000041007F085
:1032B00004500440038000000000038004400450D8
:1032C00007F00010044007C00240040004000000A2
:1032D000000006400540054004C000000000040056
:1032E0001F800440004000000400078000400440AC
:1032F00007C000400400070004C00180060004006D
:10330000060001C0070001C006000000044006C01E
:10331000010006C0044000000410071004E0018012
:10332000060004000000044005C006400440000000
:103330000000000004007BE04020000000000000CE
:103340000000FFF000000000000040207BE00400CF
:1033500000000000400080004000200020004000ED
:10336000000000000000000000000000000000005D
:103370000000000000001FCC000C00000000000056
:10338000000008003000600008003000600000000D
:10339000022003FC1E20022003FC1E20022000004D
:1033A00000000E1811043FFF10840C78000000008C
:1033B0000F0010840F3800C00778188400780000D0
:1033C00000780F8410C411240E9800E400840008D3
:1033D000080068007000000000000000000000000D
:1033E00000000000000007E0181820044002000060
:1033F000000040022004181807E000000000000050
:103400000240024001800FF00180024002400000B3
:103410000080008000800FF80080008000800000A5
:103420000001000D000E0000000000000000000080
:10343000000000800080008000800080008000800C
:103440000000000C000C0000000000000000000064
:10345000000000060018006001800600180020002F
:10346000000007F0080810041004080807F0000026
:103470000000080408041FFC000400040000000011
:1034800000000E0C10141024104411840E0C0000C7
:1034900000000C1810041104110412880C700000B4
:1034A000000000E00320042408241FFC0024000086
:1034B00000001F981084110411041088107000007F
:1034C000000007F00888110411041888007000003B
:1034D00000001C00100010FC13001C001000000075
:1034E00000000E3811441084108411440E3800007E
:1034F00000000700088C10441044088807F0000002
:10350000000000000000030C030C0000000000009D
:1035100000000000000101060000000000000000A3
:103520000000008001400220041008081004000080
:10353000022002200220022002200220022000009D
:103540000000100408080410022001400080000060
:1035500000000E001200100C106C10800F00000014
:1035600003E00C1813E4142417C4082807D0000043
:103570000004003C03C41C40074000E4001C00049D
:1035800010041FFC1104110411040E8800700000C7
:1035900003E00C1810041004100410081C100000A4
:1035A00010041FFC100410041004080807F00000A9
:1035B00010041FFC1104110417C4100408180000A3
:1035C00010041FFC1104110017C0100008000000B7
:1035D00003E00C181004100410441C780040000094
:1035E00010041FFC10840080008010841FFC100455
:1035F0000000100410041FFC100410040000000060
:1036000000030001100110011FFE10001000000057
:1036100010041FFC110403801464181C1004000023
:1036200010041FFC1004000400040004000C00003F
:1036300010041FFC1F0000FC1F001FFC10040000F2
:1036400010041FFC0C04030000E010181FFC100005
:1036500007F00808100410041004080807F0000020
:1036600010041FFC10841080108010800F000000D8
:1036700007F0081810241024101C080A07F2000094
:1036800010041FFC1104110011C011300E0C0004B5
:1036900000000E1C11041084108410441C3800001B
:1036A0001800100010041FFC100410001800000087
:1036B00010001FF810040004000410041FF810008C
:1036C00010001E0011E0001C007013801C00100090
:1036D0001FC0103C00E01F0000E0103C1FC00000B5
:1036E0001004180C163401C001C01634180C100454
:1036F00010001C00130400FC13041C001000000048
:103700000804101C1064108413041C04101800001A
:103710000000000000007FFE400240024002000066
:10372000000030000C0003800060001C000300005B
:1037300000004002400240027FFE00000000000046
:103740000000000020004000400040002000000079
:103750000001000100010001000100010001000161
:1037600000004000400020000000000000000000B9
:1037700000000098012401440144014400FC0004BD
:1037800010001FFC00880104010400880070000084
:10379000000000700088010401040104008800009A
:1037A0000000007000880104010411081FFC0004DF
:1037B000000000F8014401440144014400C8000035
:1037C0000000010401040FFC110411041100180091
:1037D000000000D601290129012901C901060000C4
:1037E00010041FFC008401000100010400FC00041F
:1037F00000000104190419FC00040004000000008A
:103800000000000300010101190119FE0000000081
:1038100010041FFC0024004001B4010C010400004E
:103820000000100410041FFC00040004000000004D
:10383000010401FC0104010001FC0104010000FC81
:10384000010401FC008401000100010400FC0004EB
:10385000000000F8010401040104010400F8000064
:10386000010101FF008501040104008800700000CF
:1038700000000070008801040104010501FF00013F
:103880000104010401FC0084010401000180000026
:10389000000000CC0124012401240124019800002F
:1038A00000000100010007F801040104000000000D
:1038B000010001F8000400040004010801FC0004F8
:1038C000010001800170000C001001600180010006
:1038D00001F0010C003001C00030010C01F00100CA
:1038E00000000104018C00740170018C01040000CF
:1038F000010101810171000E0018016001800100C9
:1039000000000184010C013401440184010C000019
:10391000000000000000000001003EFC40024002E8
:103920000000000000000000FFFF00000000000099
:103930000000400240023EFC0100000000000000C8
:103940000000600080008000400040002000200057
:1039500000000000000000003031323334353637CB
:1039600038394142434445464030580030313233C3
:1039700034353637383961626364656640307800C3
:103980000400000800000000000000020001000028
:10399000103031323334353637383961626364651B
:1039A0006678700030313233343536373839414239
:1039B000434445465850000002400000000000A06B
:1039C0000000000005400000000000C800000000EA
:1039D0000C4000000000409C000000001940000066
:1039E0000020BCBE0000000034400000BFC91B8E98
:1039F00000000004B5400000504BCFD06607E2CF76
:103A0000010000006C4100003E8251AADFEEA734A5
:103A100001000000D9420000DCB5A0E23A301F9757
:103A2000FFFFFFFFB4450000FD25A0C8E9A3C14F7B
:103A3000FFFFFFFFFF3F00000000008000000000CC
:103A4000FF3F00000000008000000000983B0008DD
:103A500000000020180000006C010008B03B0008C6
:103A600018000020600A0000880100081C00000007
:103A700043000000F8FFFFFF0C0000000E000000F4
:103A80000F0000002E0000001001000043000000A5
:103A9000F8FFFFFF0040404040404040404041416F
:103AA0004141414040404040404040404040404013
:103AB00040404040400502020202020202020202AD
:103AC00002020202022020202020202020202002AA
:103AD000020202020202909090909090101010103A
:103AE00010101010101010101010101010101010D6
:103AF000020202020202888888888888080808086A
:103B00000808080808080808080808080808080835
:103B1000020202024000000000000000000000005D
:103B20000000000000000000000000000000000095
:103B30000000000000000000000000000000000085
:103B40000000000000000000000000000000000075
:103B50000000000000000000000000000000000065
:103B60000000000000000000000000000000000055
:103B70000000000000000000000000000000000045
:103B80000000000000000000000000000000000035
:103B9000000000000000000000A24A040000000035
:103BA00000000000010203040607080900000000ED
:0400000508000131BD
:00000001FF
