:020000040800F2
:10000000E806002081020008A1220008E51F000880
:100010009D220008391E00082D2D00080000000058
:100020000000000000000000000000008124000823
:100030003D1E00080000000035230008AB24000826
:100040009B0200089B0200089B0200089B0200081C
:100050009B0200089B0200089B0200089B0200080C
:100060009B0200089B0200089B0200089B020008FC
:100070009B0200089B0200089B0200089B020008EC
:100080009B0200089B0200089B0200089B020008DC
:100090009B0200089B0200089B0200089B020008CC
:1000A0009B0200089B0200089B0200089B020008BC
:1000B0009B0200089B0200089B0200089B020008AC
:1000C0009B0200089B0200089B0200089B0200089C
:1000D0009B020008412A00089B0200089B020008BE
:1000E0009B0200089B0200089B0200089B0200087C
:1000F0009B0200089B0200089B0200089B0200086C
:100100009B0200089B0200089B0200089B0200085B
:100110009B0200089B0200089B0200089B0200084B
:100120009B0200089B0200089B0200089B0200083B
:1001300000F002F800F094F80AA090E8000C824465
:100140008344AAF10107DA4501D100F089F8AFF242
:10015000090EBAE80F0013F0010F18BFFB1A43F0A5
:10016000010318477878000098780000103A24BFFF
:1001700078C878C1FAD8520724BF30C830C144BF0C
:1001800004680C607047000000230024002500264E
:10019000103A28BF78C1FBD8520728BF30C148BFEA
:1001A0000B6070476E2900F03582702900F059838A
:1001B000662906F04C85652906F04985672906F011
:1001C0004685612906F0458503681B0A28BF41F072
:1001D0008001692900F0E281642900F0DF8175293E
:1001E00000F0DC816F2900F0E682782900F0258399
:1001F000E92900F08182E42900F07E82F52900F0EF
:100200007B82EF2900F0E382F82900F02483036861
:10021000DB0928BF41F08001632901F07480732954
:1002200001F07980E32901F08480F32901F08980CD
:10023000002070471FB59DE8030000F0C9F801F0E9
:10024000D9F804000020002105F0D4FC401C6060B7
:100250000020002105F0B8FCE0601FBD10B510BD06
:1002600001F09AF81146FFF7E5FF05F04FFA01F0AB
:1002700077F903B4FFF7F2FF03BC01F0A7F9000020
:100280000948804709480047FEE7FEE7FEE7FEE72A
:10029000FEE7FEE7FEE7FEE7FEE7FEE70448054966
:1002A000054A064B70470000AD24000831010008E4
:1002B000E8000020E8060020E8020020E802002014
:1002C00070B50446051F00F067F80068002C14BFE5
:1002D000446870BD002C18BFAC423CBF2046646827
:1002E000F8D301680A18AA4218BF456003D12A68EA
:1002F00005461144016028684119A1421CBF6C6089
:1003000070BD6168696021680844286070BD0FB4E1
:10031000002170B50546084606AB059A1E4600F05A
:10032000C1F80446401C00F082F8286038B1059AF4
:100330003346611C00F0B6F870BC5DF814FB4FF05A
:10034000FF30F9E74FF0000200B513469446964699
:10035000203922BFA0E80C50A0E80C50B1F12001D8
:10036000BFF4F7AF090728BFA0E80C5048BF0CC086
:100370005DF804EB890028BF40F8042B08BF7047E4
:1003800048BF20F8022B11F0804F18BF00F8012B56
:1003900070477047704770470048704790000020D2
:1003A000704770477047704738B504460A460020CA
:1003B0006946AFF30080002808BF38BD02460099A7
:1003C000204600F02CFB012038BD012000F0DDBFED
:1003D000F8B5AFF30080054600200C46102000BFA2
:1003E0000646A819A0420DD9324669460020AFF34F
:1003F0000080070008BF00F0C8FF0098A04218BFA7
:100400000546C419FFF7C8FF05600746F01D20F038
:1004100007004619284600F0FBFAB44208BFF8BDB1
:10042000A21B31463868BDE8F84000F0F8BA70B554
:100430000646FFF7B1FF056806F10B0020F0070440
:10044000B4429CBF002070BD2B466A68BAB11068E8
:10045000A04210D304F1080188423CBF50685860A4
:1004600007D35168101941601168091B0160586079
:100470001460101D70BD13465268002AE7D1214652
:100480002846FFF791FF0028DED170BD10B500F0BF
:10049000BBFA006810BD10B5044600F0B5FA046060
:1004A00010BD00007CB51D4616460C00009001D022
:1004B0002044401E074B7B442A4669460190304643
:1004C00000F0F7FE05461CB10020694600F004FF6D
:1004D00028467CBD290E000070B504468569006879
:1004E000C10601D5302600E02026C00707D070BD28
:1004F000D4E9012130469047206A401C20626D1EDD
:10050000F6D570BD70B5044685690078C00707D17F
:1005100070BDD4E9012120209047206A401C206250
:100520006D1EF6D570BD09684A0501D540B2704709
:10053000C905FCD500B2704709684A0501D5C0B2AB
:100540007047C905FCD580B2704770B50C460546AA
:10055000012A05D02878800600D5EA69002302E048
:10056000012305E05B1C934202D2E05C0028F9D134
:10057000A869E618C01AA861286A184428622846A3
:10058000FFF7AAFF04E0D5E9012114F8010B904719
:10059000B442F8D32846FFF7B5FF70BD2DE9F0410E
:1005A0000646002410687529314616A510D0FFF7BD
:1005B000BAFF002802DA404213A507E031688A0733
:1005C00001D512A502E0490704D511A5012401E0D7
:1005D000FFF7B2FF00210A2206F1240709E0B0FB71
:1005E000F2FCB0FBF2F302FB1C00303078541846EA
:1005F000491C0028F3D123462A463046BDE8F04185
:1006000000F06CBA000000002D0000002B0000007C
:100610002000000011680268006A530501D50870C7
:100620000AE0D30501D5088006E0130603D5C217FA
:10063000C1E9000200E00860012070472DE9FF5F7A
:1006400015468A460446DFF8AC80F8440027D8E90E
:1006500000103E46CDE9001010E03AF816106A4648
:1006600002A800F072FE411C07D02178890603D54C
:10067000E269391891420DD80744761C207880062B
:1006800002D5E069B84205DDAE42E6DB3AF8160075
:100690000028E2D1A069C01BA0612046FFF71CFF23
:1006A000D8E90010CDE90010002017E03AF8181042
:1006B0006A4602A800F049FEB0F1FF3F81460BD028
:1006C00000250DF1080B05E0D4E901211BF8050018
:1006D00090476D1C4D45F7D308F10100B0428046AC
:1006E000E4DB206A384420622046FFF70BFFBDE8B8
:1006F000FF9F0000667100002DE9F0418046D21D89
:1007000022F007020025D2E90002F52915A614D02F
:10071000011E72F1000106DA0023D0EB030063EB47
:10072000020211A608E0D8F800108B0701D50FA629
:1007300002E0490701D50EA601251146002408F163
:10074000240704E000F085F930323A55641C50EA81
:100750000102F7D12B46324621464046BDE8F04122
:1007600000F0BCB9000000002D0000002B000000CC
:100770002000000030B4002100F1240408E002F061
:100780000705D208303542EA4372DB086554491C3C
:1007900052EA0305F3D10468002310A2250707D508
:1007A000A40600D421B1C46901230DA2641EC46152
:1007B00030BC00F093B910B5044621461068FFF72D
:1007C000BBFE02462046BDE810400023D2E7D21D02
:1007D00022F00701D1E90023CCE70000000000006F
:1007E00030000000F0B40D460188090502D5214C07
:1007F0007C4402E01F4C7C440E34002100F12406AE
:1008000008E002F00F071209E75D42EA03721B09D4
:100810007754491C52EA0307F3D1027800231207E8
:1008200004D5702D06D009B1022311342246F0BC44
:1008300000F054B901231034F8E770B504460D46B2
:1008400021461068FFF778FE024629462046BDE89B
:1008500070400023C6E7D21D22F00703D3E900232E
:10086000C0E70368126843F0200303600823C361F4
:100870000023B7E7C86F00002DE9F05F8946044602
:100880004FF0000ADFF874B1FB44C0F820A0204606
:10089000E1688847002874D0252806D0D4E90121D2
:1008A0009047206A401C2062F1E700265F46204600
:1008B000E16888472028054607DB312D05D27819E5
:1008C00010F8200C08B10643F1E7B00701D526F077
:1008D0000406C4F81CA00027C4F818A02A2D09D0CB
:1008E000284604F09DFE38B304EB8708303DC8F875
:1008F000185019E059F8041B204604EB8702916157
:10090000E1688847012F054618D1E069002820DA00
:1009100026F020061DE0D8F8180000EB800005EB5B
:1009200040003038C8F818002046E168884705467E
:1009300004F076FE0028EED1012F0AD02E2D08D12A
:100940002046E16888477F1C0546022F46F02006B6
:10095000C4DBA069002803DA404246F00106A0612A
:10096000F00701D026F010066C2D0BD0682D09D0B1
:100970004C2D39D06A2D35D0742D35D07A2D33D009
:1009800016E038E0E1682F4620468847B842054621
:1009900009D16C2F26D04FF48060E16806432046D1
:1009A0008847054604E06C2F1AD04FF48070064348
:1009B0000DB3A5F14100192802D8203546F4006690
:1009C0004A462946204626604E46FFF7EBFB80B19B
:1009D00001280BD0F61D26F0070000F1080956E7A4
:1009E0004020E4E78020D8E70020D6E706F104099C
:1009F0004DE7284652E7206ABDE8F09F586F000097
:100A00000048704788000020004870478800002098
:100A100000210160C0E901107047102070470346B3
:100A200040688C46002818BF88423CBF0346406897
:100A3000F8D318681844884207D00CF1030020F05E
:100A40000700001D411A521A0146081D0A60FFF7EF
:100A500037BC30B5B0F10A024FEA900E71F10003D5
:100A60004EEA817EB0EB0E0061EB91014FEA101E61
:100A70004EEA017E10EB0E0041EB11114FEA102EF1
:100A80004EEA016E10EB0E0041EB11214FEA104EC1
:100A90004EEA014E10EB0E0041EB1141401841F1BE
:100AA00000014FEAD00040EA41704FEAD10110EB5B
:100AB00080054FEA810444EA907444EB01046D1907
:100AC00044EB0404521BA3414FF0000348BF0A3219
:100AD00000D530BD401C41F1000130BD2DE9F0478B
:100AE0000D4699469246044600F12408016888069E
:100AF00004D5E06921F01001216000E00120A84246
:100B000001DD471B00E00027A1697A1902EB09000B
:100B1000081AA0612078C00602D42046FFF7DCFC4A
:100B2000002608E0D4E901211AF806009047206A5F
:100B3000401C761C20624E45F4DB2078C0060AD5A6
:100B40002046FFF7C9FC06E0D4E901213020904798
:100B5000206A401C2062381EA7F10107F4DC07E080
:100B6000D4E9012118F805009047206A401C206252
:100B7000281EA5F10105F3DC2046FFF7C3FC207811
:100B8000000602D50220BDE8F0870120FBE7704790
:100B90002DE9FF4F0C461E464FF0FF378BB0D2E9D0
:100BA0000001DDF860800A908A46C1F30A5505B954
:100BB0003D46002108464FF00000BAF1000F00F456
:100BC000400005DA00EB80004FF4400101EA5000DC
:100BD0004FEA9059B9F1010F00DDB9460A9850EA81
:100BE0004A000ED044F61050A5F2FF3545432F14AD
:100BF000B8F1000F1ED07542291E1EDDC9F100029A
:100C00001CE0B8F1010F4FF0000001D0302103E0EB
:100C1000F24305E02154401CB042FBDB3046002289
:100C2000002121540B99C1F80880C1E900200FB0C0
:100C3000BDE8F08FBD1B6D1CDEE74A4600DA694255
:100C400006A800F01BFC06AB93E8070003AB83E8A3
:100C5000070050460A9900F020FD8DE80700A0F536
:100C600000501F3800900398002D0ADD42F21F014A
:100C70004A460844002303A90390684600F089FF10
:100C800009E0A0F500504A461F38002303A903904D
:100C9000684600F093FF8DE807000004000C03D0C5
:100CA0004FF0FF30410800E01046B8F1000F03D0CC
:100CB0000022009215461EE0751E05D4FFF7C9FEFE
:100CC000303262556D1EF9D5B3460122084302D079
:100CD00000227F1C04E02078302801D100227F1EF2
:100CE000002A099784D01DE0112D07DAFFF7B1FE25
:100CF000303262556D1C50EA0102F5D1084302D032
:100D00000098C8B10EE00021681E05E0235C625C1B
:100D100063542254401E491C8142F7DBAB46A81B9A
:100D2000401E0990002004F80B000B98099AC0F8A7
:100D30000880C0E9002B7AE711264FF0000857E73A
:100D40002DE9F04F88460446D21D22F0070191B0EC
:100D5000D1E90001CDE90A0104F0E4F802460B985C
:100D6000C00F01D02D2007E02068810701D52B207E
:100D700002E0202101EAC000032A099001D0072ADD
:100D800005DB03464146204600F038FB0BE12078A6
:100D9000800601D5E06900E00620B8F1650F8146C4
:100DA00006D0B8F1660F18D0B8F1670F70D131E0F6
:100DB0000020B9F1110F009001DB112301E009F1CE
:100DC00001030AAA01A90CA8FFF7E2FEDDE90C70F5
:100DD000002609F10105834647E001204B460090BB
:100DE0004FF000470AAA01A90CA8FFF7D1FEDDE9E0
:100DF0000DB00C995D46002610B909F101000D18DF
:100E0000B9EB050003D4C0F1FF3609F10105A5EBEC
:100E100009002BE0B9F1010F01DA4FF001090020C0
:100E2000B9F1110F0090484601DD112300E003469F
:100E30000AAA01A90CA8FFF7ABFEDDE90C704D462C
:100E400000268346207800070AD4AB4500DA5D46C9
:100E500001A8012D04DD411911F8011C302907D02A
:100E60004F4502DA17F1040F04DA012082460FE041
:100E70006D1EEEE7002F02DCED1B3E4403E0781C04
:100E8000A84200DD7D1CB81B00F1010A4FF00047AD
:100E90002078000703D4AA4501DB4FF0FF3A002178
:100EA000B7F1004F0DF143088DF8431024D0022014
:100EB0002B23002F01DA7F422D230A21021EA0F1ED
:100EC000010000DC5FB197FBF1FC97FBF1F201FB45
:100ED0001C7C17460CF1300C08F801CDEEE7A8F1A8
:100EE000010003702188090501D5452100E0652135
:100EF000A0F1010800F8011C09980FA9A1EB08074F
:100F0000FF1D00B10120411901EBEA70A1693844CD
:100F1000081A401EA0612078C00602D42046FFF7C0
:100F2000DBFA099828B1D4E901219047206A401CD6
:100F300020622078C00622D52046FFF7CDFA1EE0B9
:100F4000002E04DBB34502DD01A8805D00E0302007
:100F5000D4E901219047206A401C2062761CAAF146
:100F600001005FEA000A0AD100F044FAC068016893
:100F7000405CD4E901219047206A401C2062281E71
:100F8000A5F10105DCDC07E0D4E9012118F8010B2B
:100F90009047206A401C2062381EA7F10107F3DC4D
:100FA0002046FFF7AFFA032011B041E62DE9F04FDC
:100FB00004460D46D21D22F0070089B0D0E9009703
:100FC0004846394603F0AEFF0246F80F01D02D2304
:100FD00007E02068810701D52B2302E0202101EAE8
:100FE000C0038DF820300BB1012000E00020032A5F
:100FF000824601D0072A04DB2946204600F0FEF98C
:101000003FE12078800601D40D2500E0E569C7F3B3
:101010000A560D2D49DA00214FEA175B08464FF0BA
:101020000000002F00F4400007DA00EB80004FF4CE
:10103000400100EBD07001EA60008115012901DD5B
:101040004FF0FF3100224FEA850CBCF1180F06D398
:101050001346ACF118004FF08052C24003E04FF449
:10106000801323FA0CF30CF10C0CBCF1200F04D309
:10107000ACF1200C09FA0CF001E007FA0CF00029A1
:101080004FF0004801DD18B90FE00ED140450CD3F8
:1010900019EB02095F4121B9404502D19F4329EA7A
:1010A0000209BBEB175F00D0761C2088000502D533
:1010B0007B48784402E07A487844193808AA3023FB
:1010C00002F80A30037C0AF10101002E0AF1020A3B
:1010D00053546A4602DC4FF0300101E04FF0310119
:1010E0004FF001088DF8001002D0A6F2FF3603E0A1
:1010F00059EA470100D06B4E002D02DC2178090728
:1011000004D54FF002082E218DF80110C4460021AD
:101110000BE0C7F303433F01C35C491C6D1E02F89B
:101120000830052908F1010801DA002DF1DC002161
:101130000CE000EB1973491C1B786D1E082902F89E
:1011400008304FEA091908F1010801DA002DF0DC36
:1011500021688B0602D516E0A8F10108E04505DDFF
:1011600002EB080313F8013C302BF5D0B8F1000F67
:1011700009DD02EB080313F8013C2E2B03D109070C
:1011800001D4A8F10108002D05DD3E2102F8081068
:101190006D1E08F10108407C002E02F8080008F1DD
:1011A000010804DA2D20764202F8080002E02B2024
:1011B00002F808000A214FF47A70864208F101080B
:1011C0000BDB96FBF0F3303302F8083096FBF0F3BC
:1011D00008F1010800FB136601E0642E0CDB6420BB
:1011E00096FBF0F3303302F8083096FBF0F308F189
:1011F000010800FB136601E00A2E06DB96FBF1F006
:10120000303002F8080008F1010896FBF1F001FB0C
:101210001060303002F80800A16908F1010808EBFD
:10122000050202EB0A00081AA0612078C00602D469
:101230002046FFF751F9216A08AE01EB0A0020624F
:1012400004E0D4E9012116F8010B9047BAF1010A34
:10125000F7D22078C00602D52046FFF73DF96E464A
:1012600009E016F8010B3E280FD0D4E90121904780
:10127000206A401C2062B8F10108F2D22046FFF734
:1012800041F909B00320BDE8F08F206A28442062AC
:1012900003E0D4E90121302090476D1EEBD3F8E73D
:1012A0007D68000002FCFFFF01694A1C02610878AA
:1012B000704700B58FB0CDE9013100210591054996
:1012C0007944CDE9031011466846FFF7D5FA0FB00F
:1012D00000BD0000E5FFFFFF0A6802F8010B0A608D
:1012E0007047D1E900239A4202D2531C0B60107060
:1012F000704710B5436913B1AFF3008001E0FFF709
:1013000024F9012010BD127800F124010A70002296
:101310004A700122EDE711684FF0FF32E9E710B59E
:10132000436913B1AFF3008001E0FFF787F90120B3
:1013300010BD128800F1240182840022C28401229F
:10134000EDE711684FF0FF32E9E770B516460C463D
:10135000054600F047F8036893F80101012806D01C
:10136000FF2C0FD8185D68B101202C7070BDD3F828
:1013700007013246214603F2071303442846BDE81D
:10138000704018474FF0FF3070BD10B500F0F6F810
:10139000BDE8104000F0EDB87546FFF731FBAE46F2
:1013A00005006946534620F00700854618B020B571
:1013B000FEF774FFBDE820404FF000064FF0000735
:1013C0004FF000084FF0000B21F00701AC46ACE8ED
:1013D000C009ACE8C009ACE8C009ACE8C0098D465A
:1013E0007047000010B500F005F8001D10BD00BFEB
:1013F0000548000000487047A80000202DE9F04192
:101400001F46044603260168072A01F4006004DB36
:1014100008B116A505E016A503E008B115A500E082
:1014200015A521F010002060A069C01EA0610FB1B9
:10143000401EA0612046FFF74FF84FB1D4E90121CB
:1014400038469047206A401C2062C01C206206E09B
:10145000206AFAE7D4E9012115F8010B9047761EBE
:10146000F8D22046FFF74EF8BDE8F0814E414E001D
:101470006E616E00494E4600696E66002DE9F047C8
:10148000814616468AB0354878440DC88DE80D006F
:1014900032487844801C03AC0DC884E80D0041F646
:1014A0009B300844372190FBF1F290FBF1F5A5F158
:1014B000800501FB12041B3C02D56442012000E0C0
:1014C0000020DFF898A080460027FA44AAF1BE0A5F
:1014D0000EE0E0070AD03246684607EB47010123D9
:1014E0000AEB810100F06AFB8DE8070064107F1CA5
:1014F000002CEED1194F7F44AE3F19E0E80715D01C
:1015000007EB04100DF1180A90E80E008AE80E00AF
:10151000C068F04201D1981908903246012306A90B
:1015200003A800F04BFB03AB83E807006D10641CBD
:10153000002DE3D14FF0010332466946B8F1000FA8
:1015400003A802D000F025FB01E000F037FBC9E959
:101550000001C9F808200AB0BDE8F087386500002E
:1015600010B50446AFF300802046BDE81040FEF7FA
:1015700080BE002801D000F029B8704710B50128BE
:1015800005D0002103A000F028F8012010BD09A11A
:10159000F8E7000053494752544D454D3A204F75E6
:1015A00074206F662068656170206D656D6F72795B
:1015B000000000003A2048656170206D656D6F7213
:1015C0007920636F72727570746564000149182028
:1015D000ABBEFEE726000200704770B505460C461C
:1015E0000A2000E06D1C00F051F835B12878002881
:1015F000F8D102E0641C00F049F814B1207800280A
:10160000F8D1BDE870400A2000F040B84FF0013C2E
:1016100050F8042B51F8043B9A4221D1A2EB0C0361
:10162000934313EACC1317D150F8042B51F8043B21
:101630009A4215D1A2EB0C03934313EACC130BD1BE
:1016400050F8042B51F8043B9A4209D1A2EB0C0349
:10165000934313EACC13DBD04FF00000704700BF78
:10166000D01A01BAB1FA81F101F0180122FA01F0A1
:10167000CB40C1F12001DBB2C0B2C01A2CFA01F399
:10168000D11A914311EAC311E6D1704708B56946F2
:101690008DF800000320ABBE08BD5FEA400C08BF18
:1016A00091F0000F4FEA8C234FEAC12243EA5151D7
:1016B0004FEA1C5018BF00F5F0404FEA300018BF49
:1016C00041F000415FEA6C5C00F02980BCF1FF3F13
:1016D00008BF40F080407047130C06BF12044FF063
:1016E000100C4FF0000C130E04BF12020CF1080C8A
:1016F000130F04BF12010CF1040C930F04BF9200EE
:101700000CF1020CD30F04BF52000CF1010C114676
:101710004FF00002A0F11F00A0EB0C00704711F089
:10172000004F08BF704731F000413FF4D5AF0B0CBC
:1017300006BF09044FF0100C4FF0000C0B0E04BF55
:1017400009020CF1080C0B0F04BF09010CF1040C89
:101750008B0F04BF89000CF1020CCB0F04BF4900B2
:101760000CF1010CCCF12003A0EB0C0022FA03F3E6
:1017700002FA0CF241EA030100F10100704720F087
:101780007F4C80EA030023F07F47ACEB070303F5AF
:101790007C5300F0004003F1FF032DE980494FEA3C
:1017A000154B09B44FEA144325EA0B4E24EA0348CB
:1017B0000FF2042606EB132749083E785FEA32024F
:1017C00003FB0667C7F5000707FB06F64FEA543729
:1017D0004FEAD64606F1020607FB066CCCF1005C28
:1017E0004FEA1C472CEA074C07FB06F40CFB06F5F6
:1017F00004EB15464FEA961634BF00204FF0004028
:101800004FEAD13706FB07FC4FEA1C4C0CFB0BF7E9
:10181000D21B03FB0CF761EB07010CFB0EF7B0EBDF
:10182000074072EB17420CFB08F734BFA2EB0742EC
:10183000B2EB074261EB17414FEA0C444FEA9107C4
:1018400006FB07FC4FEA1C4C0CFB0BF7B0EBC74048
:1018500072EB573203FB0CF734BFA2EBC742B2EB7B
:10186000C74261EB57310CFB0EF7B0EBC70072EBD0
:1018700057720CFB08F734BFA2EBC702B2EBC702EA
:1018800061EB5771039F4FEA816141EA921104EBCA
:10189000CC044FEAD1374FEA826206FB07FC42EAEA
:1018A00090124FEA80604FEA1C4C0CFB0BF7D21BE6
:1018B00003FB0CF761EB07010CFB0EF7B0EB0740E5
:1018C00072EB17420CFB08F734BFA2EB0742B2EBF6
:1018D000074261EB17414FEA8C554FEA910704EB41
:1018E0009C2406FB07FC4FEA1C4C0CFB0BF7B0EBEF
:1018F000C74072EB573203FB0CF734BFA2EBC74271
:10190000B2EBC74261EB57310CFB0EF7B0EBC700EF
:1019100072EB57720CFB08F734BFA2EBC702B2EBB5
:10192000C70261EB577115EB4C254FEA816141EA23
:1019300092114FEA82624FEAD13742EA901206FBD7
:1019400007FC44F100044FEA80604FEA1C4C0CFB9A
:101950000BF7D21B03FB0CF761EB07010CFB0EF737
:10196000B0EB074072EB17420CFB08F734BFA2EB59
:101970000742B2EB074261EB174115EB1C154FEA2A
:10198000813141EA92414FEA823242EA90424FEA83
:1019900080304FEA0C7644F1000448EA03434EEAF3
:1019A0000B484FF0000EB2EB080C71EB030724BF9D
:1019B000624639464EEB0E0E4FF0000B00185241B6
:1019C00049414BEB0B0BB2EB080C71EB03077BF1BE
:1019D000000B24BF624639464EEB0E0E4FF0000B53
:1019E0000018524149414BEB0B0BB2EB080C71EB69
:1019F00003077BF1000B24BF624639464EEB0E0E07
:101A000051EA020718BF46F0010616EB0E7655F1B3
:101A1000000254F1000103D5BDE88901BDE800884A
:101A2000BDE88901BDE80048B619524141EB01010A
:101A3000A3F10103704780807F7E7D7C7B7A79787B
:101A4000777676757473727171706F6E6E6D6C6C83
:101A50006B6A6A6968686766666564646363626125
:101A60006160605F5F5E5E5D5D5C5C5B5B5A5A59A6
:101A70005958585757565655555554545353525212
:101A80005251515050504F4F4F4E4E4D4D4D4C4C6A
:101A90004C4B4B4B4A4A4A494949484848474747B3
:101AA00047464646454545444444444343434342F0
:101AB000424242414141002B9C4630D477002BD01A
:101AC0001CB54FEA370703B44FF010004FF0100178
:101AD000BAF1000F06D0BCF1000FDCBF40F00800E7
:101AE00040F008014FF000000FBCBDE810400BF1C2
:101AF000010BBBF1010F08BF5FEA170722BF12F10C
:101B0000010211F101014FF0004143F1000300F027
:101B1000004043EA00007047F9D35708D0E746EA8F
:101B2000064613F1400F4FEA16461FDD13F1200F52
:101B3000DFBF16430A46002120335B42BED0C3F10B
:101B4000200746EA064602FA07F74FEA164646EA33
:101B50000706C3F1200722FA03F201FA07F721FA78
:101B600003F14FF0000342EA0702A7E746EA020644
:101B700046EA06464FEA164646EA0106BCBF46EA72
:101B80000646360C4FF000034FF000024FF0000104
:101B900094E72DE9804C9A46934670B491E838005A
:101BA00007C831EA400C48BF34EA430C03D5FFF7BD
:101BB000E6FDFFF780FFF0BCBDE8008C2DE9804C0E
:101BC0009A46934670B491E8380007C810F0804FE9
:101BD00008BF13F0804F03D100F005F8FFF76BFF4B
:101BE000F0BCBDE8008C20F07F4780EA030023F0C2
:101BF0007F4C07EB0C03A3F57C5300F00040A3F1EE
:101C0000FE0392F0000F00F0B38095F0000F00F09B
:101C100077802DE901494FEA11404FEA144621EA45
:101C2000004800FB06FC24EA064708FB06F607FB13
:101C300008F800FB07F718EB06484CEB164C4FEA88
:101C4000124B18EB07484FEA15464CEB174022EAB7
:101C50000B4E0BFB06FC25EA06470EFB06F607FBC0
:101C60000EFE0BFB07F71EEB064E4CEB164C4FF02F
:101C700000061EEB074E4CEB174B18EB0B0840F120
:101C8000000018EB0E0B58EB000840F100008F1A13
:101C90004FF000013CBFC943661B14BFB5EB040CF9
:101CA00000213CBFC943F61B4FEA17444EEA8E0E93
:101CB00027EA04454FEA1C4704FB07622CEA074C5D
:101CC00005FB07F70CFB05F604FB0CFC16EB0746BF
:101CD00042EB174216EB0C4642EB1C421BEB06068E
:101CE00058EB0202414146EA9E0601D5BDE8018952
:101CF000B619524141EB0101A3F10103BDE801898D
:101D00004FEA14454FEA114724EA054621EA074CF9
:101D100005FB07F406FB07F70CFB06F105FB0CFCC3
:101D200011EB074144EB17444FEA124711EB0C410A
:101D300044EB1C4422EA074C05FB07F206FB07F7BD
:101D40000CFB06F605FB0CFC16EB074642EB1742B4
:101D500016EB0C4642EB1C456A1854F1000148BFD3
:101D60007047B619524141EB0101A3F101037047DD
:101D700095F0000F37D04FEA11424FEA144721EA9D
:101D8000024624EA074C02FB07F106FB07F70CFBAF
:101D900006F402FB0CFC14EB074441EB17414FEA3D
:101DA000154714EB0C4441EB1C4125EA074C02FBA0
:101DB00007F506FB07F70CFB06F602FB0CFC16EB1F
:101DC000074645EB174516EB0C4645EB1C4212192E
:101DD00051F1000148BF7047B619524141EB010172
:101DE000A3F1010370474FEA14454FEA114724EA73
:101DF000054621EA074C05FB07F106FB07F70CFB3C
:101E000006F24FF0000605FB0CFC12EB074241EB1B
:101E1000174112EB0C4251EB1C4148BF704792181E
:101E200041EB0101A3F10103704700000149086083
:101E30007047000000860D4200BFFEE770472DE9A5
:101E4000F041024600250026002000230024002740
:101E500091F803C00CF00F0591F803C00CF0100CC2
:101E6000BCF1000F03D091F802C04CEA050591F8CF
:101E700000C0BCF1000F31D0146800202BE04FF0FF
:101E8000010C0CFA00F3B1F800C00CEA03069E4204
:101E900020D183004FF00F0C0CFA03F7BC4305FA76
:101EA00003FC4CEA040491F803C0BCF1280F06D1EE
:101EB0004FF0010C0CFA00FCC2F814C00AE091F8D3
:101EC00003C0BCF1480F05D14FF0010C0CFA00FC27
:101ED000C2F810C0401C0828D1D31460B1F800C06B
:101EE000BCF1FF0F34DD546800202EE000F1080C37
:101EF0004FF0010808FA0CF3B1F800C00CEA030631
:101F00009E4221D183004FF00F0C0CFA03F7BC4323
:101F100005FA03FC4CEA040491F803C0BCF1280F55
:101F200005D100F1080C08FA0CF8C2F8148091F8F9
:101F300003C0BCF1480F07D100F1080C4FF00108B5
:101F400008FA0CF8C2F81080401C0828CED3546060
:101F5000BDE8F081F0B50A460023002400210025E9
:101F600000F00046B6F1004F02D11D4EF16901E0CC
:101F70001B4E7168C0F3034583B200F44016B6F5FA
:101F8000401F08D121F07061154E766826F070660A
:101F9000134F7E6012E000F48016B6F5801F06D164
:101FA000032606FA05F4A14341F0706106E0460DF0
:101FB000360103FA06F6B14341F0706122B1460DD5
:101FC000360103FA06F6314300F00046B6F1004F41
:101FD00002D1034EF16101E0014E7160F0BD0000DD
:101FE0000000014000BFFEE710B500200F49086067
:101FF0000F48006820F470400D49086008460068EA
:1020000040F44050086000200A49C1F8AC010220A9
:1020100003F056FB012005490860022003F050FB45
:1020200000200449C1F8A80110BD0000A881214288
:10203000040C01400080214208B50121082000F075
:102040008BF94FF44060ADF8000010208DF80300CC
:1020500002208DF8020069460448FFF7F0FE0120D7
:10206000034908600349C1F8AC0108BD000C0140F8
:10207000A88121420080214210B500200F4908604C
:102080000F48006820F470400D4908600846006859
:1020900040F44050086001200A49C1F8AC01022018
:1020A00003F00EFB012005490860022003F008FB45
:1020B00000200449C1F8A80110BD0000A8812142F8
:1020C000040C01400080214270B5054600241748E9
:1020D000006820F47040154908600846006840F424
:1020E00000400860002616E0002011490860022028
:1020F00003F0E6FA01200F49C1F8A8016006040EBA
:102100000B487C38006808B1601CC4B2012003F0A1
:10211000D7FA701CC6B2082EE6DB15B9FFF7ACFF84
:1021200001E0FFF761FF204670BD0000040C014094
:10213000A88121420080214270B5044615480068FC
:1021400020F47040134908600846006840F440508D
:102150000860002010490860002517E0E0090E49DA
:10216000091D08606006040E022003F0A9FA012090
:102170000A49C1F8A801022003F0A2FA002006498A
:102180000860022003F09CFA681CC5B2082DE5DB4C
:1021900070BD0000040C0140A88121420080214252
:1021A00010B50F48006820F470400D4908600846DB
:1021B000006840F44050086001200A4908600A495C
:1021C000C1F8A801042003F07BFA0020054908604B
:1021D000042003F075FA00200349C1F8A80110BDDE
:1021E000040C0140AC8121420080214210B50F480F
:1021F000006820F470400D4908600846006840F40B
:102200004050086000200A4908600A49C1F8AC0142
:10221000042003F055FA012005490860042003F06A
:102220004FFA01200349C1F8AC0110BD040C014074
:10223000A88121420080214210B500241448006882
:1022400020F47040124908600846006840F40040DD
:10225000086001200F49086003F032FA01200E499E
:10226000C1F8A80103F02CFA07E0601CC4B2FA2CF4
:1022700003DDFFF7BBFF012010BD06488038006872
:102280000028F2D10349091F086000BFF4E70000ED
:10229000040C0140AC8121420080214200BFFEE7D6
:1022A0007047000070B5002100230F22C47804B3EA
:1022B000154C246804F4E064C4F5E064210AC1F11B
:1022C0000403CA40447804FA03F18478144021439B
:1022D00009010E4C0678A155047804F01F0501246D
:1022E000AC4005786D11AD0005F1E025C5F8004161
:1022F00009E0047804F01F050124AC40044D067881
:10230000761145F8264070BD0CED00E000E400E0D9
:1023100080E100E002490143024A11607047000079
:102320000000FA050CED00E001490862704700006A
:1023300000000E427047000029B1064AD2690243EC
:10234000044BDA6104E0034AD2698243014BDA614B
:10235000704700000010024029B1064A926902430A
:10236000044B9A6104E0034A92698243014B9A61EB
:10237000704700000010024030B500210022002408
:1023800000232D4D6D6805F00C0121B1042905D005
:10239000082923D105E0294D056022E0274D05607D
:1023A0001FE0254D6D6805F47012234D6D6805F42E
:1023B0008034022505EB92421CB9214D554305603E
:1023C0000BE01D4D6D6805F400351DB11C4D5543E6
:1023D000056002E0194D5543056002E0174D0560A8
:1023E00000BF00BF144D6D6805F0F0010909154DDF
:1023F0006B5C0568DD4045600F4D6D6805F4E0617C
:10240000090A104D6B5C4568DD4085600A4D6D68BA
:1024100005F46051C90A0B4D6B5C4568DD40C56031
:10242000054D6D6805F44041890B074D6B5CC5682F
:10243000B5FBF3F5056130BD0010024000127A00D3
:1024400000093D00140000202400002000210B4A58
:1024500011700A4A203A82F82010012802D004287C
:1024600008D103E00121054A117004E00521034A67
:10247000117000E000BF00BF704700002010024054
:102480007047042808D14FF0E021096941F00401A8
:102490004FF0E022116107E04FF0E021096921F0DF
:1024A00004014FF0E02211617047704710B51348E6
:1024B000006840F001001149086008464068104972
:1024C00008400E494860084600680E4908400B491C
:1024D00008600846006820F48020086008464068CC
:1024E00020F4FE0048604FF41F00886000F01CFFDD
:1024F0004FF000600449086010BD00000010024069
:102500000000FFF8FFFFF6FE08ED00E021B10288B1
:1025100042F08002028004E002884FF67F731A4086
:1025200002807047CA430282704721B1028842F09C
:102530000102028004E002884FF6FE731A40028016
:10254000704731B1B0F8442042F40042A0F8442072
:1025500005E0B0F84420C2F30E02A0F84420704712
:10256000F0B50C4615461E460021002200230189C5
:10257000028B038C4FF6F877394021434FF6FC4726
:102580003A4040F201173A434FF6DD773B404FF6B1
:10259000FF7707EA06172F433B4301810283038439
:1025A000F0BD000070B505460C46244885420ED0AB
:1025B000234885420BD0B5F1804F08D02148854291
:1025C00005D02148854202D02048854200D100E054
:1025D00000BF208850B92389A2886188284600F06E
:1025E00083FDE188284600F0A2F925E02088042830
:1025F0000AD12389A2886188284600F0B5FDE188C8
:10260000284600F09DF917E0208808280AD1238980
:10261000A2886188284600F0F3FDE188284600F092
:102620009CF909E02389A2886188284600F030FEE1
:10263000E188284600F09AF970BD0000002C0140A6
:10264000003401400004004000080040000C00403D
:10265000002101804180012181800021C180018110
:1026600070471AB183890B43838102E083898B43CE
:102670008381704770B5002400220023058C4FF63B
:10268000FE7635400584028C8388048B4FF68F7567
:102690002C40B51E2C400D882C43751E2A400D89F8
:1026A0002A434D882A43144DA8420BD0134DA8420B
:1026B00008D0134DA84205D0124DA84202D0124DA9
:1026C000A84213D14FF6F7752A404D892A434FF699
:1026D000FB752A408D882A434FF6FF652B404FF645
:1026E000FF552B408D892B43CD892B438380048359
:1026F000CD888586028470BD002C014000340140E5
:102700000040014000440140004801400A460021C9
:10271000018B4FF6F7731940114301837047000096
:1027200070B5002400220023058C4FF6EF7635406B
:102730000584028C8388048B48F6FF752C404FF685
:10274000FF452C400D884FF6FF7606EA05252C4301
:102750004FF6DF752A400D8906EA05152A434D8894
:1027600006EA05152A43154DA84202D0144DA84289
:102770001DD14FF67F752A404D894FF6FF7606EA48
:1027800005152A434FF6BF752A408D8806EA0515C0
:102790002A434FF6FF352B404FF2FF752B408D89B2
:1027A00006EA85052B43CD8906EA85052B43838000
:1027B0000483CD880587028470BD0000002C014091
:1027C000003401400A460021018B4FF2FF7319408B
:1027D0004FF6FF7303EA0223194301837047000099
:1027E00070B5002400220023058C4FF6FF663540AB
:1027F0000584028C8388848B4FF68F752C404FF6AE
:10280000FC752C400D882C434FF6FF552A400D894E
:102810004FF6FF7606EA05252A434D8806EA052588
:102820002A43154DA84202D0144DA8421DD14FF2A3
:10283000FF752A404D894FF6FF7606EA05252A43A3
:102840004FF6FF352A408D8806EA05252A434EF6C5
:10285000FF752B404DF6FF752B408D8906EA051557
:102860002B43CD8906EA05152B4383808483CD88CD
:102870008587028470BD0000002C014000340140B7
:102880000A460021818B4FF6F7731940114381836B
:102890007047000070B5002200230024058C4EF61E
:1028A000FF7635400584038C8488828B48F6FF755B
:1028B0002A404FF6FF452A400D884FF6FF7606EA7C
:1028C00005252A434DF6FF752B400D8906EA05358F
:1028D0002B434D8806EA05352B430B4DA84202D009
:1028E0000A4DA84208D14BF6FF752C408D894FF652
:1028F000FF7606EA85152C4384808283CD88A0F874
:102900004050038470BD0000002C014000340140A1
:102910000A460021818B4FF2FF7319404FF6FF7377
:1029200003EA022319438183704781847047028B35
:102930004FF6F3731A400283028B0A4302837047F7
:10294000028B4FF2FF331A400283028B4FF6FF7364
:1029500003EA01231A4302837047828B4FF6F37315
:102960001A408283828B0A4382837047828B4FF2A4
:10297000FF331A408283828B4FF6FF7303EA0123F1
:102980001A43828370470000002202881D4B984240
:102990000ED01D4B98420BD0B0F1804F08D01B4B8E
:1029A000984205D01A4B984202D01A4B984204D153
:1029B0004FF68F731A404B881A43174B984207D033
:1029C000164B984204D04FF6FF431A40CB881A4367
:1029D00002808B8883850B8803850A4B98420BD035
:1029E000094B984208D00E4B984205D00D4B9842A7
:1029F00002D00D4B984201D10B7A038601238382CA
:102A000070470000002C01400034014000040040E9
:102A100000080040000C004000100040001400407E
:102A20000040014000440140004801404FF6FF7162
:102A3000818000210180C1804180017270470000C7
:102A400010B540F225513B4800F0B0F8012870D194
:102A50003848001D0088C4B23748007840BB37486A
:102A60000078A04203D10120354908705BE034486A
:102A70000078C8B1314832490978405CA04213D18E
:102A80002F480078022805DA2D480078401C2C4990
:102A9000087048E00120284908702A482A4908603F
:102AA00001202A4908703EE00020254908703AE0DC
:102AB00026480078082807D8234800680470224870
:102AC0000068401C2049086020480078401C1F49CD
:102AD00008701F480078A04203D101201D490870EA
:102AE00021E01C480078D8B119481A490978405C9F
:102AF000A04215D117480078022805DA1548007859
:102B0000401C144908700EE000200B4908700F4863
:102B10000078401E0B2806D101200F49087002E002
:102B200000200C49087040F22551024800F016F8C8
:102B300000BF10BD0038014044000020486D00086F
:102B40004500002034000020400000203E0000200E
:102B50004B6D0008460000203C00002010B500220C
:102B6000002340F66A14A14200D100BF0A120124DA
:102B70009440A3B2DC43048010BD21B1828942F4A9
:102B80000052828104E082894DF6FF731A408281EF
:102B9000704702460020B1F5007F00D100BF1388C6
:102BA0000B400BB1012000E00020704770B50246D9
:102BB000002400230025002040F66A16B14200D10F
:102BC00000BFC1F3421501F01F03012606FA03F30B
:102BD000012D02D19689334006E0022D02D1168ADA
:102BE000334001E0968A33400C12012606FA04F4C1
:102BF0001688344013B10CB1012000E0002070BDF4
:102C0000F0B50346002400260025002040F66A1790
:102C1000B94200D100BF1846C1F3421401F01F06AB
:102C2000012707FA06F5012C01D10C3004E0022C33
:102C300001D1103000E014301AB107682F4307604B
:102C400002E00768AF430760F0BD00002DE9F047E0
:102C500086B005460E460024A24600BFA1460027C6
:102C6000B08900B100BF2F462C8A4CF6FF7004409B
:102C7000F08804432C82AC894EF6F3100440B088EF
:102C800031890843718908430443AC81AC8A4FF60B
:102C9000FF400440B0890443AC8201A8FFF76CFBFD
:102CA0001F48874202D1DDF810A001E0DDF80CA03A
:102CB000A88900F4004040B10AEBCA0000EB0A10FA
:102CC00031684900B0FBF1F807E00AEBCA0000EBFD
:102CD0000A1031688900B0FBF1F86420B8FBF0F00D
:102CE00004012009642101FB1089A88900F4004037
:102CF00040B1322000EBC900B0FBF1F000F007005A
:102D0000044308E0322000EB09106421B0FBF1F02D
:102D100000F00F0004432C8106B0BDE8F0870000EE
:102D200000380140C1F308028280704700BFFEE70F
:102D300010B50A48806940F00100084988610848D8
:102D4000406820F0E060064948600846406840F06E
:102D50000070486002F06CFC10BD000000100240E2
:102D60000000014008B501210820FFF7F5FA4FF4F3
:102D70000050ADF8000010208DF8030003208DF8FE
:102D8000020069460148FFF75AF808BD000C0140EF
:102D900008B501211020FFF7DFFA01210846FFF7EF
:102DA000DBFA4EF20100ADF8000010208DF80300B0
:102DB00002208DF8020069460148FFF740F808BD7F
:102DC0000010014010B50246012000E050430B1EE8
:102DD000A1F10104E1B2F9D110BD000030B589B014
:102DE00005460C4601214803FFF7B6FA01211020E1
:102DF000FFF7B2FA4FF47070ADF8200018208DF88C
:102E0000230003208DF8220008A92448FFF717F8B3
:102E1000ADF81850ADF814400020ADF81A00ADF828
:102E2000160005A91E48FFF7AFFD6020ADF80400AD
:102E30000120ADF806000020ADF80A00ADF80C0046
:102E400001A91748FFF716FC01A91548FFF768FC10
:102E500001A91348FFF7C4FC01A91148FFF71AFDA7
:102E600001210F48FFF76DFB08210D48FFF74EFCCD
:102E700008210B48FFF7A6FC08210948FFF700FDD1
:102E800008210748FFF744FD01210548FFF73EFBF5
:102E900001210348FFF749FB09B030BD0010014094
:102EA0000034014030B589B005460C460121C80206
:102EB000FFF752FA01210420FFF74EFA4FF4807019
:102EC000ADF8200018208DF8230003208DF8220093
:102ED00008A91948FEF7B3FFADF81850ADF8144033
:102EE0000020ADF81A00ADF816008DF81C0005A9F9
:102EF0001248FFF749FD6020ADF804000120ADF84D
:102F000006000020ADF80A00ADF80C0001A90B483E
:102F1000FFF7B0FB08210948FFF7F8FB012107483C
:102F2000FFF7F4FA01210548FFF7FFFA01210348F2
:102F3000FFF707FB09B030BD00080140002C01403D
:102F40003EB505460C4601211020FFF7F5F9ADF816
:102F50000450ADF800400020ADF80600ADF80200C6
:102F600069460448FFF710FD01210248FFF7DDFA2A
:102F70003EBD00000010004000B587B001210846AA
:102F8000FFF7EAF901210846FFF7D6F901210420ED
:102F9000FFF7E2F901210820FFF7DEF901212848B7
:102FA000FEF7D8FF4FF40040ADF8000004208DF884
:102FB000030069462348FEF742FF0820ADF80000F1
:102FC00004208DF8030069461F48FEF738FF04A867
:102FD000FFF72CFD0020ADF810004FF6FF70ADF8A4
:102FE00014000020ADF81600ADF8120004A94FF04F
:102FF0008040FFF7C9FC00231A4603214FF08040B0
:10300000FFF7AEFA01A8FFF723FB0A20ADF80C008A
:1030100001A94007FFF7C6FA01218807FFF782FAE6
:10302000012211469007FFF71CFB00214FF0804062
:10303000FFF77BFC01218807FFF777FA07B000BD97
:103040000001180000080140000C014000B587B0E5
:1030500001210220FFF770F901210420FFF77CF91C
:10306000C020ADF8000004208DF8030069461C481C
:10307000FEF7E5FE04A8FFF7D9FC0020ADF810002C
:103080004FF6FF70ADF814000020ADF81600ADF853
:10309000120004A91348FFF777FC00231A46032106
:1030A0001048FFF75DFA01A8FFF7D2FA0A20ADF841
:1030B0000C0001A90B48FFF775FA01210948FFF739
:1030C00031FA012211460748FFF7CBFA00210548E3
:1030D000FFF72BFC01210348FFF727FA07B000BDDB
:1030E0000008014000040040F0B50C4615460022DF
:1030F0000021068C4FF6FE773E400684028B018C41
:103100004FF60C7632407E1C06EA03162E433243FD
:10311000104EB0420ED0104EB0420BD0B0F1804FE6
:1031200008D00E4EB04205D00D4EB04202D00D4E2A
:10313000B04206D14FF6FD76314044F001063143EE
:1031400005E04FF6F576314044F001063143028345
:103150000184F0BD002C0140003401400004004017
:1031600000080040000C0040F0B50C461546002257
:1031700000210026078C4FF6EF7C07EA0C07078436
:10318000028B018C4FF6FF7707EA041640F6FF47E3
:103190003A404FF6FF7707EA03373A434FF6FF7797
:1031A00007EA05273A43114FB8420ED0104FB842F4
:1031B0000BD0B0F1804F08D00E4FB84205D00E4F63
:1031C000B84202D00D4FB84206D14FF6DF773940F2
:1031D00046F01007394305E04FF65F77394044F079
:1031E0001007394302830184F0BD0000002C014028
:1031F000003401400004004000080040000C004082
:10320000F0B50C461546002200210026078C4FF62B
:10321000FF6C07EA0C070784828B018C4FF6FF775F
:1032200007EA04264FF60C773A404FF6FF7707EA95
:1032300003172F433A43114FB8420ED0104FB842F4
:103240000BD0B0F1804F08D00E4FB84205D00E4FD2
:10325000B84202D00D4FB84206D14FF6FF57394061
:1032600046F48077394305E04FF2FF57394044F484
:103270008077394382830184F0BD0000002C014037
:10328000003401400004004000080040000C0040F1
:10329000F0B50C461546002200210026078C4EF69C
:1032A000FF7C07EA0C070784828B018C4FF6FF77BF
:1032B00007EA043640F6FF473A404FF6FF7707EA41
:1032C00005273A434FF6FF7707EA03373A43114F92
:1032D000B8420ED0104FB8420BD0B0F1804F08D09A
:1032E0000E4FB84205D00E4FB84202D00D4FB84233
:1032F00006D14DF6FF77394046F48057394305E053
:1033000047F6FF57394044F480573943828301849C
:10331000F0BD0000002C01400034014000040040DA
:1033200000080040000C004010B500F001F810BD8E
:103330000CB50020019000903348006840F48030C4
:103340003149086000BF3048006800F40030009048
:103350000198401C0190009818B90198B0F5A06F31
:10336000F1D12948006800F4003010B1012000902C
:1033700001E0002000900098012843D12348006814
:1033800040F01000214908600846006820F0030062
:1033900008600846006840F0020008601A4840686B
:1033A000194948600846406848600846406840F44B
:1033B000806048600846406820F47C1048600846F9
:1033C000406840F4E81048600846006840F08070AB
:1033D000086000BF0C48006800F000700028F9D0B9
:1033E0000948406820F003000749486008464068E3
:1033F00040F00200486000BF0348406800F00C0045
:103400000828F9D10CBD0000001002400020024045
:103410001CB5044602233722D021204600F0BDF817
:103420000A2002F027F901230A221821204600F081
:10343000B4F80A2002F01EF903221821204600F0F9
:103440003EF88DF8000004221821204600F037F8DD
:103450008DF801009DF800009DF8011040EA012060
:1034600001B2618205221821204600F028F88DF86B
:10347000020006221821204600F021F88DF80300F2
:103480009DF802009DF8031040EA012001B2A182DC
:1034900007221821204600F012F88DF804000822B7
:1034A0001821204600F00BF88DF805009DF8040067
:1034B0009DF8051040EA012001B2E1821CBD2DE912
:1034C000F04180460C4615460126FEF769FE20466F
:1034D000FEF732FEFEF7B0FE07462846FEF72CFE4A
:1034E000FEF7AAFE0746FEF75BFE611CC8B2FEF7B8
:1034F00023FEFEF7A1FE07460020FEF7E5FD074686
:10350000FEF774FE16B9FF20BDE8F0813846FBE7F0
:103510001CB504464422D0212046FFF7D0FF8DF889
:1035200000004322D0212046FFF7C9FF8DF801009B
:103530009DF800009DF8011040EA012001B2A18130
:103540004622D0212046FFF7BAFF8DF8020045221F
:10355000D0212046FFF7B3FF8DF803009DF802004D
:103560009DF8031040EA012001B2E1814822D021F8
:103570002046FFF7A4FF8DF804004722D021204603
:10358000FFF79DFF8DF805009DF804009DF80510DC
:1035900040EA012001B221821CBD2DE9F0418046A4
:1035A0000C4615461E460127FEF7FAFD2046FEF79B
:1035B000C3FDFEF741FE2846FEF7BEFDFEF73CFECA
:1035C0003046FEF7B9FDFEF737FEFEF70FFE384630
:1035D000BDE8F0811CB504463C22D0212046FFF70F
:1035E0006EFF8DF800003B22D0212046FFF767FFD9
:1035F0008DF801009DF800009DF8011040EA0120BF
:1036000000B2E0803E22D0212046FFF758FF8DF81F
:1036100002003D22D0212046FFF751FF8DF8030024
:103620009DF802009DF8031040EA012001B22181BB
:103630004022D0212046FFF742FF8DF804003F22B0
:10364000D0212046FFF73BFF8DF805009DF80400D0
:103650009DF8051040EA012001B261811CBD000007
:103660002DE9F05F82465046FFF7B4FF5046FFF762
:103670004FFF5046FFF7CCFE4FF0000B1AE00AF167
:10368000060131F91B0002F062FD80462C4A2D4BE9
:1036900002F088FD064600222B4B02F0A3FB0446F5
:1036A00002F0BEFA0AF1180141F82B000BF10100FB
:1036B00000F0FF0BBBF1020FE1DD4FF0030B1CE04C
:1036C0000AF1060131F91B0002F041FD80464FF07E
:1036D00066321E4B02F086FB06464FF066321C4BEC
:1036E00002F080FB044602F09BFA0AF1180141F84F
:1036F0002B000BF1010000F0FF0BBBF1050FDFDD2C
:103700004FF0060815E00AF1060131F9180002F041
:103710001EFD06460F4A104B02F064FB044602F001
:103720007FFA0AF1180141F8280008F1010000F0C1
:10373000FF08B8F1080FE6DD0AF11800BDE8F09FB8
:103740009A99999999992340C0FF9F4066663040A5
:1037500066A64C40EC51B81E85EBC13F38B5044617
:103760000D4625602848007800283CD04FF496701C
:10377000A080002024490870FEF75EFC7522D0214D
:103780002046FFF79CFE71281ED100236B22D0211A
:103790002046FFF702FF07231922D0212046FFF71A
:1037A000FCFE06231A22D0212046FFF7F6FE18233E
:1037B0001B22D0212046FFF7F0FE18231C22D02127
:1037C0002046FFF7EAFE1DE0002000900FA16846AA
:1037D000FCF79DFD206812A1009A00F00FFB0098F5
:1037E000FCF76EFD0EE0002000900EA16846FCF78D
:1037F0008EFD20680AA1009A00F000FB0098FCF7FB
:103800005FFD00BF204638BD28000020494D5520EF
:10381000496E6974204661696C656421000000008E
:10382000494D5500636C6173732068617320626554
:10383000656E207265646566696E656400000000EF
:1038400001460848006840B90748007808B10020E0
:1038500070470120044A1070FAE70020024A1070F5
:10386000F6E70000388121422B00002038B50446DD
:103870000B48007890B101210820FEF76DFD4FF450
:103880008040ADF8000048208DF8030069460548E7
:10389000FEF7D5FA00200249087000BF204638BD67
:1038A0002A000020000C014010B50446204600F01C
:1038B00085F8204600F082F8204600F07FF8204688
:1038C00000F00EF9204600F069F9204600F0A2F859
:1038D00010BD00001CB50446204600F063F800202F
:1038E00001900120009000202949086029480178B2
:1038F000204600F089F927484178204600F084F9F5
:103900000220019036E00120009027E001202249AA
:103910000860052001F0D4FE00202049C1F8900184
:10392000052001F0CDFE01201C49C1F890011C4882
:10393000D0F8080158B1201D9DF80410405CBDF876
:1039400000100843C1B2201D9DF804208154BDF829
:1039500000004FF6FF7101EA40000090BDF8000042
:10396000FF28D3DD102001F0ABFE9DF80400401CC1
:10397000C0B201909DF804000928C4DB012004496D
:103980000860217AE07941EA0020C043E0811CBD53
:103990008C012242466D0008900121420000214224
:1039A000000022420146002004E000230A1D1354B7
:1039B000421CD0B20928F8DB7047000010B504465D
:1039C000002010490860102001F07AFE01212046F5
:1039D00000F01AF94221204600F016F90021204695
:1039E00000F012F90021204600F00EF900212046D7
:1039F00000F00AF901200449C1F88C01102001F0FF
:103A00005FFE10BD8C012242000022420246101DC2
:103A1000405C704710B5044600201849086010202B
:103A200001F04EFE0121204600F0EEF84321204631
:103A300000F0EAF80021204600F0E6F800212046D8
:103A400000F0E2F85A21204600F0DEF85A21204624
:103A500000F0DAF85A21204600F0D6F85A21204624
:103A600000F0D2F85A21204600F0CEF80120044997
:103A7000C1F88C01102001F023FE10BD8C01224200
:103A80000000224238B5044601211420FEF764FCF0
:103A90000420ADF8000048208DF8030069460E4868
:103AA000FEF7CDF90A20ADF8000010208DF80300D4
:103AB00003208DF8020069460748FEF7C0F9102080
:103AC000ADF800008DF8030003208DF80200694670
:103AD0000248FEF7B4F938BD00100140000801406B
:103AE00010B50446002018490860102001F0E8FDD8
:103AF0000121204600F088F84321204600F084F898
:103B00000021204600F080F80121204600F07CF8DA
:103B10000021204600F078F80021204600F074F8DB
:103B20000021204600F070F80021204600F06CF8DB
:103B30000021204600F068F801200449C1F88C01FA
:103B4000102001F0BDFD10BD8C0122420000224278
:103B500010B502460B46D089184060B10A4800886B
:103B6000184040B9D0891840074C24882043064C9F
:103B70002080012010BDD089034C24882040024CB5
:103B800020800020F6E70000300000200246D089A7
:103B9000084008B1012070470020FCE710B504463A
:103BA0000020174908600121204600F02DF844212B
:103BB000204600F029F80021204600F025F80121D8
:103BC000204600F021F80321204600F01DF80021D6
:103BD000204600F019F80021204600F015F80021D9
:103BE000204600F011F80021204600F00DF80120D9
:103BF0000449C1F88C01102001F062FD10BD0000E5
:103C00008C0122420000224238B504460D460120B4
:103C100000900021617100902BE0BDF80000284069
:103C200018B101201749086002E00020154908601A
:103C3000012015490860052001F042FD00201349CC
:103C4000C1F89001052001F03BFD01200F49C1F8AA
:103C500090010F48D0F8080120B16079BDF800103C
:103C600008436071BDF800004FF6FF7101EA4000A3
:103C70000090BDF80000FF28CFDD102001F020FDEE
:103C800038BD0000840122429001214200002142FF
:103C90000000224270B504460D46256009480078B0
:103CA00048B12046FFF7EEFE2046FFF7FDFD00205D
:103CB0000449087004E004A20AA1206800F09EF8FC
:103CC000204670BD2E000020636C61737320686114
:103CD00073206265656E207265646566696E6564F1
:103CE000000000005053320070B505460C461646E1
:103CF000287800B164B1287808B9012C08D0287858
:103D000008B9022C04D0022C01D0012C05D126B90F
:103D100011A216A1686800F071F82CB900201549AD
:103D200088840120287015E0022C0AD100BF1148B8
:103D3000818C642070438142F9DB00200D49888426
:103D400008E000BF0B48818C642070438142F9DB9E
:103D500000202870012070BD57616974466F72544D
:103D6000696D65204572726F7200000054494D36CE
:103D7000000000000010004070B504460D4665606C
:103D80000A48007850B140F2CF214EF65F20FFF78D
:103D9000D7F8002020700549087004E004A20BA1A8
:103DA000606800F02BF8204670BD0000470000203E
:103DB000636C61737320686173206265656E207245
:103DC00065646566696E65640000000074696D6510
:103DD0007200000010B5024600200BE0002105E053
:103DE000002302EBC10423544B1CD9B28029F7DB1A
:103DF000431CD8B20828F1DB10BD000006460D4672
:103E000014463046FFF7E6FFBCB13046FFF7E2FF4D
:103E10002B4605220021304600F02DF908A305228B
:103E20003221304600F027F923461422052130467E
:103E300000F021F9304600F044F900BFFEE7000031
:103E40004572726F723A0000012900D029B9044B03
:103E50001960002380F8043401E080F804247047DE
:103E6000B481214230B503461AB10124124D2C60B1
:103E700002E00024104D2C60002016E000240E4DBE
:103E800034352C6001F080041CB101242D1D2C6000
:103E900003E00024084D38352C600124064D3435EC
:103EA0002C604C06210E441CE0B20828E6DB0124FD
:103EB000014D2C6030BD0000800122422DE9FF4FF2
:103EC00081B0884614461D46DDE90E790094A5F1BF
:103ED0002000C5B2002641E00C2F07D105EB4500BC
:103EE000214901EB800010F806A004E01F4800EB18
:103EF000051010F806A04FF0000B29E00AF0800032
:103F000030B14B4622464146019800F031F80BE0B3
:103F1000B9F1000F01D1012000E000200346224644
:103F20004146019800F024F84FEA4A604FEA106ACF
:103F3000601CC4B20098201AB84205D1009C08F158
:103F4000010000F0FF0806E00BF1010000F0FF0B9C
:103F5000BBF1080FD2DB00BF701CC6B2BE42BBDB98
:103F600005B0BDE8F08F00004E6D0008C27100087A
:103F7000F0B51D4600277F2901DC3F2A00DDF0BD9A
:103F800014464FEAE27C02EB5C7C4FEAEC0CCCF18D
:103F9000070C0CF0FF034FEAE27C02EB5C7C4FEA7B
:103FA000EC0CA2EBCC0C0CF0FF06C6F1070C0124C4
:103FB00004FA0CF4E7B245B100EBC104E45C3C4305
:103FC00000EBC10C0CF8034007E000EBC104E45C1B
:103FD000BC4300EBC10C0CF8034000BFCFE72DE958
:103FE000FF4F83B082460E469946DDE910740020EB
:103FF000029000253AE0781B401EC1B20A20FEF76D
:10400000E1FEB9FBF0F00A21B0FBF1F201FB12086E
:104010000298B8B9781EA84214DDB8F1000F0FD18C
:104020000120A346CDE9004004EBDB70401000FB0B
:104030000560C1B220235046059AFFF73FFF13E009
:10404000012002900120A346CDE9004004EBDB7083
:10405000401000FB0560C1B208F13000C3B2504609
:10406000059AFFF72BFF00BF681CC5B2BD42C2DB3B
:1040700007B0BDE8F08FFCB507460D4616461C4656
:104080001BE07A2D03DD002506F11000C6B23A2EA2
:1040900005DD0020054606463846FFF79BFE012059
:1040A0000C21CDE900102378324629463846FFF727
:1040B00005FF05F10800C5B2641C20780028E0D196
:1040C000FCBD70B5064600241FE004F1B000C1B28B
:1040D00000223046FFF7C6FE002211463046FFF7A9
:1040E000C1FE002210213046FFF7BCFE002508E08B
:1040F00006EBC500015D01223046FFF7B3FE681CE8
:10410000C5B2802DF4DB601CC4B2082CDDDB70BDB1
:1041100070B506460C4615463046FFF75BFE234653
:10412000052200213046FFF7A6FF08A30522322111
:104130003046FFF7A0FF2B46142205213046FFF73B
:104140009AFF3046FFF7BDFF70BD0000496E666FF5
:104150003A00000010B504460120FEF7E5F8002003
:10416000FEF774F90020FDF761FE0020FEF7DCF891
:10417000002045490860642001F07CFA0120434991
:10418000C1F8BC010022AE212046FFF76BFE0022E1
:10419000D5212046FFF766FE002250212046FFF77A
:1041A00061FE0022A8212046FFF75CFE00223F218D
:1041B0002046FFF757FE0022D3212046FFF752FE8C
:1041C000002211462046FFF74DFE002240212046E6
:1041D000FFF748FE00228D212046FFF743FE002214
:1041E00014212046FFF73EFE002220212046FFF743
:1041F00039FE002202212046FFF734FE0022A121D1
:104200002046FFF72FFE0022C0212046FFF72AFE9E
:104210000022DA212046FFF725FE00221221204647
:10422000FFF720FE002281212046FFF71BFE00221F
:10423000EF212046FFF716FE0022D9212046FFF786
:1042400011FE0022F1212046FFF70CFE0022DB21A7
:104250002046FFF707FE002230212046FFF702FE2E
:104260000022A4212046FFF7FDFD0022A6212046C2
:10427000FFF7F8FD0022AF212046FFF7F3FD2046AF
:10428000FFF7A8FD10BD0000BC0122420000224241
:1042900070B504460D46C4F80054012084F80504A6
:1042A0000C48007878B1FEF773FDFEF75BFD0A223B
:1042B00001212046FFF7C8FD2046FFF74BFF0020F5
:1042C0000449087004E004A20AA12046FFF796FD05
:1042D000204670BD4C000020636C617373206861E0
:1042E00073206265656E207265646566696E6564DB
:1042F00000000000434465627567000010B511F5C9
:10430000E15F01DA1D4904E0B1F5E15F01DD4FF441
:10431000E15112F5E15F01DA184A04E0B2F5E15F1C
:1043200001DD4FF4E152002908DD4FF4E153144C54
:104330002380C1F5E153241F238008E04FF4E153AB
:104340000F4C241F238001F5E153241D2380002AF4
:1043500009DD4FF4E1530A4C241D2380C2F5E153DB
:10436000241D238008E04FF4E153054C08342380DA
:1043700002F5E153241F238010BD0000E0E3FFFF9E
:10438000383401402DE9F04180460C46074920466B
:1043900002F0E0FA0746064902F0D9FB064602F0B1
:1043A0006DFA85B203480580BDE8F081666672410A
:1043B00000C0BC44342C014070B504460D46256055
:1043C0000F480078A0B1002141F61F40FEF706FD1E
:1043D000472142F20F70FEF765FD012001F04AF916
:1043E00000212046FFF7CEFF00200549087004E0B9
:1043F00004A20BA12068FFF701FD204670BD00005C
:104400002C000020636C6173732068617320626507
:10441000656E207265646566696E65640000000003
:104420004D6F746F720000000146014800787047BC
:104430003C0000200022034B1A70034B0CCBC0E958
:10444000002370473C0000203400002070B5064671
:104450000C4615460BE014F8011B0B48FEF762FCF6
:1044600000BF80210848FEF794FB0028F9D0281EE1
:10447000A5F101018DB2EED100BF40210248FEF747
:1044800088FB0028F9D070BD003801402DE9F041CB
:1044900007460C4625462C260BE015F8011B0C4858
:1044A000FEF740FC00BF80210948FEF772FB0028A0
:1044B000F9D0301EA6F101018EB2EED100BF40212D
:1044C0000348FEF766FB0028F9D0BDE8F081000044
:1044D0000038014030B587B004460D4625602E48AF
:1044E0000078002850D0012144F20400FDF734FF89
:1044F0004FF40070ADF8180003208DF81A00182052
:104500008DF81B0006A92548FDF799FC4FF4806043
:10451000ADF8180004208DF81B0006A91F48FDF710
:104520008EFC4FF4A060FDF7F5FE25208DF8040009
:1045300000208DF8050001208DF806008DF8070099
:1045400001A8FDF7AFFE4FF4E13002900020ADF876
:104550000C00ADF80E00ADF81000ADF814000C2002
:10456000ADF8120002A90E48FEF770FB012240F2DE
:1045700025510B48FEF744FB01210948FEF7FDFADF
:1045800000200549087004E006A20DA12068FFF78D
:1045900035FC204607B030BD3D000020000801403A
:1045A00000380140636C6173732068617320626539
:1045B000656E207265646566696E65640000000062
:1045C000757361727400000070B506460C46A4F164
:1045D0008000002800D401E0C4F18000032808DD39
:1045E000A4F1800002F06AF90546034902F068F878
:1045F00070BD0020FCE700006666AE4070B5064660
:104600000C46A4F18000002800D401E0C4F1800031
:10461000022809DDC4F17F01480002F04FF9054688
:10462000024902F04DF870BD0020FCE70000404058
:104630000FB591B0FE49129802F058F902D2FC4829
:10464000129006E0FB49129802F050FA01D2F948A4
:104650001290F949139802F049F902D2F6481390E2
:1046600006E0F649139802F041FA01D2F34813909C
:10467000139801F08BFF4FF06632F14BCDE9080142
:1046800001F0B0FBCDE90A0101F06CFACDE90C01B3
:104690000020EC49DDE90C2301F084FD00224FF0FD
:1046A0008043CDE9000101F09DFB4FF00052E64B45
:1046B000CDE9020101F096FB0022E44BCDE90401B3
:1046C00001F0E0FACDE90801129801F05FFFCDE9B1
:1046D0000601DDE9082301F065FDCDE90A0101F0DD
:1046E000D9FC0F900020D749DDE90C2301F05AFDD9
:1046F00000224FF08043CDE9000101F073FB4FF041
:104700000052D14BCDE9020101F06CFB0022CF4BEE
:10471000CDE9040101F044FECDE90801129801F051
:1047200035FFCDE90601DDE9082301F03BFDCDE9C8
:104730000A0101F0AFFC0E900F98002816DA1198CC
:104740000068C3A30A2200210B90FFF794FC0C2001
:104750000521CDE90010119800680B900F98434295
:104760000A220F210B98FFF73AFC13E0119800681A
:10477000B8A30A2200210B90FFF77DFC0C20052135
:10478000CDE90010119800680B900A220F210F9BB1
:10479000FFF725FC0E98002816DA11980068ACA3E4
:1047A0000A2250210B90FFF766FC0C200521CDE971
:1047B0000010119800680B900E9843420A225F2166
:1047C0000B98FFF70CFC13E011980068A1A30A22D4
:1047D00050210B90FFF74FFC0C200521CDE9001074
:1047E000119800680B900A225F210E9BFFF7F7FBE0
:1047F0001798002870D00F9A1499119800F09AF920
:104800000F900E9A1699119800F0E8F90E901198F1
:1048100080680B90DDE90E21FFF770FD0F980028EE
:1048200016DA119800688AA3142200210B90FFF772
:1048300022FC0C200521CDE90010119800680B9096
:104840000F98434214220F210B98FFF7C8FB13E087
:10485000119800687FA3142200210B90FFF70BFC36
:104860000C200521CDE90010119800680B9014224E
:104870000F210F9BFFF7B3FB0E98002816DA119853
:10488000006873A3142250210B90FFF7F4FB0C2057
:104890000521CDE90010119800680B900E98434255
:1048A00014225F210B98FFF79AFB25E0119800680E
:1048B00068A3142250210B90FFF7DDFB0C2005218B
:1048C000CDE90010119800680B9014225F210E9B17
:1048D000FFF785FB10E0FFE764210E98484300B224
:1048E0000B900F98484300B20A9011988068099085
:1048F000DDE90A12FFF702FD119880680B90139909
:10490000FFF740FD1498002816DA1198006850A3AC
:104910001E2200210B90FFF7AEFB0C200521CDE9F4
:104920000010119800680B90149843421E220F212A
:104930000B98FFF754FB13E01198006845A31E2263
:1049400000210B90FFF797FB0C200521CDE900100B
:10495000119800680B901E220F21149BFFF73FFB5C
:104960001698002816DA1198006839A31E225021E3
:104970000B90FFF780FB0C200521CDE9001011986A
:1049800000680B90169843421E225F210B98FFF798
:1049900026FB13E0119800682EA31E2250210B90D5
:1049A000FFF769FB0C200521CDE900101198006884
:1049B0000B901E225F21169BFFF711FB11980068D8
:1049C00025A3282200210B90FFF755FB139801F037
:1049D000DDFD0022224BCDE9040101F0E3FB0022C2
:1049E000204BCDE9060101F0DBFCCDE9080101F027
:1049F00081FB0B900C200421CDE900101198006878
:104A00000A9028223C210B9BFFF7E9FA002112981B
:104A100001F06CFF38D2119800680DA332220021FA
:104A20000B90FFF728FB129880F000400A901BE0E3
:104A300000008CC200008C426666BAC16666BA414C
:104A400066A64C40295CCF3F5C8FD23F0000F03F10
:104A50002D0000002B000000536572766F3A0000B5
:104A6000000024400098974001F008FF0B900C20B4
:104A70000521CDE90010119800680A9032220F211B
:104A80000B9BFFF7ACFA18E011980068AFF23C03FB
:104A9000322200210B90FFF7EEFA129801F0EEFEA1
:104AA0000B900C200521CDE90010119800680A90A8
:104AB00032220F210B9BFFF792FA0021139801F08D
:104AC00015FF1CD211980068AFF27C0332225021EE
:104AD0000B90FFF7D0FA139880F000400A9001F095
:104AE000CDFE0B900C200521CDE900101198006837
:104AF0000A9032225F210B9BFFF771FA18E01198A0
:104B00000068AFF2B003322250210B90FFF7B3FAE6
:104B1000139801F0B3FE0B900C200521CDE9001095
:104B2000119800680A9032225F210B9BFFF757FA19
:104B300015B000BD2DE9FC5F05460C461646371B37
:104B4000384601F0BBFE0090296901F003FF824660
:104B50001F490968781A01F0B1FE0090E96801F078
:104B6000F9FE8346514601F03DFD81461948006833
:104B700001F0A4FE4946019001F034FD804601F0A9
:104B800061FE144908600846006810F5E15F02DA2A
:104B90001148086008E00F480068B0F5E15F03DDE8
:104BA0004FF4E1500B49086009480760002C01DB15
:104BB000204600E06042032805DA26B900200549B6
:104BC0000860034908600348008800B2BDE8FC9F04
:104BD0005800002054000020E0E3FFFF2DE9F84FCB
:104BE00005460C461646301B2749086008460068F3
:104BF00001F064FE8346296901F0ACFE814622493A
:104C00000968224A1268881A01F058FE8346E9684A
:104C100001F0A0FE8246494601F0E4FC80461C48B3
:104C2000006801F04BFE4146009001F0DBFC0746B6
:104C300001F008FE164908600846006810F5E15FBB
:104C400002DA1448086008E011480068B0F5E15F36
:104C500003DD4FF4E1500E4908600B4800680B4932
:104C60000860002C01DB204600E06042032805DAE2
:104C700026B90020064908600449086004480088F5
:104C800000B2BDE8F88F00005C0000206400002046
:104C900060000020E0E3FFFF2DE9FC5F8A464FF053
:104CA0007C500190274800902748006826490860FA
:104CB000009801F06BFC044624480CC8204600F024
:104CC000E1FF224A03C2019801F060FC80461F48C0
:104CD0000CC8404600F0D6FF064632460B461B493C
:104CE00003C901F07FF8044600F09AFF8346164896
:104CF000006801F0E3FD8046514601F028FF0646BA
:104D0000594601F027FE05460F48006801F0D6FD20
:104D10000746294601F066FC044601F093FD0A4966
:104D2000086059464FF07E5001F01CFF044601F028
:104D30002DFC064A03C20448006801F0BFFDBDE82F
:104D4000FC9F0000CDCCCC3D68000020700000200E
:104D50002DE9FC5F8A464FF07C5001902748009077
:104D60002748006826490860009801F00FFC0446B7
:104D700024480CC8204600F085FF224A03C201984F
:104D800001F004FC80461F480CC8404600F07AFF42
:104D9000064632460B461B4903C901F023F8044678
:104DA00000F03EFF83461648006801F087FD80460C
:104DB000514601F0CCFE0646594601F0CBFD0546B2
:104DC0000F48006801F07AFD0746294601F00AFC09
:104DD000044601F037FD0A49086059464FF07E50FD
:104DE00001F0C0FE044601F0D1FB064A03C20448AC
:104DF000006801F063FDBDE8FC9F0000CDCCCC3D18
:104E00007800002080000020F8B504460D461646C4
:104E10001F4625606660A7600F48E06020610F486C
:104E2000007890B101210820FDF796FA4FF48040F8
:104E3000ADF8000048208DF8030069460848FCF7EB
:104E4000FEFF00200549087004E006A20CA12068BE
:104E5000FEF7D4FF2046F8BD000078425000002045
:104E6000000C0140436C61737320686173206265BC
:104E7000656E207265646566696E65640000000099
:104E8000436F6E74726F6C0002464FF08040808CEE
:104E900000B200EB400303EBC000112390FBF3F1E1
:104EA00000209B0798844842704700000146074A4B
:104EB000128812B202EB420303EBC202112392FBEF
:104EC000F3F00022014B1A807047000024040040D8
:104ED00070B504460D4625600848007838B1FEF7E5
:104EE0004BF8FEF7B3F800200449087004E004A270
:104EF0000AA12068FEF782FF204670BD290000202D
:104F0000636C61737320686173206265656E2072E3
:104F100065646566696E656400000000456E636FD8
:104F200064657200490050EAC12018BF04204A0D90
:104F300018BF40F0010040F2FF72B2EB515F08BFB2
:104F400040F00200012808BF052070472DE9F74F07
:104F5000144694B00021C4E902111599079121F07B
:104F60000045C9498D4206DC1599C4E9000117B016
:104F70000020BDE8F08FC549DFF814A3A9423CDD4D
:104F80000799C44E0029C44FC44A1599534619DDE8
:104F900001F012FA554506D0C14AC24B01F00CFA95
:104FA000C4E900010AE04FF0D352BE4B01F004FA0D
:104FB00032463B4601F000FAC4E9000117B0012077
:104FC000BDE8F08F00F05EFE554506D0B44AB54B03
:104FD00000F058FEC4E900010AE04FF0D352B14B93
:104FE00000F050FE32463B4600F04CFEC4E90001A2
:104FF00017B04FF0FF30BDE8F08FAB49A9421599CB
:1050000078DB21F0004183468846A84AA84B01F08E
:10501000C9F80022A74B00F035FE01F03BF80990DB
:1050200001F095F806460F469C4A534601F0BAF83F
:1050300043465A4601F0B4F980468A46984A994B4D
:105040003046394601F0AEF82A0D01250B92424652
:10505000534601F0A5F9032DC4E9000139D00B989E
:10506000C1F30A51401A05EB45111139814230DA7A
:105070009148C346784400EB0510CDF80CA00C9085
:10508000D0E900233046394601F08CF802460B4641
:10509000049106905846039901F08EF980468A469D
:1050A00002460B465846039901F086F9049B069A7E
:1050B00001F082F983460C9803913946D0E9022326
:1050C000304601F06FF85A46039B01F075F96D1CEC
:1050D000BDE707980028A2BF099817B0BDE8F08F78
:1050E000616881F000416160099817B04042BDE8F5
:1050F000F08FFFE784461598C1F31301C0F30A50FF
:10510000A0F2F5304FEA601800F01F06C6F120004B
:10511000139000200690079041F4801E05206D46F4
:1051200076B1664A08EB00017A4452F8213002EB6E
:105130008101B3404A68139922FA01F1194305E04D
:105140005F4908EB0002794451F82210A1FB0E27B9
:10515000A1FB0C131A449A4234BF0123002303EB32
:10516000070A05EB8003D3E901B70F448F4234BF30
:105170000121002193448B4411B1934502D903E0EE
:10518000934501D2012100E00021C3E901B7514458
:1051900045F82010011EA0F10100C1DC0298059F16
:1051A00000F10050800F12900298DDE90356800054
:1051B00000F0CDFF834628460D9100F0DFFF6FF031
:1051C0001D0201F07AFDCDE90E01304600F0D6FF58
:1051D0006FF03D0201F071FD80468A46384600F0CE
:1051E000CDFF6FF05D0201F068FD07464246534671
:1051F000119100F047FDDDE90E2300F043FD5A4612
:105200000D9B00F03FFD00250E465A4628460D9B9B
:1052100001F0D2F8DDE90E2301F0CEF84246534604
:1052200001F0CAF83A46119B01F0BAF8DFF898A0ED
:10523000244A534600F0B6FF07468846234A244BCB
:105240003146284600F0AEFF3A46434600F01AFDCC
:10525000074688464FF0A84253463146284600F09C
:10526000A1FF3A46434600F00DFD159A12F0004F9B
:1052700004D0129A81F0004152421292C4E9000116
:10528000129817B0BDE8F08FFB21E93F7CD90240AE
:10529000FB21F93F7370032E8A19A33B0000405491
:1052A0003163621A61B4D03DFB21394183C8C96DB5
:1052B000305FE43F0000E03F80270000FC26000054
:1052C000DE260000182D4454FB21F93D3326A6119B
:1052D000460B113C2DE9F0414F1E00EBC70104467F
:1052E000D1E9000115461E4637F006020DD02A46C8
:1052F000334600F057FF7F1E04EBC703D3E90023BA
:1053000000F0C0FC37F00602F1D1022F25D0042FA7
:1053100013D0062F18BFBDE8F0812A46334600F0AF
:1053200041FFD4E90A2300F0ADFC2A46334600F0E1
:1053300039FFD4E9082300F0A5FC2A46334600F0E3
:1053400031FFD4E9062300F09DFC2A46334600F0E5
:1053500029FFD4E9042300F095FC2A46334600F0E7
:1053600021FFD4E9022300F08DFC2A46334600F0E9
:1053700019FFD4E90023BDE8F04100F083BC000030
:105380002DE9F04D04468CB0904821F000471646B8
:1053900098460D460991874206DA2046294600F0D4
:1053A00079FE002800F0AE808948B8421CDC0998DC
:1053B0000028BCBF85F0004588F00048854A864B30
:1053C0002046294600F0ECFF04460D46324643468F
:1053D0008248834900F0F0FF22462B4600F052FC41
:1053E000002604460D46B04622462B461046194676
:1053F00000F0D8FE8B46824602460B4600F0D2FEF5
:105400000246089077480B46009106217844FFF742
:1054100061FFCDE90310744806217844009B089A87
:10542000FFF758FF52465B4600F0BCFECDE9051081
:1054300052465B462046294600F0B4FE0791009094
:10544000DDE90310DDE9053200F01CFC079B009A42
:1054500000F0A8FE3246434600F014FC52465B467C
:1054600000F0A0FE3246434600F00CFC80460E469B
:105470005E4A5F4B0799009800F094FE424633461F
:1054800000F000FC82468B4622462B4600F0FAFBD9
:1054900080464F480E46B84214985BDC00F057FE39
:1054A000074642463346059100F0ECFBCDE901107A
:1054B000424633461046194600F074FEDDE90132DB
:1054C00000F090FC52465B4600F076FF22462B46E9
:1054D00000F066FF012201F0F0FB3A46059B00F068
:1054E0005FFF04460D460998022101EAA070C0F151
:1054F000010000F02CFE0CB022462B46BDE8F04D1A
:1055000000F050BE1498401C384320430BD0149830
:10551000012812D00CB022462B46BDE8F04D0020E9
:10552000344900F05FBC0CB025F000432246BDE8D2
:10553000F04D0020304900F055BC20462946FFF7C9
:10554000F1FC042808BF00F063F820460CB029469F
:10555000BDE8F08D012802BF40460CB0BDE8F08DDB
:1055600000270B463A462046294600F019FF5246CE
:105570005B4600F015FF04460D46424633460020C8
:105580001C4900F02FFC83463A46884633461046B5
:1055900000F008FE0022184B00F074FB06468A4615
:1055A00022462B463846414600F0FCFD3246534623
:1055B00000F068FB5A46434600F0F4FD0CB03A4652
:1055C0004346BDE8F04D00F05DBB00000000303EFA
:1055D0002894E53F182D4454FB21E93F075C143320
:1055E00026A6813CB0240000D22400006355555506
:1055F0005555D53F0000F0BF0000F03F012201F0FB
:105600005CBB002213461046114600F0EBBB0000C5
:10561000024A0020110701F050BB000001FDFFFF0E
:1056200030380A2801D2012070470020704700005E
:1056300010B56FF00400FCF724FF0A4800680A491F
:10564000B0FBF1F0094908700846007800EB400112
:10565000C1EBC0104FF6FF7101EAC0000449088099
:1056600010BD00000000002000127A004800002059
:105670004A0000200146114A12884A434FF0E023B5
:105680005A6100229A611A46126942F001021A61B7
:1056900000BF4FF0E022106900F001021AB100F4DF
:1056A0008032002AF5D04FF0E022126922F0010288
:1056B0004FF0E0231A6100229A6170474A000020EF
:1056C0000146114A12784A434FF0E0235A61002202
:1056D0009A611A46126942F001021A6100BF4FF046
:1056E000E022106900F001021AB100F48032002AB1
:1056F000F5D04FF0E022126922F001024FF0E023D2
:105700001A6100229A61704748000020ADF5986D3B
:10571000FDF70EFB0DF2BC40FEF7A8F80DF2BC4100
:105720002DA8FEF7B5FD2DA92CA8FFF7D1FB2DA9BB
:105730002AA8FEF721FB2DA926A8FEF7ABFA2DA972
:1057400025A8FEF739FE2DA924A8FEF7C3FE2DA932
:1057500015A8FEF703F825AB2CAA2DA910A8FFF772
:1057600053FB00200E900F902C2103A8FAF7EAFDBE
:105770000124002002900026E9A2ECA12DA8FEF74A
:10578000C7FCCCE1002211462AA8FEF7ADFA0DF2C3
:10579000BC40FEF755F828B94FF4807126A8FEF7F3
:1057A000D7F960B19DF8B904022801DB012002E0BD
:1057B0009DF8B904401CC0B28DF8B9040124202121
:1057C00026A8FEF7C5F940B102208DF8B9040124DE
:1057D0000A2200212DA8FEF737FB802126A8FEF71C
:1057E000B7F940B101208DF8B90401240A22012142
:1057F0002DA8FEF729FB102126A8FEF7A9F908B16C
:1058000001200290402126A8FEF7A2F908B100204D
:1058100002904FF4805126A8FEF79AF900B10126B4
:105820004FF4804126A8FEF793F900B100269DF8B9
:10583000B90401287ED1204604EBD0714910A4EBB5
:105840004101002970D126A8FEF744F85EB12CA8CA
:10585000FFF71AFB019001F031F88346594610A872
:10586000FFF71AFA05E02CA8FFF70EFB834601F0BC
:1058700025F8824600F0E6FF07465EB12CA8FFF748
:1058800015FB019001F01AF88346594610A8FFF75E
:105890005FFA05E02CA8FFF709FB834601F00EF83C
:1058A000824600F0CFFF0546082126A8FEF7AEF895
:1058B0008246514610A8FEF7A1FE8046052126A883
:1058C000FEF7A4F88246514610A8FEF77DFE8146F9
:1058D000022126A8FEF75AF908B1DFF858820821FC
:1058E00026A8FEF753F908B1DFF84C82012126A85B
:1058F000FEF74CF908B1DFF84482042126A8FEF730
:1059000045F908B1DFF8388202983B464A464146DD
:10591000CDE9005010A8FEF78BFE0C9838440C908F
:105920000D9828440D9000BF012C01D0052C11D1F9
:1059300015A800E059E0FDF793FE8046002006E040
:1059400058F8201003AA42F82010411CC8B20928B8
:10595000F6DB00BF052094FBF0F100FB11400228AC
:1059600010D10322774924A8FEF770FD03A924A8CB
:10597000FEF78CFD0322744924A8FEF767FD002082
:105980000C900D90032C2FD170A3002211462DA84E
:10599000FEF771FB082126A8FEF738F880460C2098
:1059A000052143460022CDE900100F212DA8FEF766
:1059B00016FB67A3002250212DA8FEF75CFB0521F2
:1059C00026A8FEF723F880460C2004214346002237
:1059D000CDE900105F212DA8FEF701FB2DA8FEF7F1
:1059E00070FB2DA8FEF7F6F98EE09DF8B9040228A9
:1059F000FAD124A8FEF718FD18B124A90EA8FEF7C5
:105A000019FD092C02D126A8FDF764FF204604EBFE
:105A1000D0714910A4EB4101E1BB5EB12CA8FFF7A6
:105A200033FA824600F04AFF8146494610A8FFF744
:105A300033F905E02CA8FFF727FA814600F03EFF76
:105A4000804600F0FFFE07465EB12CA8FFF72EFA55
:105A5000824600F033FF8146494610A8FFF778F9E7
:105A600005E02CA8FFF722FA814600F027FF8046C8
:105A700000F0E8FE05460120CDE900503B4610A8A5
:105A8000DDE90E12FEF7D4FD0C9838440C900D9809
:105A900028440D90032C0BD12EA3002211462DA8D3
:105AA000FEF7E9FA2DA8FEF70CFB2DA8FEF792F9F8
:105AB000012C01D0052C0FD115A8FDF7D1FD804692
:105AC000002006E058F8201003AA42F82010411CDC
:105AD000C8B20928F6DB00BF052094FBF0F100FBFB
