:020000040800F2
:10000000C006002081020008A1220008E51F0008A8
:100010009D220008391E0008C92F000800000000BA
:100020000000000000000000000000008124000823
:100030003D1E00080000000035230008952500083B
:100040009B0200089B0200089B0200089B0200081C
:100050009B0200089B0200089B0200089B0200080C
:100060009B0200089B0200089B0200089B020008FC
:100070009B0200089B0200089B0200089B020008EC
:100080009B0200089B0200089B0200089B020008DC
:100090009B0200089B0200089B0200089B020008CC
:1000A0009B0200089B0200089B0200089B020008BC
:1000B0009B0200089B0200089B0200089B020008AC
:1000C0009B0200089B0200089B0200089B0200089C
:1000D0009B0200086D2D00089B0200089B0200088F
:1000E0009B0200089B0200089B0200089B0200087C
:1000F0009B0200089B0200089B0200089B0200086C
:100100009B0200089B0200089B0200089B0200085B
:100110009B0200089B0200089B0200089B0200084B
:100120009B0200089B0200089B0200089B0200083B
:1001300000F002F800F094F80AA090E8000C824465
:100140008344AAF10107DA4501D100F089F8AFF242
:10015000090EBAE80F0013F0010F18BFFB1A43F0A5
:10016000010318470073000020730000103A24BFF9
:1001700078C878C1FAD8520724BF30C830C144BF0C
:1001800004680C607047000000230024002500264E
:10019000103A28BF78C1FBD8520728BF30C148BFEA
:1001A0000B6070476E2900F03582702900F059838A
:1001B000662906F08482652906F08182672906F0A7
:1001C0007E82612906F07D8203681B0A28BF41F008
:1001D0008001692900F0E281642900F0DF8175293E
:1001E00000F0DC816F2900F0E682782900F0258399
:1001F000E92900F08182E42900F07E82F52900F0EF
:100200007B82EF2900F0E382F82900F02483036861
:10021000DB0928BF41F08001632901F07480732954
:1002200001F07980E32901F08480F32901F08980CD
:10023000002070471FB59DE8030000F0C9F801F0E9
:10024000D9F804000020002105F03EFA401C60604F
:100250000020002105F022FAE0601FBD10B510BD9E
:1002600001F09AF81146FFF7E5FF05F0B9F801F043
:1002700077F903B4FFF7F2FF03BC01F0A7F9000020
:100280000948804709480047FEE7FEE7FEE7FEE72A
:10029000FEE7FEE7FEE7FEE7FEE7FEE70448054966
:1002A000054A064B704700009925000831010008F7
:1002B000C0000020C0060020C0020020C0020020B4
:1002C00070B50446051F00F067F80068002C14BFE5
:1002D000446870BD002C18BFAC423CBF2046646827
:1002E000F8D301680A18AA4218BF456003D12A68EA
:1002F00005461144016028684119A1421CBF6C6089
:1003000070BD6168696021680844286070BD0FB4E1
:10031000002170B50546084606AB059A1E4600F05A
:10032000C1F80446401C00F082F8286038B1059AF4
:100330003346611C00F0B6F870BC5DF814FB4FF05A
:10034000FF30F9E74FF0000200B513469446964699
:10035000203922BFA0E80C50A0E80C50B1F12001D8
:10036000BFF4F7AF090728BFA0E80C5048BF0CC086
:100370005DF804EB890028BF40F8042B08BF7047E4
:1003800048BF20F8022B11F0804F18BF00F8012B56
:1003900070477047704770470048704768000020FA
:1003A000704770477047704738B504460A460020CA
:1003B0006946AFF30080002808BF38BD02460099A7
:1003C000204600F02CFB012038BD012000F0DDBFED
:1003D000F8B5AFF30080054600200C46102000BFA2
:1003E0000646A819A0420DD9324669460020AFF34F
:1003F0000080070008BF00F0C8FF0098A04218BFA7
:100400000546C419FFF7C8FF05600746F01D20F038
:1004100007004619284600F0FBFAB44208BFF8BDB1
:10042000A21B31463868BDE8F84000F0F8BA70B554
:100430000646FFF7B1FF056806F10B0020F0070440
:10044000B4429CBF002070BD2B466A68BAB11068E8
:10045000A04210D304F1080188423CBF50685860A4
:1004600007D35168101941601168091B0160586079
:100470001460101D70BD13465268002AE7D1214652
:100480002846FFF791FF0028DED170BD10B500F0BF
:10049000BBFA006810BD10B5044600F0B5FA046060
:1004A00010BD00007CB51D4616460C00009001D022
:1004B0002044401E074B7B442A4669460190304643
:1004C00000F0F7FE05461CB10020694600F004FF6D
:1004D00028467CBD290E000070B504468569006879
:1004E000C10601D5302600E02026C00707D070BD28
:1004F000D4E9012130469047206A401C20626D1EDD
:10050000F6D570BD70B5044685690078C00707D17F
:1005100070BDD4E9012120209047206A401C206250
:100520006D1EF6D570BD09684A0501D540B2704709
:10053000C905FCD500B2704709684A0501D5C0B2AB
:100540007047C905FCD580B2704770B50C460546AA
:10055000012A05D02878800600D5EA69002302E048
:10056000012305E05B1C934202D2E05C0028F9D134
:10057000A869E618C01AA861286A184428622846A3
:10058000FFF7AAFF04E0D5E9012114F8010B904719
:10059000B442F8D32846FFF7B5FF70BD2DE9F0410E
:1005A0000646002410687529314616A510D0FFF7BD
:1005B000BAFF002802DA404213A507E031688A0733
:1005C00001D512A502E0490704D511A5012401E0D7
:1005D000FFF7B2FF00210A2206F1240709E0B0FB71
:1005E000F2FCB0FBF2F302FB1C00303078541846EA
:1005F000491C0028F3D123462A463046BDE8F04185
:1006000000F06CBA000000002D0000002B0000007C
:100610002000000011680268006A530501D50870C7
:100620000AE0D30501D5088006E0130603D5C217FA
:10063000C1E9000200E00860012070472DE9FF5F7A
:1006400015468A460446DFF8AC80F8440027D8E90E
:1006500000103E46CDE9001010E03AF816106A4648
:1006600002A800F072FE411C07D02178890603D54C
:10067000E269391891420DD80744761C207880062B
:1006800002D5E069B84205DDAE42E6DB3AF8160075
:100690000028E2D1A069C01BA0612046FFF71CFF23
:1006A000D8E90010CDE90010002017E03AF8181042
:1006B0006A4602A800F049FEB0F1FF3F81460BD028
:1006C00000250DF1080B05E0D4E901211BF8050018
:1006D00090476D1C4D45F7D308F10100B0428046AC
:1006E000E4DB206A384420622046FFF70BFFBDE8B8
:1006F000FF9F0000EE6B00002DE9F0418046D21D07
:1007000022F007020025D2E90002F52915A614D02F
:10071000011E72F1000106DA0023D0EB030063EB47
:10072000020211A608E0D8F800108B0701D50FA629
:1007300002E0490701D50EA601251146002408F163
:10074000240704E000F085F930323A55641C50EA81
:100750000102F7D12B46324621464046BDE8F04122
:1007600000F0BCB9000000002D0000002B000000CC
:100770002000000030B4002100F1240408E002F061
:100780000705D208303542EA4372DB086554491C3C
:1007900052EA0305F3D10468002310A2250707D508
:1007A000A40600D421B1C46901230DA2641EC46152
:1007B00030BC00F093B910B5044621461068FFF72D
:1007C000BBFE02462046BDE810400023D2E7D21D02
:1007D00022F00701D1E90023CCE70000000000006F
:1007E00030000000F0B40D460188090502D5214C07
:1007F0007C4402E01F4C7C440E34002100F12406AE
:1008000008E002F00F071209E75D42EA03721B09D4
:100810007754491C52EA0307F3D1027800231207E8
:1008200004D5702D06D009B1022311342246F0BC44
:1008300000F054B901231034F8E770B504460D46B2
:1008400021461068FFF778FE024629462046BDE89B
:1008500070400023C6E7D21D22F00703D3E900232E
:10086000C0E70368126843F0200303600823C361F4
:100870000023B7E7506A00002DE9F05F894604467F
:100880004FF0000ADFF874B1FB44C0F820A0204606
:10089000E1688847002874D0252806D0D4E90121D2
:1008A0009047206A401C2062F1E700265F46204600
:1008B000E16888472028054607DB312D05D27819E5
:1008C00010F8200C08B10643F1E7B00701D526F077
:1008D0000406C4F81CA00027C4F818A02A2D09D0CB
:1008E000284604F007FD38B304EB8708303DC8F80C
:1008F000185019E059F8041B204604EB8702916157
:10090000E1688847012F054618D1E069002820DA00
:1009100026F020061DE0D8F8180000EB800005EB5B
:1009200040003038C8F818002046E168884705467E
:1009300004F0E0FC0028EED1012F0AD02E2D08D1C2
:100940002046E16888477F1C0546022F46F02006B6
:10095000C4DBA069002803DA404246F00106A0612A
:10096000F00701D026F010066C2D0BD0682D09D0B1
:100970004C2D39D06A2D35D0742D35D07A2D33D009
:1009800016E038E0E1682F4620468847B842054621
:1009900009D16C2F26D04FF48060E16806432046D1
:1009A0008847054604E06C2F1AD04FF48070064348
:1009B0000DB3A5F14100192802D8203546F4006690
:1009C0004A462946204626604E46FFF7EBFB80B19B
:1009D00001280BD0F61D26F0070000F1080956E7A4
:1009E0004020E4E78020D8E70020D6E706F104099C
:1009F0004DE7284652E7206ABDE8F09FE069000015
:100A000000487047600000200048704760000020E8
:100A100000210160C0E901107047102070470346B3
:100A200040688C46002818BF88423CBF0346406897
:100A3000F8D318681844884207D00CF1030020F05E
:100A40000700001D411A521A0146081D0A60FFF7EF
:100A500037BC30B5B0F10A024FEA900E71F10003D5
:100A60004EEA817EB0EB0E0061EB91014FEA101E61
:100A70004EEA017E10EB0E0041EB11114FEA102EF1
:100A80004EEA016E10EB0E0041EB11214FEA104EC1
:100A90004EEA014E10EB0E0041EB1141401841F1BE
:100AA00000014FEAD00040EA41704FEAD10110EB5B
:100AB00080054FEA810444EA907444EB01046D1907
:100AC00044EB0404521BA3414FF0000348BF0A3219
:100AD00000D530BD401C41F1000130BD2DE9F0478B
:100AE0000D4699469246044600F12408016888069E
:100AF00004D5E06921F01001216000E00120A84246
:100B000001DD471B00E00027A1697A1902EB09000B
:100B1000081AA0612078C00602D42046FFF7DCFC4A
:100B2000002608E0D4E901211AF806009047206A5F
:100B3000401C761C20624E45F4DB2078C0060AD5A6
:100B40002046FFF7C9FC06E0D4E901213020904798
:100B5000206A401C2062381EA7F10107F4DC07E080
:100B6000D4E9012118F805009047206A401C206252
:100B7000281EA5F10105F3DC2046FFF7C3FC207811
:100B8000000602D50220BDE8F0870120FBE7704790
:100B90002DE9FF4F0C461E464FF0FF378BB0D2E9D0
:100BA0000001DDF860800A908A46C1F30A5505B954
:100BB0003D46002108464FF00000BAF1000F00F456
:100BC000400005DA00EB80004FF4400101EA5000DC
:100BD0004FEA9059B9F1010F00DDB9460A9850EA81
:100BE0004A000ED044F61050A5F2FF3545432F14AD
:100BF000B8F1000F1ED07542291E1EDDC9F100029A
:100C00001CE0B8F1010F4FF0000001D0302103E0EB
:100C1000F24305E02154401CB042FBDB3046002289
:100C2000002121540B99C1F80880C1E900200FB0C0
:100C3000BDE8F08FBD1B6D1CDEE74A4600DA694255
:100C400006A800F01BFC06AB93E8070003AB83E8A3
:100C5000070050460A9900F020FD8DE80700A0F536
:100C600000501F3800900398002D0ADD42F21F014A
:100C70004A460844002303A90390684600F089FF10
:100C800009E0A0F500504A461F38002303A903904D
:100C9000684600F093FF8DE807000004000C03D0C5
:100CA0004FF0FF30410800E01046B8F1000F03D0CC
:100CB0000022009215461EE0751E05D4FFF7C9FEFE
:100CC000303262556D1EF9D5B3460122084302D079
:100CD00000227F1C04E02078302801D100227F1EF2
:100CE000002A099784D01DE0112D07DAFFF7B1FE25
:100CF000303262556D1C50EA0102F5D1084302D032
:100D00000098C8B10EE00021681E05E0235C625C1B
:100D100063542254401E491C8142F7DBAB46A81B9A
:100D2000401E0990002004F80B000B98099AC0F8A7
:100D30000880C0E9002B7AE711264FF0000857E73A
:100D40002DE9F04F88460446D21D22F0070191B0EC
:100D5000D1E90001CDE90A0103F04EFF02460B98EC
:100D6000C00F01D02D2007E02068810701D52B207E
:100D700002E0202101EAC000032A099001D0072ADD
:100D800005DB03464146204600F038FB0BE12078A6
:100D9000800601D5E06900E00620B8F1650F8146C4
:100DA00006D0B8F1660F18D0B8F1670F70D131E0F6
:100DB0000020B9F1110F009001DB112301E009F1CE
:100DC00001030AAA01A90CA8FFF7E2FEDDE90C70F5
:100DD000002609F10105834647E001204B460090BB
:100DE0004FF000470AAA01A90CA8FFF7D1FEDDE9E0
:100DF0000DB00C995D46002610B909F101000D18DF
:100E0000B9EB050003D4C0F1FF3609F10105A5EBEC
:100E100009002BE0B9F1010F01DA4FF001090020C0
:100E2000B9F1110F0090484601DD112300E003469F
:100E30000AAA01A90CA8FFF7ABFEDDE90C704D462C
:100E400000268346207800070AD4AB4500DA5D46C9
:100E500001A8012D04DD411911F8011C302907D02A
:100E60004F4502DA17F1040F04DA012082460FE041
:100E70006D1EEEE7002F02DCED1B3E4403E0781C04
:100E8000A84200DD7D1CB81B00F1010A4FF00047AD
:100E90002078000703D4AA4501DB4FF0FF3A002178
:100EA000B7F1004F0DF143088DF8431024D0022014
:100EB0002B23002F01DA7F422D230A21021EA0F1ED
:100EC000010000DC5FB197FBF1FC97FBF1F201FB45
:100ED0001C7C17460CF1300C08F801CDEEE7A8F1A8
:100EE000010003702188090501D5452100E0652135
:100EF000A0F1010800F8011C09980FA9A1EB08074F
:100F0000FF1D00B10120411901EBEA70A1693844CD
:100F1000081A401EA0612078C00602D42046FFF7C0
:100F2000DBFA099828B1D4E901219047206A401CD6
:100F300020622078C00622D52046FFF7CDFA1EE0B9
:100F4000002E04DBB34502DD01A8805D00E0302007
:100F5000D4E901219047206A401C2062761CAAF146
:100F600001005FEA000A0AD100F044FAC068016893
:100F7000405CD4E901219047206A401C2062281E71
:100F8000A5F10105DCDC07E0D4E9012118F8010B2B
:100F90009047206A401C2062381EA7F10107F3DC4D
:100FA0002046FFF7AFFA032011B041E62DE9F04FDC
:100FB00004460D46D21D22F0070089B0D0E9009703
:100FC0004846394603F018FE0246F80F01D02D239B
:100FD00007E02068810701D52B2302E0202101EAE8
:100FE000C0038DF820300BB1012000E00020032A5F
:100FF000824601D0072A04DB2946204600F0FEF98C
:101000003FE12078800601D40D2500E0E569C7F3B3
:101010000A560D2D49DA00214FEA175B08464FF0BA
:101020000000002F00F4400007DA00EB80004FF4CE
:10103000400100EBD07001EA60008115012901DD5B
:101040004FF0FF3100224FEA850CBCF1180F06D398
:101050001346ACF118004FF08052C24003E04FF449
:10106000801323FA0CF30CF10C0CBCF1200F04D309
:10107000ACF1200C09FA0CF001E007FA0CF00029A1
:101080004FF0004801DD18B90FE00ED140450CD3F8
:1010900019EB02095F4121B9404502D19F4329EA7A
:1010A0000209BBEB175F00D0761C2088000502D533
:1010B0007B48784402E07A487844193808AA3023FB
:1010C00002F80A30037C0AF10101002E0AF1020A3B
:1010D00053546A4602DC4FF0300101E04FF0310119
:1010E0004FF001088DF8001002D0A6F2FF3603E0A1
:1010F00059EA470100D06B4E002D02DC2178090728
:1011000004D54FF002082E218DF80110C4460021AD
:101110000BE0C7F303433F01C35C491C6D1E02F89B
:101120000830052908F1010801DA002DF1DC002161
:101130000CE000EB1973491C1B786D1E082902F89E
:1011400008304FEA091908F1010801DA002DF0DC36
:1011500021688B0602D516E0A8F10108E04505DDFF
:1011600002EB080313F8013C302BF5D0B8F1000F67
:1011700009DD02EB080313F8013C2E2B03D109070C
:1011800001D4A8F10108002D05DD3E2102F8081068
:101190006D1E08F10108407C002E02F8080008F1DD
:1011A000010804DA2D20764202F8080002E02B2024
:1011B00002F808000A214FF47A70864208F101080B
:1011C0000BDB96FBF0F3303302F8083096FBF0F3BC
:1011D00008F1010800FB136601E0642E0CDB6420BB
:1011E00096FBF0F3303302F8083096FBF0F308F189
:1011F000010800FB136601E00A2E06DB96FBF1F006
:10120000303002F8080008F1010896FBF1F001FB0C
:101210001060303002F80800A16908F1010808EBFD
:10122000050202EB0A00081AA0612078C00602D469
:101230002046FFF751F9216A08AE01EB0A0020624F
:1012400004E0D4E9012116F8010B9047BAF1010A34
:10125000F7D22078C00602D52046FFF73DF96E464A
:1012600009E016F8010B3E280FD0D4E90121904780
:10127000206A401C2062B8F10108F2D22046FFF734
:1012800041F909B00320BDE8F08F206A28442062AC
:1012900003E0D4E90121302090476D1EEBD3F8E73D
:1012A0000563000002FCFFFF01694A1C0261087827
:1012B000704700B58FB0CDE9013100210591054996
:1012C0007944CDE9031011466846FFF7D5FA0FB00F
:1012D00000BD0000E5FFFFFF0A6802F8010B0A608D
:1012E0007047D1E900239A4202D2531C0B60107060
:1012F000704710B5436913B1AFF3008001E0FFF709
:1013000024F9012010BD127800F124010A70002296
:101310004A700122EDE711684FF0FF32E9E710B59E
:10132000436913B1AFF3008001E0FFF787F90120B3
:1013300010BD128800F1240182840022C28401229F
:10134000EDE711684FF0FF32E9E770B516460C463D
:10135000054600F047F8036893F80101012806D01C
:10136000FF2C0FD8185D68B101202C7070BDD3F828
:1013700007013246214603F2071303442846BDE81D
:10138000704018474FF0FF3070BD10B500F0F6F810
:10139000BDE8104000F0EDB87546FFF731FBAE46F2
:1013A00005006946534620F00700854618B020B571
:1013B000FEF774FFBDE820404FF000064FF0000735
:1013C0004FF000084FF0000B21F00701AC46ACE8ED
:1013D000C009ACE8C009ACE8C009ACE8C0098D465A
:1013E0007047000010B500F005F8001D10BD00BFEB
:1013F000D942000000487047800000202DE9F041EC
:101400001F46044603260168072A01F4006004DB36
:1014100008B116A505E016A503E008B115A500E082
:1014200015A521F010002060A069C01EA0610FB1B9
:10143000401EA0612046FFF74FF84FB1D4E90121CB
:1014400038469047206A401C2062C01C206206E09B
:10145000206AFAE7D4E9012115F8010B9047761EBE
:10146000F8D22046FFF74EF8BDE8F0814E414E001D
:101470006E616E00494E4600696E66002DE9F047C8
:10148000814616468AB0354878440DC88DE80D006F
:1014900032487844801C03AC0DC884E80D0041F646
:1014A0009B300844372190FBF1F290FBF1F5A5F158
:1014B000800501FB12041B3C02D56442012000E0C0
:1014C0000020DFF898A080460027FA44AAF1BE0A5F
:1014D0000EE0E0070AD03246684607EB47010123D9
:1014E0000AEB810100F06AFB8DE8070064107F1CA5
:1014F000002CEED1194F7F44AE3F19E0E80715D01C
:1015000007EB04100DF1180A90E80E008AE80E00AF
:10151000C068F04201D1981908903246012306A90B
:1015200003A800F04BFB03AB83E807006D10641CBD
:10153000002DE3D14FF0010332466946B8F1000FA8
:1015400003A802D000F025FB01E000F037FBC9E959
:101550000001C9F808200AB0BDE8F087C05F0000AC
:1015600010B50446AFF300802046BDE81040FEF7FA
:1015700080BE002801D000F029B8704710B50128BE
:1015800005D0002103A000F028F8012010BD09A11A
:10159000F8E7000053494752544D454D3A204F75E6
:1015A00074206F662068656170206D656D6F72795B
:1015B000000000003A2048656170206D656D6F7213
:1015C0007920636F72727570746564000149182028
:1015D000ABBEFEE726000200704770B505460C461C
:1015E0000A2000E06D1C00F051F835B12878002881
:1015F000F8D102E0641C00F049F814B1207800280A
:10160000F8D1BDE870400A2000F040B84FF0013C2E
:1016100050F8042B51F8043B9A4221D1A2EB0C0361
:10162000934313EACC1317D150F8042B51F8043B21
:101630009A4215D1A2EB0C03934313EACC130BD1BE
:1016400050F8042B51F8043B9A4209D1A2EB0C0349
:10165000934313EACC13DBD04FF00000704700BF78
:10166000D01A01BAB1FA81F101F0180122FA01F0A1
:10167000CB40C1F12001DBB2C0B2C01A2CFA01F399
:10168000D11A914311EAC311E6D1704708B56946F2
:101690008DF800000320ABBE08BD5FEA400C08BF18
:1016A00091F0000F4FEA8C234FEAC12243EA5151D7
:1016B0004FEA1C5018BF00F5F0404FEA300018BF49
:1016C00041F000415FEA6C5C00F02980BCF1FF3F13
:1016D00008BF40F080407047130C06BF12044FF063
:1016E000100C4FF0000C130E04BF12020CF1080C8A
:1016F000130F04BF12010CF1040C930F04BF9200EE
:101700000CF1020CD30F04BF52000CF1010C114676
:101710004FF00002A0F11F00A0EB0C00704711F089
:10172000004F08BF704731F000413FF4D5AF0B0CBC
:1017300006BF09044FF0100C4FF0000C0B0E04BF55
:1017400009020CF1080C0B0F04BF09010CF1040C89
:101750008B0F04BF89000CF1020CCB0F04BF4900B2
:101760000CF1010CCCF12003A0EB0C0022FA03F3E6
:1017700002FA0CF241EA030100F10100704720F087
:101780007F4C80EA030023F07F47ACEB070303F5AF
:101790007C5300F0004003F1FF032DE980494FEA3C
:1017A000154B09B44FEA144325EA0B4E24EA0348CB
:1017B0000FF2042606EB132749083E785FEA32024F
:1017C00003FB0667C7F5000707FB06F64FEA543729
:1017D0004FEAD64606F1020607FB066CCCF1005C28
:1017E0004FEA1C472CEA074C07FB06F40CFB06F5F6
:1017F00004EB15464FEA961634BF00204FF0004028
:101800004FEAD13706FB07FC4FEA1C4C0CFB0BF7E9
:10181000D21B03FB0CF761EB07010CFB0EF7B0EBDF
:10182000074072EB17420CFB08F734BFA2EB0742EC
:10183000B2EB074261EB17414FEA0C444FEA9107C4
:1018400006FB07FC4FEA1C4C0CFB0BF7B0EBC74048
:1018500072EB573203FB0CF734BFA2EBC742B2EB7B
:10186000C74261EB57310CFB0EF7B0EBC70072EBD0
:1018700057720CFB08F734BFA2EBC702B2EBC702EA
:1018800061EB5771039F4FEA816141EA921104EBCA
:10189000CC044FEAD1374FEA826206FB07FC42EAEA
:1018A00090124FEA80604FEA1C4C0CFB0BF7D21BE6
:1018B00003FB0CF761EB07010CFB0EF7B0EB0740E5
:1018C00072EB17420CFB08F734BFA2EB0742B2EBF6
:1018D000074261EB17414FEA8C554FEA910704EB41
:1018E0009C2406FB07FC4FEA1C4C0CFB0BF7B0EBEF
:1018F000C74072EB573203FB0CF734BFA2EBC74271
:10190000B2EBC74261EB57310CFB0EF7B0EBC700EF
:1019100072EB57720CFB08F734BFA2EBC702B2EBB5
:10192000C70261EB577115EB4C254FEA816141EA23
:1019300092114FEA82624FEAD13742EA901206FBD7
:1019400007FC44F100044FEA80604FEA1C4C0CFB9A
:101950000BF7D21B03FB0CF761EB07010CFB0EF737
:10196000B0EB074072EB17420CFB08F734BFA2EB59
:101970000742B2EB074261EB174115EB1C154FEA2A
:10198000813141EA92414FEA823242EA90424FEA83
:1019900080304FEA0C7644F1000448EA03434EEAF3
:1019A0000B484FF0000EB2EB080C71EB030724BF9D
:1019B000624639464EEB0E0E4FF0000B00185241B6
:1019C00049414BEB0B0BB2EB080C71EB03077BF1BE
:1019D000000B24BF624639464EEB0E0E4FF0000B53
:1019E0000018524149414BEB0B0BB2EB080C71EB69
:1019F00003077BF1000B24BF624639464EEB0E0E07
:101A000051EA020718BF46F0010616EB0E7655F1B3
:101A1000000254F1000103D5BDE88901BDE800884A
:101A2000BDE88901BDE80048B619524141EB01010A
:101A3000A3F10103704780807F7E7D7C7B7A79787B
:101A4000777676757473727171706F6E6E6D6C6C83
:101A50006B6A6A6968686766666564646363626125
:101A60006160605F5F5E5E5D5D5C5C5B5B5A5A59A6
:101A70005958585757565655555554545353525212
:101A80005251515050504F4F4F4E4E4D4D4D4C4C6A
:101A90004C4B4B4B4A4A4A494949484848474747B3
:101AA00047464646454545444444444343434342F0
:101AB000424242414141002B9C4630D477002BD01A
:101AC0001CB54FEA370703B44FF010004FF0100178
:101AD000BAF1000F06D0BCF1000FDCBF40F00800E7
:101AE00040F008014FF000000FBCBDE810400BF1C2
:101AF000010BBBF1010F08BF5FEA170722BF12F10C
:101B0000010211F101014FF0004143F1000300F027
:101B1000004043EA00007047F9D35708D0E746EA8F
:101B2000064613F1400F4FEA16461FDD13F1200F52
:101B3000DFBF16430A46002120335B42BED0C3F10B
:101B4000200746EA064602FA07F74FEA164646EA33
:101B50000706C3F1200722FA03F201FA07F721FA78
:101B600003F14FF0000342EA0702A7E746EA020644
:101B700046EA06464FEA164646EA0106BCBF46EA72
:101B80000646360C4FF000034FF000024FF0000104
:101B900094E72DE9804C9A46934670B491E838005A
:101BA00007C831EA400C48BF34EA430C03D5FFF7BD
:101BB000E6FDFFF780FFF0BCBDE8008C2DE9804C0E
:101BC0009A46934670B491E8380007C810F0804FE9
:101BD00008BF13F0804F03D100F005F8FFF76BFF4B
:101BE000F0BCBDE8008C20F07F4780EA030023F0C2
:101BF0007F4C07EB0C03A3F57C5300F00040A3F1EE
:101C0000FE0392F0000F00F0B38095F0000F00F09B
:101C100077802DE901494FEA11404FEA144621EA45
:101C2000004800FB06FC24EA064708FB06F607FB13
:101C300008F800FB07F718EB06484CEB164C4FEA88
:101C4000124B18EB07484FEA15464CEB174022EAB7
:101C50000B4E0BFB06FC25EA06470EFB06F607FBC0
:101C60000EFE0BFB07F71EEB064E4CEB164C4FF02F
:101C700000061EEB074E4CEB174B18EB0B0840F120
:101C8000000018EB0E0B58EB000840F100008F1A13
:101C90004FF000013CBFC943661B14BFB5EB040CF9
:101CA00000213CBFC943F61B4FEA17444EEA8E0E93
:101CB00027EA04454FEA1C4704FB07622CEA074C5D
:101CC00005FB07F70CFB05F604FB0CFC16EB0746BF
:101CD00042EB174216EB0C4642EB1C421BEB06068E
:101CE00058EB0202414146EA9E0601D5BDE8018952
:101CF000B619524141EB0101A3F10103BDE801898D
:101D00004FEA14454FEA114724EA054621EA074CF9
:101D100005FB07F406FB07F70CFB06F105FB0CFCC3
:101D200011EB074144EB17444FEA124711EB0C410A
:101D300044EB1C4422EA074C05FB07F206FB07F7BD
:101D40000CFB06F605FB0CFC16EB074642EB1742B4
:101D500016EB0C4642EB1C456A1854F1000148BFD3
:101D60007047B619524141EB0101A3F101037047DD
:101D700095F0000F37D04FEA11424FEA144721EA9D
:101D8000024624EA074C02FB07F106FB07F70CFBAF
:101D900006F402FB0CFC14EB074441EB17414FEA3D
:101DA000154714EB0C4441EB1C4125EA074C02FBA0
:101DB00007F506FB07F70CFB06F602FB0CFC16EB1F
:101DC000074645EB174516EB0C4645EB1C4212192E
:101DD00051F1000148BF7047B619524141EB010172
:101DE000A3F1010370474FEA14454FEA114724EA73
:101DF000054621EA074C05FB07F106FB07F70CFB3C
:101E000006F24FF0000605FB0CFC12EB074241EB1B
:101E1000174112EB0C4251EB1C4148BF704792181E
:101E200041EB0101A3F10103704700000149086083
:101E30007047000000860D4200BFFEE770472DE9A5
:101E4000F041024600250026002000230024002740
:101E500091F803C00CF00F0591F803C00CF0100CC2
:101E6000BCF1000F03D091F802C04CEA050591F8CF
:101E700000C0BCF1000F31D0146800202BE04FF0FF
:101E8000010C0CFA00F3B1F800C00CEA03069E4204
:101E900020D183004FF00F0C0CFA03F7BC4305FA76
:101EA00003FC4CEA040491F803C0BCF1280F06D1EE
:101EB0004FF0010C0CFA00FCC2F814C00AE091F8D3
:101EC00003C0BCF1480F05D14FF0010C0CFA00FC27
:101ED000C2F810C0401C0828D1D31460B1F800C06B
:101EE000BCF1FF0F34DD546800202EE000F1080C37
:101EF0004FF0010808FA0CF3B1F800C00CEA030631
:101F00009E4221D183004FF00F0C0CFA03F7BC4323
:101F100005FA03FC4CEA040491F803C0BCF1280F55
:101F200005D100F1080C08FA0CF8C2F8148091F8F9
:101F300003C0BCF1480F07D100F1080C4FF00108B5
:101F400008FA0CF8C2F81080401C0828CED3546060
:101F5000BDE8F081F0B50A460023002400210025E9
:101F600000F00046B6F1004F02D11D4EF16901E0CC
:101F70001B4E7168C0F3034583B200F44016B6F5FA
:101F8000401F08D121F07061154E766826F070660A
:101F9000134F7E6012E000F48016B6F5801F06D164
:101FA000032606FA05F4A14341F0706106E0460DF0
:101FB000360103FA06F6B14341F0706122B1460DD5
:101FC000360103FA06F6314300F00046B6F1004F41
:101FD00002D1034EF16101E0014E7160F0BD0000DD
:101FE0000000014000BFFEE710B500200F49086067
:101FF0000F48006820F470400D49086008460068EA
:1020000040F44050086000200A49C1F8AC010220A9
:1020100003F0C0F9012005490860022003F0BAF975
:1020200000200449C1F8A80110BD0000A881214288
:10203000040C01400080214208B50121082000F075
:102040008BF94FF44060ADF8000010208DF80300CC
:1020500002208DF8020069460448FFF7F0FE0120D7
:10206000034908600349C1F8AC0108BD000C0140F8
:10207000A88121420080214210B500200F4908604C
:102080000F48006820F470400D4908600846006859
:1020900040F44050086001200A49C1F8AC01022018
:1020A00003F078F9012005490860022003F072F975
:1020B00000200449C1F8A80110BD0000A8812142F8
:1020C000040C01400080214270B5054600241748E9
:1020D000006820F47040154908600846006840F424
:1020E00000400860002616E0002011490860022028
:1020F00003F050F901200F49C1F8A8016006040E51
:102100000B487C38006808B1601CC4B2012003F0A1
:1021100041F9701CC6B2082EE6DB15B9FFF7ACFF1B
:1021200001E0FFF761FF204670BD0000040C014094
:10213000A88121420080214270B5044615480068FC
:1021400020F47040134908600846006840F440508D
:102150000860002010490860002517E0E0090E49DA
:10216000091D08606006040E022003F013F9012027
:102170000A49C1F8A801022003F00CF90020064921
:102180000860022003F006F9681CC5B2082DE5DBE3
:1021900070BD0000040C0140A88121420080214252
:1021A00010B50F48006820F470400D4908600846DB
:1021B000006840F44050086001200A4908600A495C
:1021C000C1F8A801042003F0E5F8002005490860E3
:1021D000042003F0DFF800200349C1F8A80110BD76
:1021E000040C0140AC8121420080214210B50F480F
:1021F000006820F470400D4908600846006840F40B
:102200004050086000200A4908600A49C1F8AC0142
:10221000042003F0BFF8012005490860042003F002
:10222000B9F801200349C1F8AC0110BD040C01400C
:10223000A88121420080214210B500241448006882
:1022400020F47040124908600846006840F40040DD
:10225000086001200F49086003F09CF801200E4936
:10226000C1F8A80103F096F807E0601CC4B2FA2C8C
:1022700003DDFFF7BBFF012010BD06488038006872
:102280000028F2D10349091F086000BFF4E70000ED
:10229000040C0140AC8121420080214200BFFEE7D6
:1022A0007047000070B5002100230F22C47804B3EA
:1022B000154C246804F4E064C4F5E064210AC1F11B
:1022C0000403CA40447804FA03F18478144021439B
:1022D00009010E4C0678A155047804F01F0501246D
:1022E000AC4005786D11AD0005F1E025C5F8004161
:1022F00009E0047804F01F050124AC40044D067881
:10230000761145F8264070BD0CED00E000E400E0D9
:1023100080E100E002490143024A11607047000079
:102320000000FA050CED00E001490862704700006A
:1023300000000E427047000029B1064AD2690243EC
:10234000044BDA6104E0034AD2698243014BDA614B
:10235000704700000010024029B1064A926902430A
:10236000044B9A6104E0034A92698243014B9A61EB
:10237000704700000010024030B500210022002408
:1023800000232D4D6D6805F00C0121B1042905D005
:10239000082923D105E0294D056022E0274D05607D
:1023A0001FE0254D6D6805F47012234D6D6805F42E
:1023B0008034022505EB92421CB9214D554305603E
:1023C0000BE01D4D6D6805F400351DB11C4D5543E6
:1023D000056002E0194D5543056002E0174D0560A8
:1023E00000BF00BF144D6D6805F0F0010909154DDF
:1023F0006B5C0568DD4045600F4D6D6805F4E0617C
:10240000090A104D6B5C4568DD4085600A4D6D68BA
:1024100005F46051C90A0B4D6B5C4568DD40C56031
:10242000054D6D6805F44041890B074D6B5CC5682F
:10243000B5FBF3F5056130BD0010024000127A00D3
:1024400000093D00140000202400002000210B4A58
:1024500011700A4A203A82F82010012802D004287C
:1024600008D103E00121054A117004E00521034A67
:10247000117000E000BF00BF704700002010024054
:10248000704710B500F002F810BD00000CB5002038
:10249000019000903348006840F480303149086072
:1024A00000BF3048006800F4003000900198401CE4
:1024B0000190009818B90198B0F5A06FF1D12948A2
:1024C000006800F4003010B10120009001E000200D
:1024D00000900098012843D12348006840F0100084
:1024E000214908600846006820F00300086008469B
:1024F000006840F0020008601A48406819494860C6
:102500000846406848600846406840F4806048607B
:102510000846406820F47C1048600846406840F453
:10252000E81048600846006840F08070086000BF0E
:102530000C48006800F000700028F9D00948406895
:1025400020F00300074948600846406840F0020058
:10255000486000BF0348406800F00C000828F9D12B
:102560000CBD00000010024000200240042808D1E9
:102570004FF0E021096941F004014FF0E0221161C0
:1025800007E04FF0E021096921F004014FF0E0225B
:10259000116170477047000010B51348006840F0A3
:1025A00001001149086008464068104908400E497A
:1025B0004860084600680E4908400B490860084614
:1025C000006820F4802008600846406820F4FE007F
:1025D00048604FF41F008860FFF753FF4FF0006022
:1025E0000449086010BD0000001002400000FFF820
:1025F000FFFFF6FE08ED00E0F0B50C4615460022A0
:102600000021068C4FF6FE773E400684028B018C3B
:102610004FF60C7632407E1C06EA03162E433243F8
:10262000104EB0420ED0104EB0420BD0B0F1804FE1
:1026300008D00E4EB04205D00D4EB04202D00D4E25
:10264000B04206D14FF6FD76314044F001063143E9
:1026500005E04FF6F576314044F001063143028340
:102660000184F0BD002C0140003401400004004012
:1026700000080040000C0040F0B50C461546002252
:1026800000210026078C4FF6EF7C07EA0C07078431
:10269000028B018C4FF6FF7707EA041640F6FF47DE
:1026A0003A404FF6FF7707EA03373A434FF6FF7792
:1026B00007EA05273A43114FB8420ED0104FB842EF
:1026C0000BD0B0F1804F08D00E4FB84205D00E4F5E
:1026D000B84202D00D4FB84206D14FF6DF773940ED
:1026E00046F01007394305E04FF65F77394044F074
:1026F0001007394302830184F0BD0000002C014023
:10270000003401400004004000080040000C00407C
:10271000F0B50C461546002200210026078C4FF626
:10272000FF6C07EA0C070784828B018C4FF6FF775A
:1027300007EA04264FF60C773A404FF6FF7707EA90
:1027400003172F433A43114FB8420ED0104FB842EF
:102750000BD0B0F1804F08D00E4FB84205D00E4FCD
:10276000B84202D00D4FB84206D14FF6FF5739405C
:1027700046F48077394305E04FF2FF57394044F47F
:102780008077394382830184F0BD0000002C014032
:10279000003401400004004000080040000C0040EC
:1027A000F0B50C461546002200210026078C4EF697
:1027B000FF7C07EA0C070784828B018C4FF6FF77BA
:1027C00007EA043640F6FF473A404FF6FF7707EA3C
:1027D00005273A434FF6FF7707EA03373A43114F8D
:1027E000B8420ED0104FB8420BD0B0F1804F08D095
:1027F0000E4FB84205D00E4FB84202D00D4FB8422E
:1028000006D14DF6FF77394046F48057394305E04D
:1028100047F6FF57394044F4805739438283018497
:10282000F0BD0000002C01400034014000040040D5
:1028300000080040000C004021B1028842F08002F4
:10284000028004E002884FF67F731A4002807047CE
:10285000CA430282704721B1028842F0010202801D
:1028600004E002884FF6FE731A400280704731B1CF
:10287000B0F8442042F40042A0F8442005E0B0F84B
:102880004420C2F30E02A0F844207047F0B50C4675
:1028900015461E460021002200230189028B038C6D
:1028A0004FF6F877394021434FF6FC473A4040F263
:1028B00001173A434FF6DD773B404FF6FF7707EAC3
:1028C00006172F433B43018102830384F0BD0000C0
:1028D00070B505460C46244885420ED023488542F3
:1028E0000BD0B5F1804F08D02148854205D0214852
:1028F000854202D02048854200D100E000BF2088F8
:1029000050B92389A28861882846FFF775FEE188BF
:10291000284600F0A2F925E0208804280AD123895E
:10292000A28861882846FFF7A7FEE188284600F0C4
:102930009DF917E0208808280AD12389A288618898
:102940002846FFF7E5FEE188284600F09CF909E0FB
:102950002389A28861882846FFF722FFE18828465C
:1029600000F09AF970BD0000002C014000340140D5
:102970000004004000080040000C004000210180DD
:102980004180012181800021C180018170471AB1FD
:1029900083890B43838102E083898B438381704762
:1029A00070B5002400220023058C4FF6FE763540DA
:1029B0000584028C8388048B4FF68F752C40B51EDE
:1029C0002C400D882C43751E2A400D892A434D88C2
:1029D0002A43144DA8420BD0134DA84208D0134DE2
:1029E000A84205D0124DA84202D0124DA84213D1E0
:1029F0004FF6F7752A404D892A434FF6FB752A405A
:102A00008D882A434FF6FF652B404FF6FF552B402C
:102A10008D892B43CD892B4383800483CD88858684
:102A2000028470BD002C0140003401400040014090
:102A300000440140004801400A460021018B4FF646
:102A4000F7731940114301837047000070B50024EB
:102A500000220023058C4FF6EF7635400584028C6A
:102A60008388048B48F6FF752C404FF6FF452C40B9
:102A70000D884FF6FF7606EA05252C434FF6DF75E5
:102A80002A400D8906EA05152A434D8806EA0515F0
:102A90002A43154DA84202D0144DA8421DD14FF62D
:102AA0007F752A404D894FF6FF7606EA05152A43C1
:102AB0004FF6BF752A408D8806EA05152A434FF662
:102AC000FF352B404FF2FF752B408D8906EA8505B7
:102AD0002B43CD8906EA85052B4383800483CD886B
:102AE0000587028470BD0000002C014000340140C5
:102AF0000A460021018B4FF2FF7319404FF6FF7316
:102B000003EA0223194301837047000070B50024D3
:102B100000220023058C4FF6FF6635400584028CA9
:102B20008388848B4FF68F752C404FF6FC752C40B4
:102B30000D882C434FF6FF552A400D894FF6FF763E
:102B400006EA05252A434D8806EA05252A43154D40
:102B5000A84202D0144DA8421DD14FF2FF752A4061
:102B60004D894FF6FF7606EA05252A434FF6FF35D5
:102B70002A408D8806EA05252A434EF6FF752B402C
:102B80004DF6FF752B408D8906EA05152B43CD893F
:102B900006EA05152B4383808483CD8885870284CC
:102BA00070BD0000002C0140003401400A460021A5
:102BB000818B4FF6F77319401143818370470000F2
:102BC00070B5002200230024058C4EF6FF763540B8
:102BD0000584038C8488828B48F6FF752A404FF663
:102BE000FF452A400D884FF6FF7606EA05252A4361
:102BF0004DF6FF752B400D8906EA05352B434D88B0
:102C000006EA05352B430B4DA84202D00A4DA842D7
:102C100008D14BF6FF752C408D894FF6FF7606EAFA
:102C200085152C4384808283CD88A0F8405003848E
:102C300070BD0000002C0140003401400A46002114
:102C4000818B4FF2FF7319404FF6FF7303EA0223A3
:102C500019438183704781847047028B4FF6F37369
:102C60001A400283028B0A4302837047028B4FF2A1
:102C7000FF331A400283028B4FF6FF7303EA0123EE
:102C80001A4302837047828B4FF6F3731A40828394
:102C9000828B0A4382837047828B4FF2FF331A4044
:102CA0008283828B4FF6FF7303EA01231A438283E8
:102CB00070470000002202881D4B98420ED01D4B29
:102CC00098420BD0B0F1804F08D01B4B984205D0F2
:102CD0001A4B984202D01A4B984204D14FF68F7388
:102CE0001A404B881A43174B984207D0164B98420C
:102CF00004D04FF6FF431A40CB881A4302808B88DA
:102D000083850B8803850A4B98420BD0094B984268
:102D100008D00E4B984205D00D4B984202D00D4B77
:102D2000984201D10B7A0386012383827047000009
:102D3000002C014000340140000400400008004025
:102D4000000C004000100040001400400040014012
:102D500000440140004801404FF6FF71818000218E
:102D60000180C180418001727047000010B540F2BF
:102D700025511B4800F068F8012830D140F2255158
:102D8000174800F061F8012824D11549091D098868
:102D9000C8B21449098808290DD213490968087076
:102DA00011490968491C104A11600E490988491CDB
:102DB0000C4A11800DE001210C4A11600A49096892
:102DC00008700B49084A11600121064A1180094A1E
:102DD000117000BF40F22551014800F00DF810BD00
:102DE000003801403A0000203C000020B48121421C
:102DF000300000203800002010B50022002340F6EB
:102E00006A14A14200D100BF0A1201249440A3B267
:102E1000DC43048010BD21B1828942F400528281DA
:102E200004E082894DF6FF731A40828170470246A2
:102E30000020B1F5007F00D100BF13880B400BB11B
:102E4000012000E00020704770B5024600240023F6
:102E50000025002040F66A16B14200D100BFC1F340
:102E6000421501F01F03012606FA03F3012D02D1DA
:102E70009689334006E0022D02D1168A334001E0E4
:102E8000968A33400C12012606FA04F41688344060
:102E900013B10CB1012000E0002070BDF0B5034675
:102EA000002400260025002040F66A17B94200D110
:102EB00000BF1846C1F3421401F01F06012707FAAC
:102EC00006F5012C01D10C3004E0022C01D11030A8
:102ED00000E014301AB107682F43076002E007686A
:102EE000AF430760F0BD00002DE9F04786B005460E
:102EF0000E460024A24600BFA1460027B08900B1BB
:102F000000BF2F462C8A4CF6FF700440F088044323
:102F10002C82AC894EF6F3100440B0883189084306
:102F2000718908430443AC81AC8A4FF6FF400440EA
:102F3000B0890443AC8201A8FFF71EFA1F488742FC
:102F400002D1DDF810A001E0DDF80CA0A88900F4A2
:102F5000004040B10AEBCA0000EB0A10316849009A
:102F6000B0FBF1F807E00AEBCA0000EB0A10316889
:102F70008900B0FBF1F86420B8FBF0F004012009EF
:102F8000642101FB1089A88900F4004040B132207F
:102F900000EBC900B0FBF1F000F00700044308E0CB
:102FA000322000EB09106421B0FBF1F000F00F00BB
:102FB00004432C8106B0BDE8F087000000380140D2
:102FC000C1F308028280704700BFFEE710B50A48CF
:102FD000806940F00100084988610848406820F095
:102FE000E060064948600846406840F0007048606C
:102FF00002F088F910BD00000010024000000140FE
:1030000008B501210820FFF7A7F94FF40050ADF8EB
:10301000000010208DF8030003208DF8020069469F
:103020000148FEF70CFF08BD000C01403EB5054607
:103030000C4601211020FFF77FF9ADF80450ADF8E0
:1030400000400020ADF80600ADF8020069460448D3
:10305000FFF730FE01210248FFF7FDFB3EBD0000F7
:103060000010004030B589B005460C4601214803E8
:10307000FFF772F901211020FFF76EF94FF470701D
:10308000ADF8200018208DF8230003208DF82200D1
:1030900008A92448FEF7D3FEADF81850ADF8144047
:1030A0000020ADF81A00ADF8160005A91E48FFF77C
:1030B00001FE6020ADF804000120ADF806000020FC
:1030C000ADF80A00ADF80C0001A91748FFF768FC3D
:1030D00001A91548FFF7BAFC01A91348FFF716FD2F
:1030E00001A91148FFF76CFD01210F48FFF7BFFB55
:1030F00008210D48FFF7A0FC08210B48FFF7F8FC5A
:1031000008210948FFF752FD08210748FFF796FDFF
:1031100001210548FFF790FB01210348FFF79BFBC6
:1031200009B030BD001001400034014008B5012154
:103130001020FFF711F901210846FFF70DF94EF2B3
:103140000100ADF8000010208DF8030002208DF87A
:10315000020069460148FEF772FE08BD00100140FA
:1031600030B589B005460C460121C802FFF7F4F8D6
:1031700001210420FFF7F0F84FF48070ADF8200033
:1031800018208DF8230003208DF8220008A9194883
:10319000FEF755FEADF81850ADF814400020ADF81C
:1031A0001A00ADF816008DF81C0005A91248FFF7AB
:1031B00081FD6020ADF804000120ADF8060000207C
:1031C000ADF80A00ADF80C0001A90B48FFF7E8FBC9
:1031D00008210948FFF730FC01210748FFF72CFBC5
:1031E00001210548FFF737FB01210348FFF73FFBAB
:1031F00009B030BD00080140002C014000B587B087
:1032000001210846FFF7A8F801210846FFF794F8C6
:1032100001210420FFF7A0F801210820FFF79CF806
:1032200001212848FEF796FE4FF40040ADF800005B
:1032300004208DF8030069462348FEF700FE0820AD
:10324000ADF8000004208DF8030069461F48FEF722
:10325000F6FD04A8FFF780FD0020ADF810004FF642
:10326000FF70ADF814000020ADF81600ADF81200A4
:1032700004A94FF08040FFF71DFD00231A460321EB
:103280004FF08040FFF702FB01A8FFF777FB0A2011
:10329000ADF80C0001A94007FFF71AFB01218807D0
:1032A000FFF7D6FA012211469007FFF770FB0021C5
:1032B0004FF08040FFF7CFFC01218807FFF7CBFAE2
:1032C00007B000BD0001180000080140000C0140DB
:1032D00000B587B001210220FFF72EF8012104205C
:1032E000FFF73AF8C020ADF8000004208DF8030085
:1032F00069461C48FEF7A3FD04A8FFF72DFD00203A
:10330000ADF810004FF6FF70ADF814000020ADF8D6
:103310001600ADF8120004A91348FFF7CBFC0023F8
:103320001A4603211048FFF7B1FA01A8FFF726FB60
:103330000A20ADF80C0001A90B48FFF7C9FA0121DA
:103340000948FFF785FA012211460748FFF71FFBDE
:1033500000210548FFF77FFC01210348FFF77BFAB6
:1033600007B000BD000801400004004010B502464F
:10337000012000E050430B1EA1F10104E1B2F9D19C
:1033800010BD1CB5044602233722D021204600F090
:10339000C3F80A2001F0D8FF01230A221821204691
:1033A00000F0BAF80A2001F0CFFF032218212046CE
:1033B00000F041F88DF8000004221821204600F0AA
:1033C0003AF88DF801009DF800109DF8012041EABF
:1033D000022002F0ABFF206205221821204600F0F7
:1033E0002AF88DF8020006221821204600F023F862
:1033F0008DF803009DF802109DF8032041EA022099
:1034000002F094FF606207221821204600F013F8B2
:103410008DF8040008221821204600F00CF88DF8E1
:1034200005009DF804109DF8052041EA022002F0F5
:103430007DFFA0621CBD2DE9F04180460C4615467B
:103440000126FEF7ADFE2046FEF776FEFEF7F4FEFF
:1034500007462846FEF770FEFEF7EEFE0746FEF72B
:103460009FFE611CC8B2FEF767FEFEF7E5FE074649
:103470000020FEF729FE0746FEF7B8FE16B9FF202A
:10348000BDE8F0813846FBE71CB504464422D02154
:103490002046FFF7D0FF8DF800004322D0212046C0
:1034A000FFF7C9FF8DF801009DF800109DF801207D
:1034B00041EA022002F03AFF60614622D021204614
:1034C000FFF7B9FF8DF802004522D0212046FFF713
:1034D000B2FF8DF803009DF802109DF8032041EA29
:1034E000022002F023FFA0614822D0212046FFF7EE
:1034F000A2FF8DF804004722D0212046FFF79BFF52
:103500008DF805009DF804109DF8052041EA022081
:1035100002F00CFFE0611CBD2DE9F04180460C4635
:1035200015461E460127FEF73BFE2046FEF704FE29
:10353000FEF782FE2846FEF7FFFDFEF77DFE3046D1
:10354000FEF7FAFDFEF778FEFEF750FE3846BDE8BE
:10355000F0811CB504463C22D0212046FFF76BFFCA
:103560008DF800003B22D0212046FFF764FF8DF844
:1035700001009DF800109DF8012041EA022002F0B0
:10358000D5FEA0603E22D0212046FFF754FF8DF8E3
:1035900002003D22D0212046FFF74DFF8DF80300A9
:1035A0009DF802109DF8032041EA022002F0BEFEC1
:1035B000E0604022D0212046FFF73DFF8DF8040057
:1035C0003F22D0212046FFF736FF8DF805009DF8F9
:1035D00004109DF8052041EA022002F0A7FE2061B8
:1035E0001CBD10B504462046FFF7B3FF2046FFF789
:1035F0004BFF2046FFF7C5FE04F1080010BD000098
:1036000038B504460D4625602848007800283CD08F
:103610004FF49670A080002024490870FEF70CFD3E
:103620007522D0212046FFF706FF71281ED1002306
:103630006B22D0212046FFF76FFF07231922D021EC
:103640002046FFF769FF06231A22D0212046FFF704
:1036500063FF18231B22D0212046FFF75DFF1823AC
:103660001C22D0212046FFF757FF1DE000200090CC
:103670000FA16846FCF74BFE206812A1009A00F0EB
:10368000FBFA0098FCF71CFE0EE0002000900EA153
:103690006846FCF73CFE20680AA1009A00F0ECFAAC
:1036A0000098FCF70DFE00BF204638BD2800002022
:1036B000494D5520496E6974204661696C656421E5
:1036C00000000000494D5500636C61737320686110
:1036D00073206265656E207265646566696E6564F7
:1036E000000000000449096819B90188491C0180DB
:1036F00001E00021018070473881214201460848DD
:10370000006840B90748007808B1002070470120E0
:10371000044A1070FAE70020024A1070F6E7000031
:10372000388121422B00002038B504460B48007830
:1037300090B101210820FEF70FFE4FF48040ADF854
:10374000000048208DF8030069460548FEF777FB26
:1037500000200249087000BF204638BD2A00002022
:10376000000C014010B50446204600F085F82046C4
:1037700000F082F8204600F07FF8204600F00EF9B5
:10378000204600F047F9204600F0A2F810BD0000E6
:103790001CB50446204600F063F80020019001208B
:1037A000009000202949086029480178204600F04F
:1037B00067F927484178204600F062F9022001901D
:1037C00036E00120009027E0012022490860052012
:1037D00001F0E0FD00202049C1F89001052001F032
:1037E000D9FD01201C49C1F890011C48D0F80801FE
:1037F00058B1201D9DF80410405CBDF8001008432E
:10380000C1B2201D9DF804208154BDF800004FF680
:10381000FF7101EA40000090BDF80000FF28D3DDF1
:10382000102001F0B7FD9DF80400401CC0B20190CB
:103830009DF804000928C4DB012004490860E179EF
:10384000207A41EA0020E0811CBD00008C01224268
:10385000D667000890012142000021420000224268
:103860000146002004E000230A1D1354421CD0B27C
:103870000928F8DB7047000010B504460020104905
:103880000860102001F086FD0121204600F0F8F8C4
:103890004221204600F0F4F80021204600F0F0F824
:1038A0000021204600F0ECF80021204600F0E8F866
:1038B00001200449C1F88C01102001F06BFD10BDFE
:1038C0008C012242000022420246101D405C7047DB
:1038D00010B50446002018490860102001F05AFD78
:1038E0000121204600F0CCF84321204600F0C8F822
:1038F0000021204600F0C4F80021204600F0C0F866
:103900005A21204600F0BCF85A21204600F0B8F8B1
:103910005A21204600F0B4F85A21204600F0B0F8B1
:103920005A21204600F0ACF801200449C1F88C016E
:10393000102001F02FFD10BD8C0122420000224218
:1039400038B5044601211420FEF706FD0420ADF829
:10395000000048208DF8030069460E48FEF76FFA14
:103960000A20ADF8000010208DF8030003208DF828
:10397000020069460748FEF762FA1020ADF8000021
:103980008DF8030003208DF8020069460248FEF717
:1039900056FA38BD001001400008014010B5044639
:1039A000002018490860102001F0F4FC0121204695
:1039B00000F066F84321204600F062F8002120461E
:1039C00000F05EF80121204600F05AF80021204660
:1039D00000F056F80021204600F052F80021204661
:1039E00000F04EF80021204600F04AF80021204661
:1039F00000F046F801200449C1F88C01102001F0C4
:103A0000C9FC10BD8C012242000022420146C88937
:103A10007047000010B504460020174908600121D6
:103A2000204600F02DF84421204600F029F800211E
:103A3000204600F025F80121204600F021F803215E
:103A4000204600F01DF80021204600F019F8002162
:103A5000204600F015F80021204600F011F8002162
:103A6000204600F00DF801200449C1F88C01102017
:103A700001F090FC10BD00008C01224200002242A7
:103A800038B504460D460120009000216171009078
:103A90002BE0BDF80000284018B10120174908604C
:103AA00002E0002015490860012015490860052042
:103AB00001F070FC00201349C1F89001052001F0CD
:103AC00069FC01200F49C1F890010F48D0F80801A6
:103AD00020B16079BDF8001008436071BDF80000A6
:103AE0004FF6FF7101EA40000090BDF80000FF288A
:103AF000CFDD102001F04EFC38BD000084012242D1
:103B000090012142000021420000224270B504468B
:103B10000D4625600948007848B12046FFF710FFA0
:103B20002046FFF71FFE00200449087004E004A2AD
:103B30000AA1206800F0A0F8204670BD2D000020EA
:103B4000636C61737320686173206265656E2072B7
:103B500065646566696E656400000000505332005C
:103B600070B505460C461646287800B164B1287831
:103B700008B9012C08D0287808B9022C04D0022CEE
:103B800001D0012C05D126B911A216A1686800F058
:103B900073F82CB90020154988840120287015E09D
:103BA000022C0AD100BF1148818C642070438142ED
:103BB000F9DB00200D49888408E000BF0B48818CA8
:103BC000642070438142F9DB00202870012070BD21
:103BD00057616974466F7254696D65204572726FE2
:103BE0007200000054494D360000000000100040F3
:103BF00070B504460D4665600A48007850B140F241
:103C0000CF214EF65F20FFF711FA00202070054902
:103C1000087004E004A20BA1606800F02DF82046B3
:103C200070BD000040000020636C61737320686108
:103C300073206265656E207265646566696E656491
:103C40000000000074696D657200000070B50646E2
:103C500000240BE0002505E0002006EBC501085517
:103C6000681CC5B2802DF7DB601CC4B2082CF1DBE8
:103C7000304600F083F970BD06460D4614463046C6
:103C8000FFF7E4FFBCB13046FFF7E0FF2B4605220B
:103C90000021304600F02DF908A3052232213046DC
:103CA00000F027F9234614220521304600F021F9BF
:103CB000304600F063F900BFFEE700004572726F06
:103CC000723A0000012900D029B9044B1960002381
:103CD00080F8043401E080F804247047B481214264
:103CE00030B503461AB10124124D2C6002E00024C5
:103CF000104D2C60002016E000240E4D34352C6051
:103D000001F080041CB101242D1D2C6003E000246F
:103D1000084D38352C600124064D34352C604C0696
:103D2000210E441CE0B20828E6DB0124014D2C6082
:103D300030BD0000800122422DE9FF4F81B088464E
:103D400014461D46DDE90E790094A5F12000C5B2A8
:103D5000002641E00C2F07D105EB4500214901EB7E
:103D6000800010F806A004E01F4800EB051010F8D2
:103D700006A04FF0000B29E00AF0800030B14B465E
:103D800022464146019800F031F80BE0B9F1000FEE
:103D900001D1012000E0002003462246414601985F
:103DA00000F024F84FEA4A604FEA106A601CC4B27F
:103DB0000098201AB84205D1009C08F1010000F0DB
:103DC000FF0806E00BF1010000F0FF0BBBF1080F4C
:103DD000D2DB00BF701CC6B2BE42BBDB05B0BDE883
:103DE000F08F0000D86700084C6C0008F0B51D4645
:103DF00000277F2901DC3F2A00DDF0BD14464FEA91
:103E0000E27C02EB5C7C4FEAEC0CCCF1070C0CF092
:103E1000FF034FEAE27C02EB5C7C4FEAEC0CA2EB86
:103E2000CC0C0CF0FF06C6F1070C012404FA0CF4CC
:103E3000E7B245B100EBC104E45C3C4300EBC10CCC
:103E40000CF8034007E000EBC104E45CBC4300EB6A
:103E5000C10C0CF8034000BFCFE72DE9FF4F83B042
:103E600082460E469946DDE9107400200290002536
:103E70003AE0781B401EC1B20A20FFF777FAB9FB7F
:103E8000F0F00A21B0FBF1F201FB12080298B8B978
:103E9000781EA84214DDB8F1000F0FD10120A3460F
:103EA000CDE9004004EBDB70401000FB0560C1B2BF
:103EB00020235046059AFFF73FFF13E001200290B0
:103EC0000120A346CDE9004004EBDB70401000FB6D
:103ED0000560C1B208F13000C3B25046059AFFF741
:103EE0002BFF00BF681CC5B2BD42C2DB07B0BDE8F6
:103EF000F08FFCB507460D4616461C461BE07A2D92
:103F000003DD002506F11000C6B23A2E05DD0020C3
:103F1000054606463846FFF799FE01200C21CDE9FB
:103F200000102378324629463846FFF705FF05F191
:103F30000800C5B2641C20780028E0D1FCBD000058
:103F400090F80414A9B10B490978491C094A117069
:103F500090F804144900127891420ADC0649096875
:103F600009B9012100E00021034A11600021014A42
:103F70001170704747000020B481214270B5064699
:103F800000241FE004F1B000C1B200223046FFF768
:103F9000A7FE002211463046FFF7A2FE00221021A4
:103FA0003046FFF79DFE002508E006EBC500015DE9
:103FB00001223046FFF794FE681CC5B2802DF4DB69
:103FC000601CC4B2082CDDDB70BD000070B5064675
:103FD0000C4615463046FFF739FE234605220021E0
:103FE0003046FFF786FF08A3052232213046FFF74F
:103FF00080FF2B46142205213046FFF77AFF30461A
:10400000FFF7BCFF70BD0000496E666F3A0000000C
:1040100010B504460120FEF787F90020FEF716FAD6
:104020000020FDF703FF0020FEF77EF90020454940
:104030000860642001F088F901204349C1F8BC01FF
:104040000022AE212046FFF74BFE0022D52120465C
:10405000FFF746FE002250212046FFF741FE0022D6
:10406000A8212046FFF73CFE00223F212046FFF713
:1040700037FE0022D3212046FFF732FE00221146F0
:104080002046FFF72DFE002240212046FFF728FEA4
:1040900000228D212046FFF723FE00221421204616
:1040A000FFF71EFE002220212046FFF719FE002206
:1040B00002212046FFF714FE0022A1212046FFF72F
:1040C0000FFE0022C0212046FFF70AFE0022DA215F
:1040D0002046FFF705FE002212212046FFF700FED2
:1040E000002281212046FFF7FBFD0022EF21204620
:1040F000FFF7F6FD0022D9212046FFF7F1FD00224F
:10410000F1212046FFF7ECFD0022DB212046FFF7DE
:10411000E7FD002230212046FFF7E2FD0022A42126
:104120002046FFF7DDFD0022A6212046FFF7D8FD3F
:104130000022AF212046FFF7D3FD2046FFF786FD82
:1041400010BD0000BC0122420000224270B50446AE
:104150000D46C4F80054012084F805040C4800788A
:1041600078B1FEF7E3FFFEF74BFF2046FFF750FF65
:104170000A2201212046FFF7A5FD0020044908700E
:1041800004E004A20AA12046FFF776FD204670BD98
:1041900046000020636C6173732068617320626560
:1041A000656E207265646566696E65640000000076
:1041B000434465627567000010B511F5E15F01DAEF
:1041C0001D4904E0B1F5E15F01DD4FF4E15112F565
:1041D000E15F01DA184A04E0B2F5E15F01DD4FF476
:1041E000E152002908DD4FF4E153144C2380C1F55E
:1041F000E153241F238008E04FF4E1530F4C241FA8
:10420000238001F5E153241D2380002A09DD4FF4AA
:10421000E1530A4C08342380C2F5E153241F238064
:1042200008E04FF4E153054C241D238002F5E153CF
:10423000241D238010BD0000E0E3FFFF383401405F
:104240002DE9F04107460C460E49204602F0BAF827
:1042500006460D4902F0B3F905460C49284602F01E
:104260007DF801D2094D05E00949284602F076F9AA
:1042700000D2074D284602F039F806490880BDE80B
:10428000F08100000000204100C0BC4400009144C7
:104290000000EB44342C014070B504460D46256007
:1042A0000F480078A0B1002141F61F40FEF7DAFE6A
:1042B000472142F20F70FEF753FF012001F044F84E
:1042C00000212046FFF7BCFF00200549087004E0EC
:1042D00004A20BA12068FFF7CFFC204670BD0000B0
:1042E0002C000020636C6173732068617320626529
:1042F000656E207265646566696E65640000000025
:104300004D6F746F720000000146014800787047DD
:10431000380000200022034B1A70034B0CCBC0E97D
:104320000023704738000020300000202DE9F041C4
:1043300007460C46254624260BE015F8011B0C48C1
:10434000FEF73EFE00BF80210948FEF770FD002801
:10435000F9D0301EA6F101018EB2EED100BF40218E
:104360000348FEF764FD0028F9D0BDE8F0810000A5
:104370000038014030B587B004460D4625602E4810
:104380000078002850D0012144F20400FDF7E4FF3A
:104390004FF40070ADF8180003208DF81A001820B3
:1043A0008DF81B0006A92548FDF749FD4FF48060F4
:1043B000ADF8180004208DF81B0006A91F48FDF772
:1043C0003EFD4FF4A060FDF7A5FF25208DF8040009
:1043D00000208DF8050001208DF806008DF80700FB
:1043E00001A8FDF75FFF4FF4E13002900020ADF827
:1043F0000C00ADF80E00ADF81000ADF814000C2064
:10440000ADF8120002A90E48FEF76EFD012240F23F
:1044100025510B48FEF742FD01210948FEF7FBFC40
:1044200000200549087004E006A20DA12068FFF7EE
:1044300023FC204607B030BD3900002000080140B1
:1044400000380140636C617373206861732062659A
:10445000656E207265646566696E656400000000C3
:10446000757361727400000070B506460C46A4F1C5
:104470008000002800D401E0C4F18000032808DD9A
:10448000A4F1800001F052FF0546034901F050FEFF
:1044900070BD0020FCE70000666666400246A1F1A0
:1044A0007F004000032390FBF3F0704707B592B004
:1044B000FE49139801F052FF02D2FC48139006E027
:1044C000FB49139802F04AF801D2F9481390F949D0
:1044D000149801F043FF02D2F648149006E0F64922
:1044E000149802F03BF801D2F3481490149801F0AC
:1044F00085FD4FF06632F14BCDE9080101F0AAF9D4
:10450000CDE90A0101F098F8CDE90C011298406854
:104510000B9000F025FB1190129840680B9000F072
:104520002FFB10900020E649DDE90C2301F072FB1F
:1045300000224FF08043CDE9000101F08BF94FF0EC
:104540000052E04BCDE9020101F084F90022DE4B7C
:10455000CDE9040101F05CFCCDE90801139801F0FC
:104560004DFDCDE90601DDE9082301F053FBCDE95E
:104570000A0101F0C7FA0F900020D149DDE90C23B0
:1045800001F048FB00224FF08043CDE9000101F02B
:1045900061F94FF00052CB4BCDE9020101F05AF91D
:1045A0000022C94BCDE9040101F0A4F8CDE90801CE
:1045B000139880F00040059001F020FDCDE9060140
:1045C000DDE9082301F026FBCDE90A0101F09AFAA2
:1045D0000E900F98002816DA12980068BBA30A22E2
:1045E00000210B90FFF785FC0C200521CDE9001080
:1045F000129800680B900F9843420A220F210B98E3
:10460000FFF72BFC13E012980068B1A30A220021E7
:104610000B90FFF76EFC0C200521CDE900101298DD
:1046200000680B900A220F210F9BFFF716FC0E98D3
:10463000002816DA12980068A4A30A2250210B90D1
:10464000FFF757FC0C200421CDE9001012980068F8
:104650000B900E9843420A225F210B98FFF7FDFB57
:1046600013E0129800689AA30A2250210B90FFF7DA
:1046700040FC0C200421CDE90010129800680B903A
:104680000A225F210E9BFFF7E8FB0F9ADDE911106C
:1046900000F08AF90F900E9A1099129800F0D8F94C
:1046A0000E90129880680B90DDE90E21FFF784FDD3
:1046B000129880680B901499FFF7C2FD0F9800289C
:1046C00016DA1298006881A3142200210B90FFF7DC
:1046D00010FC0C200521CDE90010129800680B9009
:1046E0000F98434214220F210B98FFF7B6FB13E0FB
:1046F0001298006876A3142200210B90FFF7F9FBB3
:104700000C200521CDE90010129800680B901422AE
:104710000F210F9BFFF7A1FB0E98002816DA1298C5
:1047200000686AA3142250210B90FFF7E2FB0C20D3
:104730000421CDE90010129800680B900E984342B6
:1047400014225F210B98FFF788FB13E01298006892
:104750005FA3142250210B90FFF7CBFB0C20042108
:10476000CDE90010129800680B9014225F210E9B77
:10477000FFF773FB1198002816DA1298006853A30C
:104780001E2200210B90FFF7B4FB0C200521CDE980
:104790000010129800680B90119843421E220F21BE
:1047A0000B98FFF75AFB13E01298006848A31E22EB
:1047B00000210B90FFF79DFB0C200521CDE9001097
:1047C000129800680B901E220F21119BFFF745FBEA
:1047D0001098002816DA129800683CA31E22502177
:1047E0000B90FFF786FB0C200421CDE900101298F6
:1047F00000680B90109843421E225F210B98FFF730
:104800002CFB13E01298006831A31E2250210B905C
:10481000FFF76FFB0C200421CDE90010129800680F
:104820000B901E225F21109BFFF717FB1298006868
:1048300028A3282200210B90FFF75BFB149801F0BE
:10484000DDFB0022254BCDE9040101F0E3F9002254
:10485000234BCDE9060101F0DBFACDE9080101F0B7
:1048600081F90B900C200421CDE90010129800680A
:104870000A9028223C210B9BFFF7EFFA00211398A6
:1048800001F06CFD39D21298006810A33222002189
:104890000B90FFF72EFB139880F000400A9001F078
:1048A00025FD0C210B9005201CE0000000E0ABC5AD
:1048B00000E0AB45000010C20000104266A64C406C
:1048C000295CCF3F5C8FD23F0000F03F2D000000FD
:1048D0002B000000536572766F3A00000000244000
:1048E00000989740CDE90001129800680A903222A2
:1048F0000F210B9BFFF7B1FA18E012980068AFF296
:104900003003322200210B90FFF7F3FA139801F0E5
:10491000EDFC0B900C200521CDE9001012980068E9
:104920000A9032220F210B9BFFF797FA002114986F
:1049300001F014FD1CD212980068AFF2700332220D
:1049400050210B90FFF7D5FA149880F000400A90A0
:1049500001F0CCFC0B900C200421CDE90010129842
:1049600000680A9032225F210B9BFFF776FA18E06D
:1049700012980068AFF2A803322250210B90FFF783
:10498000B8FA149801F0B2FC0B900C200421CDE988
:104990000010129800680A9032225F210B9BFFF7EB
:1049A0005CFA15B000BD00002DE9FC5F05460C4621
:1049B0001646A71B384601F0B9FC0090296901F0A2
:1049C00001FD82461F490968781A01F0AFFC00908A
:1049D000E96801F0F7FC8346514601F03BFB814654
:1049E0001948006801F0A2FC4946019001F032FB31
:1049F000804601F05FFC144908600846006810F525
:104A0000E15F02DA1148086008E00F480068B0F57D
:104A1000E15F03DD4FF4E1500B490860094807608E
:104A2000002C01DB204600E06042032805DA26B9AD
:104A3000002005490860034908600348008800B267
:104A4000BDE8FC9F500000204C000020E0E3FFFF89
:104A50002DE9F84F05460C461646A01B274908606D
:104A60000846006801F062FC8346296901F0AAFC4F
:104A7000814622490968224A1268881A01F056FCC8
:104A80008346E96801F09EFC8246494601F0E2FA5D
:104A900080461C48006801F049FC4146009001F046
:104AA000D9FA074601F006FC164908600846006876
:104AB00010F5E15F02DA1448086008E01148006868
:104AC000B0F5E15F03DD4FF4E1500E4908600B489B
:104AD00000680B490860002C01DB204600E06042C2
:104AE000032805DA26B90020064908600449086051
:104AF0000448008800B2BDE8F88F00005400002090
:104B00005C00002058000020E0E3FFFFF8B50446F9
:104B10000F4615461E4627606560A6600D48E0609A
:104B200020610D48007890B101210820FDF714FCA8
:104B30004FF48040ADF8000048208DF8030069462E
:104B40000648FDF77CF900200349087000BF2046A5
:104B5000F8BD00000000784248000020000C014031
:104B600001464FF08042928C12B202EB420303EBFB
:104B7000C202112392FBF3F000229B079A84704734
:104B80000146074A128812B202EB420303EBC2024B
:104B9000112392FBF3F00022014B1A8070470000B2
:104BA0002404004070B504460D462560084800788E
:104BB00038B1FEF723FBFEF78BFB00200449087099
:104BC00004E004A20AA12068FFF756F8204670BD51
:104BD00029000020636C6173732068617320626533
:104BE000656E207265646566696E6564000000002C
:104BF000456E636F64657200490050EAC12018BFBA
:104C000004204A0D18BF40F0010040F2FF72B2EBE1
:104C1000515F08BF40F00200012808BF052070471F
:104C20002DE9F74F144694B00021C4E902111599FB
:104C3000079121F00045C9498D4206DC1599C4E968
:104C4000000117B00020BDE8F08FC549DFF814A3BC
:104C5000A9423CDD0799C44E0029C44FC44A1599A6
:104C6000534619DD01F0E0F8554506D0C14AC24B64
:104C700001F0DAF8C4E900010AE04FF0D352BE4B6C
:104C800001F0D2F832463B4601F0CEF8C4E900010B
:104C900017B00120BDE8F08F00F02CFD554506D07F
:104CA000B44AB54B00F026FDC4E900010AE04FF01C
:104CB000D352B14B00F01EFD32463B4600F01AFDC8
:104CC000C4E9000117B04FF0FF30BDE8F08FAB49E9
:104CD000A942159978DB21F0004183468846A84A0D
:104CE000A84B00F097FF0022A74B00F003FD00F057
:104CF00009FF099000F063FF06460F469C4A5346A1
:104D000000F088FF43465A4601F082F880468A4602
:104D1000984A994B3046394600F07CFF2A0D012510
:104D20000B924246534601F073F8032DC4E900018B
:104D300039D00B98C1F30A51401A05EB45111139CE
:104D4000814230DA9148C346784400EB0510CDF833
:104D50000CA00C90D0E900233046394600F05AFFF1
:104D600002460B46049106905846039901F05CF800
:104D700080468A4602460B465846039901F054F88D
:104D8000049B069A01F050F883460C98039139462B
:104D9000D0E90223304600F03DFF5A46039B01F064
:104DA00043F86D1CBDE707980028A2BF099817B00B
:104DB000BDE8F08F616881F000416160099817B02B
:104DC0004042BDE8F08FFFE784461598C1F3130118
:104DD000C0F30A50A0F2F5304FEA601800F01F0649
:104DE000C6F12000139000200690079041F4801E29
:104DF00005206D4676B1664A08EB00017A4452F808
:104E0000213002EB8101B3404A68139922FA01F183
:104E1000194305E05F4908EB0002794451F822107C
:104E2000A1FB0E27A1FB0C131A449A4234BF0123A5
:104E3000002303EB070A05EB8003D3E901B70F4416
:104E40008F4234BF0121002193448B4411B193451B
:104E500002D903E0934501D2012100E00021C3E91A
:104E600001B7514445F82010011EA0F10100C1DC3A
:104E70000298059F00F10050800F12900298DDE922
:104E80000356800000F09BFE834628460D9100F0FB
:104E9000ADFE6FF01D0201F048FCCDE90E01304679
:104EA00000F0A4FE6FF03D0201F03FFC80468A4610
:104EB000384600F09BFE6FF05D0201F036FC0746BD
:104EC00042465346119100F015FCDDE90E2300F037
:104ED00011FC5A460D9B00F00DFC00250E465A466B
:104EE00028460D9B00F0A0FFDDE90E2300F09CFF9B
:104EF0004246534600F098FF3A46119B00F088FF67
:104F0000DFF898A0244A534600F084FE07468846FE
:104F1000234A244B3146284600F07CFE3A4643465D
:104F200000F0E8FB074688464FF0A842534631465A
:104F3000284600F06FFE3A46434600F0DBFB159A28
:104F400012F0004F04D0129A81F0004152421292A6
:104F5000C4E90001129817B0BDE8F08FFB21E93FCA
:104F60007CD90240FB21F93F7370032E8A19A33BC1
:104F7000000040543163621A61B4D03DFB213941D5
:104F800083C8C96D305FE43F0000E03F3425000076
:104F9000B024000092240000182D4454FB21F93D58
:104FA0003326A611460B113C2DE9F0414F1E00EBB4
:104FB000C7010446D1E9000115461E4637F0060236
:104FC0000DD02A46334600F025FE7F1E04EBC703B2
:104FD000D3E9002300F08EFB37F00602F1D1022F57
:104FE00025D0042F13D0062F18BFBDE8F0812A4624
:104FF000334600F00FFED4E90A2300F07BFB2A467B
:10500000334600F007FED4E9082300F073FB2A467C
:10501000334600F0FFFDD4E9062300F06BFB2A467F
:10502000334600F0F7FDD4E9042300F063FB2A4681
:10503000334600F0EFFDD4E9022300F05BFB2A4683
:10504000334600F0E7FDD4E90023BDE8F04100F06D
:1050500051BB00002DE9F04D04468CB0904821F082
:105060000047164698460D460991874206DA2046C3
:10507000294600F047FD002800F0AE808948B8427C
:105080001CDC09980028BCBF85F0004588F000486A
:10509000854A864B2046294600F0BAFE04460D4656
:1050A000324643468248834900F0BEFE22462B46E4
:1050B00000F020FB002604460D46B04622462B4653
:1050C0001046194600F0A6FD8B46824602460B4666
:1050D00000F0A0FD0246089077480B46009106219B
:1050E0007844FFF761FFCDE9031074480621784446
:1050F000009B089AFFF758FF52465B4600F08AFD76
:10510000CDE9051052465B462046294600F082FD57
:1051100007910090DDE90310DDE9053200F0EAFABD
:10512000079B009A00F076FD3246434600F0E2FA13
:1051300052465B4600F06EFD3246434600F0DAFA16
:1051400080460E465E4A5F4B0799009800F062FD6C
:105150004246334600F0CEFA82468B4622462B4624
:1051600000F0C8FA80464F480E46B84214985BDCFF
:1051700000F025FD074642463346059100F0BAFA95
:10518000CDE90110424633461046194600F042FD73
:10519000DDE9013200F05EFB52465B4600F044FE62
:1051A00022462B4600F034FE012201F0BEFA3A46B8
:1051B000059B00F02DFE04460D460998022101EAE8
:1051C000A070C0F1010000F0FAFC0CB022462B46A2
:1051D000BDE8F04D00F01EBD1498401C384320433C
:1051E0000BD01498012812D00CB022462B46BDE8F3
:1051F000F04D0020344900F02DBB0CB025F00043E9
:105200002246BDE8F04D0020304900F023BB204687
:105210002946FFF7F1FC042808BF00F063F8204698
:105220000CB02946BDE8F08D012802BF40460CB005
:10523000BDE8F08D00270B463A462046294600F08F
:10524000E7FD52465B4600F0E3FD04460D4642464C
:10525000334600201C4900F0FDFA83463A46884652
:105260003346104600F0D6FC0022184B00F042FAFC
:1052700006468A4622462B463846414600F0CAFC7E
:105280003246534600F036FA5A46434600F0C2FC16
:105290000CB03A464346BDE8F04D00F02BBA000092
:1052A0000000303E2894E53F182D4454FB21E93F8F
:1052B000075C143326A6813C64220000862200008D
:1052C000635555555555D53F0000F0BF0000F03FE0
:1052D000012201F02ABA002213461046114600F0BE
:1052E000B9BA0000024A0020110701F01EBA0000FE
:1052F00001FDFFFF30380A2801D20120704700204D
:105300007047000010B56FF00400FDF72FF90A4850
:1053100000680A49B0FBF1F00949087008460078B6
:1053200000EB4001C1EBC0104FF6FF7101EAC00075
:105330000449088010BD00000000002000127A001F
:1053400042000020440000200146114A12884A43CE
:105350004FF0E0235A6100229A611A46126942F026
:1053600001021A6100BF4FF0E022106900F0010253
:105370001AB100F48032002AF5D04FF0E022126911
:1053800022F001024FF0E0231A6100229A61704777
:10539000440000200146114A12784A434FF0E023AE
:1053A0005A6100229A611A46126942F001021A619A
:1053B00000BF4FF0E022106900F001021AB100F4C2
:1053C0008032002AF5D04FF0E022126922F001026B
:1053D0004FF0E0231A6100229A61704742000020DA
:1053E000ADF5956DFDF7F2FD0DF2A440FEF79CF9C9
:1053F0000DF2A44127A8FEF7A9FE27A926A8FFF7CA
:10540000D1FB27A924A8FEF7F3FB27A920A8FEF7C4
:105410007DFB27A91FA8FEF73FFF27A91EA8FEF7BF
:10542000A9FF27A913A8FEF7EBF81FAB26AA27A907
:105430000EA8FFF76BFB00200C900D90242103A811
:10544000FAF780FF012470A272A127A8FEF7BEFD23
:10545000D9E00022114624A8FEF782FB27A8FEF718
:10546000F5FB0DF2A440FEF73DF927A8FEF768FD15
:105470000DF2A440FEF742F958B19DF8A1040228AC
:1054800001DB012002E09DF8A104401CC0B28DF8B0
:10549000A1049DF8A10401285AD120A8FEF778F9AB
:1054A00020A8FEF7B3FA00F0800010B102208DF8BA
:1054B000A104052120A8FEF707FA074639460EA8E1
:1054C000FEF7D2FF0546082120A8FEF7FDF9804629
:1054D00041460EA8FEF7E2FF074600F027FF06460A
:1054E0002A4631460EA8FEF7E1FF4CA300221146E2
:1054F00027A8FEF7FEFC082120A8FEF7E5F90546DF
:105500000C2005212B460022CDE900100F2127A8F1
:10551000FEF7A3FC42A30022502127A8FEF7E9FCD6
:10552000052120A8FEF7D0F905460C2004212B46C2
:105530000022CDE900105F2127A8FEF78EFC27A8E6
:10554000FEF71CFD1422012124A8FEF709FB5AE0F6
:105550009DF8A104022856D11EA8FEF7D5FE18B169
:105560001EA90CA8FEF7D6FE092C0BD120A8FEF729
:105570000FF920A8FEF74AFA00F0800010B10120D0
:105580008DF8A104204604EBD0714910A4EB410131
:1055900021B90EA8DDE90C12FEF788FF032C08D113
:1055A00020A30022114627A8FEF7A3FC27A8FEF798
:1055B000E5FC012C01D0052C0FD113A8FEF711F842
:1055C0000546002006E055F8201003AA42F82010F6
:1055D000411CC8B20928F6DB00BF052094FBF0F19E
:1055E00000FB1140022803D103A91EA8FEF79EFE6E
:1055F0000A2C01DB012000E0601CC4B20A22012158
:1056000024A8FEF7ADFA24E7496E746F2057686945
:105610006C65000064656275670000004C5900000D
:10562000525800004175746F20436F6E74726F6C36
:10563000204D6F646500000010B5164B21F000424C
:10564000012486B09A4203DC0022134600941CE039
:10565000114B9A4208D140B94FF00100FAF71BFFF5
:10566000FFF739FE06B010BD03DBFFF731FE06B0D1
:1056700010BD02AAFFF7D4FA00F00100A4EB40002D
:105680000DF1080C00909CE80F00FFF7E3FC06B05A
:1056900010BD0000FB21E93F0000F07F10B500299C
:1056A0000AD00878002807D005487844FBF7AEFFF9
:1056B000002801D0002010BD0248784410BD000031
:1056C000DA1D0000D21D000010B500290AD00878AC
:1056D000002807D005487844FBF798FF002801D040
:1056E000002010BD0248784410BD0000CA1D000013
:1056F000C21D000010B591EA030F48BF83F00043BC
:1057000000F19A83841A71EB030C05D2121943EB52
:105710000C03001B61EB0C01DFF824E14FEA11548C
:10572000A4EB135C1EEA430F18BF9EEA445F73D0DC
:1057300023EA0E03DCF1200E21EA045143F4801326
:1057400032D322FA0CFE10EB0E0023FA0CFE41EBD2
:105750000E01CCF1200E03FA0EFE10EB0E0051F1FB
:105760000001B1F5801FCCF1200E32D201EB0451C3
:1057700012FA0EF2BDE8104058BF7047401C38BF07
:105780005FEA420218BF7047002814BF20F00100F2
:1057900041F100014FEA410313F5001F38BF704784
:1057A000A1F1C04100F02EBB012A43EB0302ACF192
:1057B000200CDCF11F0E32BF4FF0000E23FA0CF369
:1057C00010EB030041EB0451B4EB115FD0D0A1EB1F
:1057D000045101F5801149085FEA300001EB0451E2
:1057E0000ED350F1000038BF12FA0EFE08D1BDE80A
:1057F0001040C9E7401C38BF5FEA4202CAD1C3E784
:10580000BDE810404FEA410313F5001F38BF704751
:10581000A1F1C04100F0F6BA9EEA445F08D011EA57
:105820005E0FBDE8104004BF01F00041002070474A
:10583000BDE8104070B500F097FA00BF64FBBE3EB3
:105840000000E0FF02494FF0000000F03CBF00BF45
:105850000000F87F2DE9C04130B4DFF8A0C23CEA77
:10586000111418BF3CEA131400F0EC8081EA030520
:105870001CEA111444EAD57418BF1CEA131500F091
:10588000C780A4EB05044FF0004545EAC12145EA75
:10589000C32341EA505143EA525304F17F749942C1
:1058A00004F500344FEAC0204FEAC22208BF9042FC
:1058B00000F09C804FEA13650FF24016765D4FEAC8
:1058C000134506FB05F7C7F1807706FB07F74FEA9C
:1058D000D737A7FB03687642C8F58038A7FB06CE0A
:1058E00038BFA8F1010807FB08E64FF0000EA6FB41
:1058F000028CE6FB03CEDCF1000CCEF1004E38BF8B
:10590000AEF1010EA6FB0C584FF000074FF000055A
:10591000E6FB0E87A1FB08C6A0FB07CE16EB0E0622
:1059200045F10005E1FB076515F1E04E7EBFA4F5EA
:1059300080345FEA46066D4116F1800745F10005A7
:105940004FEA17274FEA066647EA0567A6F1DE46E3
:10595000B6F1805F4FEA15251FD9384624F0010CB7
:1059600005EBC471BCF1FE6F01EB0C1102D8F0BC69
:10597000BDE8008124425CBF01F5801E9EEAC47F21
:1059800002D4F0BCBDE80081244238D4F0BCA1F1BF
:10599000C041BDE8004100F035BA4FEAD22242EAE8
:1059A00043524FEAD323A7FB02864FEAD02040EAB6
:1059B000415007FB03661EEA0E0F4FEAD12105FB9B
:1059C000026658BFA6EB0056B6EB00564FEA520EE1
:1059D0004EEAC37E18EB0E0E56EB530EBDD518EBF8
:1059E00002085E417F1C55F10005B6E74FF48015B3
:1059F0004FF000074FF000064FF00008ADE7F0BC95
:105A00004FF0000001F1C04101F00041BDE800810C
:105A100011EA0C1F0CEA131500D00CE013EA0C1F5E
:105A200000F025804FF00000F0BC81EA030101F096
:105A30000041BDE80081F0BCBDE8004181EA0301FE
:105A400000F0E0B9F0BCBDE8004170B500F08CF9A1
:105A5000097EFC3E00F007B881EA03014FF0000028
:105A600001F00041704781EA030100F0CBB9F0BCBE
:105A7000BDE800414FF0000021497047FFFDFBF9F0
:105A8000F7F5F4F2F0EEEDEBE9E8E6E4E3E1E0DE71
:105A9000DDDBDAD8D7D5D4D3D1D0CFCDCCCBCAC8E3
:105AA000C7C6C5C4C2C1C0BFBEBDBCBBBAB9B8B70A
:105AB000B6B5B4B3B2B1B0AFAEADACABAAA9A8A8FD
:105AC000A7A6A5A4A3A3A2A1A09F9F9E9D9C9C9BCB
:105AD0009A99999897979695959493939291919076
